{
  "contractName": "MultiSigWallet",
  "abi": [
    {
      "inputs": [],
      "name": "MIN_CONSENT",
      "outputs": [
        {
          "internalType": "uint256",
          "name": "",
          "type": "uint256"
        }
      ],
      "stateMutability": "view",
      "type": "function"
    }
  ],
  "bytecode": "0x608060405234801561001057600080fd5b5060b28061001f6000396000f3fe6080604052348015600f57600080fd5b506004361060285760003560e01c80639414192614602d575b600080fd5b60336047565b604051603e91906063565b60405180910390f35b600181565b6000819050919050565b605d81604c565b82525050565b6000602082019050607660008301846056565b9291505056fea26469706673582212203fcc110c504a5f1e240ab8440fb02dcf1fd864caf062b1318ef62e2699af840164736f6c634300080a0033",
  "immutableReferences": {},
  "source": "pragma solidity ^0.8.10;\n\ncontract Pools {\n    mapping(address => address[]) private pool_to_owners;\n    mapping(address => address[]) private owner_to_pools;\n    mapping(address => bytes) private pool_to_metadata;\n\n\tconstructor(address _pool_addr, address _owner_addr, bytes memory _metadata) public {\n\t\t/*\n\t\t\t- constructor takes in owners to create wallet and adds to lookup table then calls multisig wallet\n\t\t*/\n        pool_to_owners[_pool_addr].push(address(_owner_addr));\n        pool_to_metadata[_pool_addr] = _metadata;\n        owner_to_pools[_owner_addr].push(address(_pool_addr));\n\t} \n\n    function addOwner(address pool_addr, address [] memory owners_addr) public {\n        for (uint i = 0; i < owners_addr.length; i++) {\n            pool_to_owners[pool_addr].push(owners_addr[i]);\n            owner_to_pools[owners_addr[i]].push(pool_addr);\n        }\n    }\n\n    // getters \n    function getOwners(address pool_addr) public view returns (address [] memory) {\n        return pool_to_owners[pool_addr];\n    }\n\n    function getPools(address owner_addr) public view returns (address [] memory) {\n        return owner_to_pools[owner_addr];\n    }\n\n    /*\n    \tTODO:\n    \t\t- allow owner x to send funds to pool \n    \t\t- trigger multisig for withdrawling from fund \n    \t\t- select delegate of pool \n    */\n\n}\n\ncontract MultiSigWallet {\n\tuint constant public MIN_CONSENT = 1; // 100% agreement upon owners to withdrawl funds \n}\n\n// contract MultiSigWallet {\n// \tfunction submitTransaction() {\n// \t\t/*\n// \t\t\towner will propose a transaction subject to approval by other owners\n// \t\t*/\n\n// \t}\n\n// \tfunction confirmTransaction() {\n\t\t\n// \t\t\tother owners can approve or deny the transaction proposal \n\t\t\n\n// \t}\n\n// \tfunction executeTransaction() {\n// \t\t/*\n// \t\t\tif enough owners approve the transaction, it will be executed \n// \t\t*/\n\n// \t}\n\n// \tfunction revokeConfirmation() {\n// \t\t/*\n// \t\t\tallow an owner to cancel the confirmation  \n// \t\t*/\n\n// \t}\n// }",
  "sourcePath": "/Users/KellyIzKewl/1pools/contracts/Pools.sol",
  "compiler": {
    "name": "solc",
    "version": "0.8.10+commit.fc410830.Emscripten.clang"
  },
  "schemaVersion": "3.4.4",
  "updatedAt": "2021-12-28T08:31:55.585Z",
  "devdoc": {
    "kind": "dev",
    "methods": {},
    "version": 1
  },
  "userdoc": {
    "kind": "user",
    "methods": {},
    "version": 1
  }
}