{
  "contractName": "PoolFactory",
  "abi": [
    {
      "anonymous": false,
      "inputs": [
        {
          "indexed": false,
          "internalType": "address[]",
          "name": "_allPoolInstantiations",
          "type": "address[]"
        }
      ],
      "name": "allCreatedPools",
      "type": "event"
    },
    {
      "anonymous": false,
      "inputs": [
        {
          "indexed": false,
          "internalType": "address",
          "name": "_poolCreator",
          "type": "address"
        }
      ],
      "name": "createdBy",
      "type": "event"
    },
    {
      "anonymous": false,
      "inputs": [
        {
          "indexed": false,
          "internalType": "address",
          "name": "_creator",
          "type": "address"
        }
      ],
      "name": "instantiationCount",
      "type": "event"
    },
    {
      "anonymous": false,
      "inputs": [
        {
          "indexed": false,
          "internalType": "address",
          "name": "_creator",
          "type": "address"
        }
      ],
      "name": "instantiationsOfCreator",
      "type": "event"
    },
    {
      "anonymous": false,
      "inputs": [
        {
          "indexed": false,
          "internalType": "address",
          "name": "_poolAddress",
          "type": "address"
        },
        {
          "indexed": false,
          "internalType": "address[]",
          "name": "_owners",
          "type": "address[]"
        },
        {
          "indexed": false,
          "internalType": "uint8",
          "name": "_confirmations",
          "type": "uint8"
        }
      ],
      "name": "poolAddress",
      "type": "event"
    },
    {
      "inputs": [
        {
          "internalType": "uint256",
          "name": "",
          "type": "uint256"
        }
      ],
      "name": "allPoolInstantiations",
      "outputs": [
        {
          "internalType": "address",
          "name": "",
          "type": "address"
        }
      ],
      "stateMutability": "view",
      "type": "function"
    },
    {
      "inputs": [
        {
          "internalType": "address",
          "name": "",
          "type": "address"
        },
        {
          "internalType": "uint256",
          "name": "",
          "type": "uint256"
        }
      ],
      "name": "instantiations",
      "outputs": [
        {
          "internalType": "address",
          "name": "",
          "type": "address"
        }
      ],
      "stateMutability": "view",
      "type": "function"
    },
    {
      "inputs": [
        {
          "internalType": "address",
          "name": "",
          "type": "address"
        }
      ],
      "name": "isInstantiated",
      "outputs": [
        {
          "internalType": "bool",
          "name": "",
          "type": "bool"
        }
      ],
      "stateMutability": "view",
      "type": "function"
    },
    {
      "inputs": [],
      "name": "poolCreator",
      "outputs": [
        {
          "internalType": "address",
          "name": "",
          "type": "address"
        }
      ],
      "stateMutability": "view",
      "type": "function"
    },
    {
      "inputs": [
        {
          "internalType": "address",
          "name": "_creator",
          "type": "address"
        }
      ],
      "name": "getInstantiationCount",
      "outputs": [
        {
          "internalType": "uint256",
          "name": "",
          "type": "uint256"
        }
      ],
      "stateMutability": "nonpayable",
      "type": "function"
    },
    {
      "inputs": [
        {
          "internalType": "address",
          "name": "_creator",
          "type": "address"
        }
      ],
      "name": "getInstantiations",
      "outputs": [
        {
          "internalType": "address[]",
          "name": "",
          "type": "address[]"
        }
      ],
      "stateMutability": "nonpayable",
      "type": "function"
    },
    {
      "inputs": [],
      "name": "getAllPoolInstantiations",
      "outputs": [
        {
          "internalType": "address[]",
          "name": "",
          "type": "address[]"
        }
      ],
      "stateMutability": "nonpayable",
      "type": "function"
    },
    {
      "inputs": [],
      "name": "getCreator",
      "outputs": [
        {
          "internalType": "address",
          "name": "",
          "type": "address"
        }
      ],
      "stateMutability": "nonpayable",
      "type": "function"
    },
    {
      "inputs": [
        {
          "internalType": "address[]",
          "name": "_owners",
          "type": "address[]"
        },
        {
          "internalType": "uint8",
          "name": "_confirmationsRequired",
          "type": "uint8"
        },
        {
          "internalType": "string",
          "name": "_metadata",
          "type": "string"
        }
      ],
      "name": "createPool",
      "outputs": [
        {
          "internalType": "address",
          "name": "",
          "type": "address"
        }
      ],
      "stateMutability": "payable",
      "type": "function"
    }
  ],
  "bytecode": "0x608060405234801561001057600080fd5b50613281806100206000396000f3fe608060405260043610620000925760003560e01c80636fc1eced11620000615780636fc1eced1462000193578063812c286a14620001c35780638f83847814620001f95780639457517a146200023d578063c6c1decd14620002815762000092565b80630c6cc52a14620000975780630ee2cb1014620000db578063482af689146200010b57806357183c82146200014f575b600080fd5b348015620000a457600080fd5b50620000c36004803603810190620000bd91906200094f565b620002b1565b604051620000d2919062000a4f565b60405180910390f35b348015620000e857600080fd5b50620000f3620003b9565b60405162000102919062000a84565b60405180910390f35b3480156200011857600080fd5b506200013760048036038101906200013191906200094f565b6200043e565b60405162000146919062000abe565b60405180910390f35b3480156200015c57600080fd5b506200017b600480360381019062000175919062000b16565b6200045e565b6040516200018a919062000a84565b60405180910390f35b348015620001a057600080fd5b50620001ab620004ad565b604051620001ba919062000a4f565b60405180910390f35b620001e16004803603810190620001db919062000dd8565b62000577565b604051620001f0919062000a84565b60405180910390f35b3480156200020657600080fd5b506200022560048036038101906200021f91906200094f565b620007dd565b60405162000234919062000e83565b60405180910390f35b3480156200024a57600080fd5b5062000269600480360381019062000263919062000ea0565b62000862565b60405162000278919062000a84565b60405180910390f35b3480156200028e57600080fd5b5062000299620008a2565b604051620002a8919062000a84565b60405180910390f35b60607f1ed0f50852174cbd2e1dfbe8814327bb516997d3e9931a3ff3866cced133428082604051620002e4919062000a84565b60405180910390a1600160008373ffffffffffffffffffffffffffffffffffffffff1673ffffffffffffffffffffffffffffffffffffffff168152602001908152602001600020805480602002602001604051908101604052809291908181526020018280548015620003ad57602002820191906000526020600020905b8160009054906101000a900473ffffffffffffffffffffffffffffffffffffffff1673ffffffffffffffffffffffffffffffffffffffff168152602001906001019080831162000362575b50505050509050919050565b60007f1e3e8e8ab149929451d90c96b3fd62c402d756e0e938b754222484897869855a600360009054906101000a900473ffffffffffffffffffffffffffffffffffffffff166040516200040e919062000a84565b60405180910390a1600360009054906101000a900473ffffffffffffffffffffffffffffffffffffffff16905090565b60006020528060005260406000206000915054906101000a900460ff1681565b600160205281600052604060002081815481106200047b57600080fd5b906000526020600020016000915091509054906101000a900473ffffffffffffffffffffffffffffffffffffffff1681565b60607fc9227b8df5d9d4242323f9144fc88e7687cb36ce1f988cb5a406864b961bc9216002604051620004e1919062000fd2565b60405180910390a160028054806020026020016040519081016040528092919081815260200182805480156200056d57602002820191906000526020600020905b8160009054906101000a900473ffffffffffffffffffffffffffffffffffffffff1673ffffffffffffffffffffffffffffffffffffffff168152602001906001019080831162000522575b5050505050905090565b6000808484846040516200058b90620008c8565b62000599939291906200109a565b604051809103906000f080158015620005b6573d6000803e3d6000fd5b50905060016000808373ffffffffffffffffffffffffffffffffffffffff1673ffffffffffffffffffffffffffffffffffffffff16815260200190815260200160002060006101000a81548160ff0219169083151502179055506002819080600181540180825580915050600190039060005260206000200160009091909190916101000a81548173ffffffffffffffffffffffffffffffffffffffff021916908373ffffffffffffffffffffffffffffffffffffffff16021790555033600360006101000a81548173ffffffffffffffffffffffffffffffffffffffff021916908373ffffffffffffffffffffffffffffffffffffffff16021790555060005b8551811015620007945760016000878381518110620006db57620006da620010e5565b5b602002602001015173ffffffffffffffffffffffffffffffffffffffff1673ffffffffffffffffffffffffffffffffffffffff168152602001908152602001600020829080600181540180825580915050600190039060005260206000200160009091909190916101000a81548173ffffffffffffffffffffffffffffffffffffffff021916908373ffffffffffffffffffffffffffffffffffffffff16021790555080806200078b9062001143565b915050620006b7565b507fc95526cc5f14d0117f0490fca959ad7b8f4b0c53d4be77d349baa10d46b756bc818686604051620007ca9392919062001191565b60405180910390a1809150509392505050565b60007fdeb65e4fef0e83903053386261118dd52d3f9391eb352feb1814744453923e6c8260405162000810919062000a84565b60405180910390a1600160008373ffffffffffffffffffffffffffffffffffffffff1673ffffffffffffffffffffffffffffffffffffffff168152602001908152602001600020805490509050919050565b600281815481106200087357600080fd5b906000526020600020016000915054906101000a900473ffffffffffffffffffffffffffffffffffffffff1681565b600360009054906101000a900473ffffffffffffffffffffffffffffffffffffffff1681565b61207680620011d683390190565b6000604051905090565b600080fd5b600080fd5b600073ffffffffffffffffffffffffffffffffffffffff82169050919050565b60006200091782620008ea565b9050919050565b62000929816200090a565b81146200093557600080fd5b50565b60008135905062000949816200091e565b92915050565b600060208284031215620009685762000967620008e0565b5b6000620009788482850162000938565b91505092915050565b600081519050919050565b600082825260208201905092915050565b6000819050602082019050919050565b620009b8816200090a565b82525050565b6000620009cc8383620009ad565b60208301905092915050565b6000602082019050919050565b6000620009f28262000981565b620009fe81856200098c565b935062000a0b836200099d565b8060005b8381101562000a4257815162000a268882620009be565b975062000a3383620009d8565b92505060018101905062000a0f565b5085935050505092915050565b6000602082019050818103600083015262000a6b8184620009e5565b905092915050565b62000a7e816200090a565b82525050565b600060208201905062000a9b600083018462000a73565b92915050565b60008115159050919050565b62000ab88162000aa1565b82525050565b600060208201905062000ad5600083018462000aad565b92915050565b6000819050919050565b62000af08162000adb565b811462000afc57600080fd5b50565b60008135905062000b108162000ae5565b92915050565b6000806040838503121562000b305762000b2f620008e0565b5b600062000b408582860162000938565b925050602062000b538582860162000aff565b9150509250929050565b600080fd5b6000601f19601f8301169050919050565b7f4e487b7100000000000000000000000000000000000000000000000000000000600052604160045260246000fd5b62000bad8262000b62565b810181811067ffffffffffffffff8211171562000bcf5762000bce62000b73565b5b80604052505050565b600062000be4620008d6565b905062000bf2828262000ba2565b919050565b600067ffffffffffffffff82111562000c155762000c1462000b73565b5b602082029050602081019050919050565b600080fd5b600062000c4262000c3c8462000bf7565b62000bd8565b9050808382526020820190506020840283018581111562000c685762000c6762000c26565b5b835b8181101562000c95578062000c80888262000938565b84526020840193505060208101905062000c6a565b5050509392505050565b600082601f83011262000cb75762000cb662000b5d565b5b813562000cc984826020860162000c2b565b91505092915050565b600060ff82169050919050565b62000cea8162000cd2565b811462000cf657600080fd5b50565b60008135905062000d0a8162000cdf565b92915050565b600080fd5b600067ffffffffffffffff82111562000d335762000d3262000b73565b5b62000d3e8262000b62565b9050602081019050919050565b82818337600083830152505050565b600062000d7162000d6b8462000d15565b62000bd8565b90508281526020810184848401111562000d905762000d8f62000d10565b5b62000d9d84828562000d4b565b509392505050565b600082601f83011262000dbd5762000dbc62000b5d565b5b813562000dcf84826020860162000d5a565b91505092915050565b60008060006060848603121562000df45762000df3620008e0565b5b600084013567ffffffffffffffff81111562000e155762000e14620008e5565b5b62000e238682870162000c9f565b935050602062000e368682870162000cf9565b925050604084013567ffffffffffffffff81111562000e5a5762000e59620008e5565b5b62000e688682870162000da5565b9150509250925092565b62000e7d8162000adb565b82525050565b600060208201905062000e9a600083018462000e72565b92915050565b60006020828403121562000eb95762000eb8620008e0565b5b600062000ec98482850162000aff565b91505092915050565b600081549050919050565b60008190508160005260206000209050919050565b60008160001c9050919050565b600073ffffffffffffffffffffffffffffffffffffffff82169050919050565b600062000f3662000f308362000ef2565b62000eff565b9050919050565b600062000f4b825462000f1f565b9050919050565b6000600182019050919050565b600062000f6c8262000ed2565b62000f7881856200098c565b935062000f858362000edd565b8060005b8381101562000fc55762000f9d8262000f3d565b62000fa98882620009be565b975062000fb68362000f52565b92505060018101905062000f89565b5085935050505092915050565b6000602082019050818103600083015262000fee818462000f5f565b905092915050565b620010018162000cd2565b82525050565b600081519050919050565b600082825260208201905092915050565b60005b838110156200104357808201518184015260208101905062001026565b8381111562001053576000848401525b50505050565b6000620010668262001007565b62001072818562001012565b93506200108481856020860162001023565b6200108f8162000b62565b840191505092915050565b60006060820190508181036000830152620010b68186620009e5565b9050620010c7602083018562000ff6565b8181036040830152620010db818462001059565b9050949350505050565b7f4e487b7100000000000000000000000000000000000000000000000000000000600052603260045260246000fd5b7f4e487b7100000000000000000000000000000000000000000000000000000000600052601160045260246000fd5b6000620011508262000adb565b91507fffffffffffffffffffffffffffffffffffffffffffffffffffffffffffffffff82141562001186576200118562001114565b5b600182019050919050565b6000606082019050620011a8600083018662000a73565b8181036020830152620011bc8185620009e5565b9050620011cd604083018462000ff6565b94935050505056fe60806040523480156200001157600080fd5b5060405162002076380380620020768339818101604052810190620000379190620005a5565b825160008114156200004857600080fd5b8260ff1660008110156200005b57600080fd5b8460009080519060200190620000739291906200014b565b5083600260006101000a81548160ff021916908360ff1602179055508260039080519060200190620000a7929190620001da565b5060005b85518110156200013f576001806000888481518110620000d057620000cf6200063f565b5b602002602001015173ffffffffffffffffffffffffffffffffffffffff1673ffffffffffffffffffffffffffffffffffffffff16815260200190815260200160002060006101000a81548160ff02191690831515021790555080806200013690620006a7565b915050620000ab565b5050505050506200075a565b828054828255906000526020600020908101928215620001c7579160200282015b82811115620001c65782518260006101000a81548173ffffffffffffffffffffffffffffffffffffffff021916908373ffffffffffffffffffffffffffffffffffffffff160217905550916020019190600101906200016c565b5b509050620001d691906200026b565b5090565b828054620001e89062000724565b90600052602060002090601f0160209004810192826200020c576000855562000258565b82601f106200022757805160ff191683800117855562000258565b8280016001018555821562000258579182015b82811115620002575782518255916020019190600101906200023a565b5b5090506200026791906200026b565b5090565b5b80821115620002865760008160009055506001016200026c565b5090565b6000604051905090565b600080fd5b600080fd5b600080fd5b6000601f19601f8301169050919050565b7f4e487b7100000000000000000000000000000000000000000000000000000000600052604160045260246000fd5b620002ee82620002a3565b810181811067ffffffffffffffff8211171562000310576200030f620002b4565b5b80604052505050565b6000620003256200028a565b9050620003338282620002e3565b919050565b600067ffffffffffffffff821115620003565762000355620002b4565b5b602082029050602081019050919050565b600080fd5b600073ffffffffffffffffffffffffffffffffffffffff82169050919050565b600062000399826200036c565b9050919050565b620003ab816200038c565b8114620003b757600080fd5b50565b600081519050620003cb81620003a0565b92915050565b6000620003e8620003e28462000338565b62000319565b905080838252602082019050602084028301858111156200040e576200040d62000367565b5b835b818110156200043b5780620004268882620003ba565b84526020840193505060208101905062000410565b5050509392505050565b600082601f8301126200045d576200045c6200029e565b5b81516200046f848260208601620003d1565b91505092915050565b600060ff82169050919050565b620004908162000478565b81146200049c57600080fd5b50565b600081519050620004b08162000485565b92915050565b600080fd5b600067ffffffffffffffff821115620004d957620004d8620002b4565b5b620004e482620002a3565b9050602081019050919050565b60005b8381101562000511578082015181840152602081019050620004f4565b8381111562000521576000848401525b50505050565b60006200053e6200053884620004bb565b62000319565b9050828152602081018484840111156200055d576200055c620004b6565b5b6200056a848285620004f1565b509392505050565b600082601f8301126200058a57620005896200029e565b5b81516200059c84826020860162000527565b91505092915050565b600080600060608486031215620005c157620005c062000294565b5b600084015167ffffffffffffffff811115620005e257620005e162000299565b5b620005f08682870162000445565b935050602062000603868287016200049f565b925050604084015167ffffffffffffffff81111562000627576200062662000299565b5b620006358682870162000572565b9150509250925092565b7f4e487b7100000000000000000000000000000000000000000000000000000000600052603260045260246000fd5b7f4e487b7100000000000000000000000000000000000000000000000000000000600052601160045260246000fd5b6000819050919050565b6000620006b4826200069d565b91507fffffffffffffffffffffffffffffffffffffffffffffffffffffffffffffffff821415620006ea57620006e96200066e565b5b600182019050919050565b7f4e487b7100000000000000000000000000000000000000000000000000000000600052602260045260246000fd5b600060028204905060018216806200073d57607f821691505b60208210811415620007545762000753620006f5565b5b50919050565b61190c806200076a6000396000f3fe608060405234801561001057600080fd5b50600436106100b45760003560e01c8063798974dd11610071578063798974dd1461018b5780637a5b4f59146101a9578063a0e67e2b146101c7578063ab2995b9146101e5578063c786292a14610203578063c7f758a814610221576100b4565b8063084bc145146100b95780630d61b519146100d557806350931cb9146100f157806350eb9321146101215780635d1941ac1461013d5780636a34ced51461016d575b600080fd5b6100d360048036038101906100ce9190610ea9565b610253565b005b6100ef60048036038101906100ea9190610ee9565b61041c565b005b61010b60048036038101906101069190610f74565b61065d565b604051610118919061102b565b60405180910390f35b61013b600480360381019061013691906111ca565b610752565b005b61015760048036038101906101529190610ea9565b6108f4565b6040516101649190611248565b60405180910390f35b6101756109bf565b6040516101829190611248565b60405180910390f35b610193610a08565b6040516101a09190611248565b60405180910390f35b6101b1610a4b565b6040516101be91906112eb565b60405180910390f35b6101cf610b15565b6040516101dc91906113cb565b60405180910390f35b6101ed610bdb565b6040516101fa9190611248565b60405180910390f35b61020b610c3b565b60405161021891906113fc565b60405180910390f35b61023b60048036038101906102369190610ee9565b610cbe565b60405161024a93929190611432565b60405180910390f35b33600160008273ffffffffffffffffffffffffffffffffffffffff1673ffffffffffffffffffffffffffffffffffffffff16815260200190815260200160002060009054906101000a900460ff166102aa57600080fd5b60006005600085815260200190815260200160002090508060050160008260040160003373ffffffffffffffffffffffffffffffffffffffff1673ffffffffffffffffffffffffffffffffffffffff16815260200190815260200160002060009054906101000a900460ff16600381111561032857610327610fb4565b5b600381111561033a57610339610fb4565b5b8152602001908152602001600020600081548092919061035990611498565b9190505550828160040160003373ffffffffffffffffffffffffffffffffffffffff1673ffffffffffffffffffffffffffffffffffffffff16815260200190815260200160002060006101000a81548160ff021916908360038111156103c2576103c1610fb4565b5b02179055508060050160008460038111156103e0576103df610fb4565b5b60038111156103f2576103f1610fb4565b5b81526020019081526020016000206000815480929190610411906114c2565b919050555050505050565b806006600082815260200190815260200160002060009054906101000a900460ff1661044757600080fd5b33600160008273ffffffffffffffffffffffffffffffffffffffff1673ffffffffffffffffffffffffffffffffffffffff16815260200190815260200160002060009054906101000a900460ff1661049e57600080fd5b6000600560008581526020019081526020016000209050600260009054906101000a900460ff1660ff16816005016000600160038111156104e2576104e1610fb4565b5b60038111156104f4576104f3610fb4565b5b815260200190815260200160002054106106575760018160020160006101000a81548160ff0219169083151502179055508060000160009054906101000a900473ffffffffffffffffffffffffffffffffffffffff1673ffffffffffffffffffffffffffffffffffffffff166108fc82600101549081150290604051600060405180830381858888f19350505050158015610593573d6000803e3d6000fd5b5060008160000160009054906101000a900473ffffffffffffffffffffffffffffffffffffffff1673ffffffffffffffffffffffffffffffffffffffff168260010154836003016040516105e7919061160b565b60006040518083038185875af1925050503d8060008114610624576040519150601f19603f3d011682016040523d82523d6000602084013e610629565b606091505b50509050806106545760008260020160006101000a81548160ff021916908315150217905550610655565b5b505b50505050565b6000806005600085815260200190815260200160002090507fa74405d8978463e26d855fb88cf38272541410d3b76750cb3e877358b31eae228160040160008573ffffffffffffffffffffffffffffffffffffffff1673ffffffffffffffffffffffffffffffffffffffff16815260200190815260200160002060009054906101000a900460ff166040516106f2919061102b565b60405180910390a18060040160008473ffffffffffffffffffffffffffffffffffffffff1673ffffffffffffffffffffffffffffffffffffffff16815260200190815260200160002060009054906101000a900460ff1691505092915050565b33600160008273ffffffffffffffffffffffffffffffffffffffff1673ffffffffffffffffffffffffffffffffffffffff16815260200190815260200160002060009054906101000a900460ff166107a957600080fd5b600060056000600460008154809291906107c2906114c2565b9190505581526020019081526020016000209050600160066000600454815260200190815260200160002060006101000a81548160ff021916908315150217905550848160000160006101000a81548173ffffffffffffffffffffffffffffffffffffffff021916908373ffffffffffffffffffffffffffffffffffffffff16021790555083816001018190555082816003019080519060200190610868929190610d97565b5060008054905081600501600080600381111561088857610887610fb4565b5b600381111561089a57610899610fb4565b5b81526020019081526020016000208190555033600760006101000a81548173ffffffffffffffffffffffffffffffffffffffff021916908373ffffffffffffffffffffffffffffffffffffffff1602179055505050505050565b6000806005600085815260200190815260200160002090507f3c0cfb9d54b3c4232a4dd7ad8058591bcd04ef3fac7d27bdd68764836b99b97181600501600085600381111561094657610945610fb4565b5b600381111561095857610957610fb4565b5b8152602001908152602001600020546040516109749190611248565b60405180910390a180600501600084600381111561099557610994610fb4565b5b60038111156109a7576109a6610fb4565b5b81526020019081526020016000205491505092915050565b60007f2fb2f52ae56eb882225a880abcdb82364b6d558dec08616d4806f466f0fe59226000805490506040516109f59190611248565b60405180910390a1600080549050905090565b60007fb7e4eacf63016bc970389606fb1598fe39493237dcf88126de973086ca0dc864600454604051610a3b9190611248565b60405180910390a1600454905090565b60607fbb14e658531b6a7527e686f0f67328036165d76ac2234ffba9698d7a651eb1c76003604051610a7d91906116b7565b60405180910390a160038054610a929061153a565b80601f0160208091040260200160405190810160405280929190818152602001828054610abe9061153a565b8015610b0b5780601f10610ae057610100808354040283529160200191610b0b565b820191906000526020600020905b815481529060010190602001808311610aee57829003601f168201915b5050505050905090565b60607ff92562eabfa0b6973b6ff815bc399b9cf536c69fc160cd21b02587559d972b026000604051610b4791906117c5565b60405180910390a16000805480602002602001604051908101604052809291908181526020018280548015610bd157602002820191906000526020600020905b8160009054906101000a900473ffffffffffffffffffffffffffffffffffffffff1673ffffffffffffffffffffffffffffffffffffffff1681526020019060010190808311610b87575b5050505050905090565b60007fdf2a30634de697b4d175c27ac50344714f478c80e642463403267fb8f7df9afb600260009054906101000a900460ff16604051610c1b919061182f565b60405180910390a1600260009054906101000a900460ff1660ff16905090565b60007f5a95febda9550e90ab420ee7d418753c6f22278adc925da2763027cc1f5e056d600760009054906101000a900473ffffffffffffffffffffffffffffffffffffffff16604051610c8e91906113fc565b60405180910390a1600760009054906101000a900473ffffffffffffffffffffffffffffffffffffffff16905090565b6000806000806005600086815260200190815260200160002090507f04f09f5329ce1640e228ee97d32be2a88d91bdfcaf56e3b11a328cd1c75ae62a8160000160009054906101000a900473ffffffffffffffffffffffffffffffffffffffff1682600101548360020160009054906101000a900460ff16604051610d459392919061189f565b60405180910390a18060000160009054906101000a900473ffffffffffffffffffffffffffffffffffffffff1681600101548260020160009054906101000a900460ff16935093509350509193909250565b828054610da39061153a565b90600052602060002090601f016020900481019282610dc55760008555610e0c565b82601f10610dde57805160ff1916838001178555610e0c565b82800160010185558215610e0c579182015b82811115610e0b578251825591602001919060010190610df0565b5b509050610e199190610e1d565b5090565b5b80821115610e36576000816000905550600101610e1e565b5090565b6000604051905090565b600080fd5b600080fd5b6000819050919050565b610e6181610e4e565b8114610e6c57600080fd5b50565b600081359050610e7e81610e58565b92915050565b60048110610e9157600080fd5b50565b600081359050610ea381610e84565b92915050565b60008060408385031215610ec057610ebf610e44565b5b6000610ece85828601610e6f565b9250506020610edf85828601610e94565b9150509250929050565b600060208284031215610eff57610efe610e44565b5b6000610f0d84828501610e6f565b91505092915050565b600073ffffffffffffffffffffffffffffffffffffffff82169050919050565b6000610f4182610f16565b9050919050565b610f5181610f36565b8114610f5c57600080fd5b50565b600081359050610f6e81610f48565b92915050565b60008060408385031215610f8b57610f8a610e44565b5b6000610f9985828601610e6f565b9250506020610faa85828601610f5f565b9150509250929050565b7f4e487b7100000000000000000000000000000000000000000000000000000000600052602160045260246000fd5b60048110610ff457610ff3610fb4565b5b50565b600081905061100582610fe3565b919050565b600061101582610ff7565b9050919050565b6110258161100a565b82525050565b6000602082019050611040600083018461101c565b92915050565b600061105182610f16565b9050919050565b61106181611046565b811461106c57600080fd5b50565b60008135905061107e81611058565b92915050565b600080fd5b600080fd5b6000601f19601f8301169050919050565b7f4e487b7100000000000000000000000000000000000000000000000000000000600052604160045260246000fd5b6110d78261108e565b810181811067ffffffffffffffff821117156110f6576110f561109f565b5b80604052505050565b6000611109610e3a565b905061111582826110ce565b919050565b600067ffffffffffffffff8211156111355761113461109f565b5b61113e8261108e565b9050602081019050919050565b82818337600083830152505050565b600061116d6111688461111a565b6110ff565b90508281526020810184848401111561118957611188611089565b5b61119484828561114b565b509392505050565b600082601f8301126111b1576111b0611084565b5b81356111c184826020860161115a565b91505092915050565b6000806000606084860312156111e3576111e2610e44565b5b60006111f18682870161106f565b935050602061120286828701610e6f565b925050604084013567ffffffffffffffff81111561122357611222610e49565b5b61122f8682870161119c565b9150509250925092565b61124281610e4e565b82525050565b600060208201905061125d6000830184611239565b92915050565b600081519050919050565b600082825260208201905092915050565b60005b8381101561129d578082015181840152602081019050611282565b838111156112ac576000848401525b50505050565b60006112bd82611263565b6112c7818561126e565b93506112d781856020860161127f565b6112e08161108e565b840191505092915050565b6000602082019050818103600083015261130581846112b2565b905092915050565b600081519050919050565b600082825260208201905092915050565b6000819050602082019050919050565b61134281610f36565b82525050565b60006113548383611339565b60208301905092915050565b6000602082019050919050565b60006113788261130d565b6113828185611318565b935061138d83611329565b8060005b838110156113be5781516113a58882611348565b97506113b083611360565b925050600181019050611391565b5085935050505092915050565b600060208201905081810360008301526113e5818461136d565b905092915050565b6113f681610f36565b82525050565b600060208201905061141160008301846113ed565b92915050565b60008115159050919050565b61142c81611417565b82525050565b600060608201905061144760008301866113ed565b6114546020830185611239565b6114616040830184611423565b949350505050565b7f4e487b7100000000000000000000000000000000000000000000000000000000600052601160045260246000fd5b60006114a382610e4e565b915060008214156114b7576114b6611469565b5b600182039050919050565b60006114cd82610e4e565b91507fffffffffffffffffffffffffffffffffffffffffffffffffffffffffffffffff821415611500576114ff611469565b5b600182019050919050565b7f4e487b7100000000000000000000000000000000000000000000000000000000600052602260045260246000fd5b6000600282049050600182168061155257607f821691505b602082108114156115665761156561150b565b5b50919050565b600081905092915050565b60008190508160005260206000209050919050565b600081546115998161153a565b6115a3818661156c565b945060018216600081146115be57600181146115cf57611602565b60ff19831686528186019350611602565b6115d885611577565b60005b838110156115fa578154818901526001820191506020810190506115db565b838801955050505b50505092915050565b6000611617828461158c565b915081905092915050565b60008190508160005260206000209050919050565b600081546116448161153a565b61164e818661126e565b94506001821660008114611669576001811461167b576116ae565b60ff19831686526020860193506116ae565b61168485611622565b60005b838110156116a657815481890152600182019150602081019050611687565b808801955050505b50505092915050565b600060208201905081810360008301526116d18184611637565b905092915050565b600081549050919050565b60008190508160005260206000209050919050565b60008160001c9050919050565b600073ffffffffffffffffffffffffffffffffffffffff82169050919050565b6000611739611734836116f9565b611706565b9050919050565b600061174c8254611726565b9050919050565b6000600182019050919050565b600061176b826116d9565b6117758185611318565b9350611780836116e4565b8060005b838110156117b85761179582611740565b61179f8882611348565b97506117aa83611753565b925050600181019050611784565b5085935050505092915050565b600060208201905081810360008301526117df8184611760565b905092915050565b600060ff82169050919050565b6000819050919050565b600061181961181461180f846117e7565b6117f4565b610e4e565b9050919050565b611829816117fe565b82525050565b60006020820190506118446000830184611820565b92915050565b600061186561186061185b84610f16565b6117f4565b610f16565b9050919050565b60006118778261184a565b9050919050565b60006118898261186c565b9050919050565b6118998161187e565b82525050565b60006060820190506118b46000830186611890565b6118c16020830185611239565b6118ce6040830184611423565b94935050505056fea2646970667358221220f44ae0a1c782b19a5c8455e0b2b355ec469b8c676b22a46eb2beba40de41408d64736f6c634300080a0033a26469706673582212207d7cbec1258a6c1a12904a91f0561009d28f272fd9702eed1475b5d462e83a2864736f6c634300080a0033",
  "immutableReferences": {},
  "source": "// SPDX-License-Identifier: MIT\npragma solidity ^0.8.7;\nimport \"./Pools.sol\";\n\ncontract PoolFactory {\n\n\tmapping(address => bool) public isInstantiated;\n\tmapping(address => address[]) public instantiations;\n\taddress[] public allPoolInstantiations;\n\taddress public poolCreator; \n\n\tevent instantiationCount(address _creator);\n\tevent instantiationsOfCreator(address _creator);\n\tevent allCreatedPools(address[] _allPoolInstantiations);\n\tevent poolAddress(address _poolAddress, address[] _owners, uint8 _confirmations);\n\tevent createdBy(address _poolCreator);\n\n\n\tfunction getInstantiationCount(address _creator) public returns(uint) {\n\t\temit instantiationCount(_creator);\n\t\treturn instantiations[_creator].length;\n\t}\n\n    function getInstantiations(address _creator) public returns(address[] memory) {\n\t\temit instantiationsOfCreator(_creator);\n\t\treturn instantiations[_creator];\n\t}\n\n\tfunction getAllPoolInstantiations() public returns(address[] memory) {\n\t\temit allCreatedPools(allPoolInstantiations);\n\t\treturn allPoolInstantiations;\n\t}\n\n\tfunction getCreator() public returns(address) {\n\t\temit createdBy(poolCreator);\n\t\treturn poolCreator;\n\t}\n \n\tfunction createPool(address[] memory _owners, uint8 _confirmationsRequired, string memory _metadata) public payable returns (address) {\n\t\taddress poolContractAddress = address(new Pools(_owners, _confirmationsRequired, _metadata));\n\t\tisInstantiated[poolContractAddress] = true;\n\t\tallPoolInstantiations.push(poolContractAddress);\n\t\tpoolCreator = msg.sender;\n\t\tfor(uint i = 0; i < _owners.length; i++) {\n\t\t\tinstantiations[_owners[i]].push(poolContractAddress);\n\t\t}\n\t\temit poolAddress(poolContractAddress, _owners, _confirmationsRequired);\n        return poolContractAddress;\n\t}\n\n}",
  "sourcePath": "/Users/KellyIzKewl/1pools/contracts/PoolFactory.sol",
  "compiler": {
    "name": "solc",
    "version": "0.8.10+commit.fc410830.Emscripten.clang"
  },
  "schemaVersion": "3.4.4",
  "updatedAt": "2022-01-10T05:35:08.685Z",
  "devdoc": {
    "kind": "dev",
    "methods": {},
    "version": 1
  },
  "userdoc": {
    "kind": "user",
    "methods": {},
    "version": 1
  }
}