{
  "contractName": "Pools",
  "abi": [
    {
      "inputs": [
        {
          "internalType": "address[]",
          "name": "_owners",
          "type": "address[]"
        },
        {
          "internalType": "uint8",
          "name": "_confirmationsRequired",
          "type": "uint8"
        },
        {
          "internalType": "string",
          "name": "_metadata",
          "type": "string"
        },
        {
          "internalType": "uint256",
          "name": "_ttl",
          "type": "uint256"
        }
      ],
      "stateMutability": "nonpayable",
      "type": "constructor"
    },
    {
      "inputs": [
        {
          "internalType": "address payable",
          "name": "_destination",
          "type": "address"
        },
        {
          "internalType": "uint256",
          "name": "_amount",
          "type": "uint256"
        },
        {
          "internalType": "bytes",
          "name": "_data",
          "type": "bytes"
        }
      ],
      "name": "createProposal",
      "outputs": [],
      "stateMutability": "nonpayable",
      "type": "function"
    },
    {
      "inputs": [
        {
          "internalType": "uint256",
          "name": "_proposalId",
          "type": "uint256"
        },
        {
          "internalType": "enum Pools.ProposalConfirmationTypes",
          "name": "_confirmation",
          "type": "uint8"
        }
      ],
      "name": "setConfirmation",
      "outputs": [],
      "stateMutability": "payable",
      "type": "function"
    },
    {
      "inputs": [
        {
          "internalType": "uint256",
          "name": "_proposalId",
          "type": "uint256"
        }
      ],
      "name": "executeProposal",
      "outputs": [],
      "stateMutability": "payable",
      "type": "function"
    },
    {
      "inputs": [],
      "name": "getNumOwners",
      "outputs": [
        {
          "internalType": "uint256",
          "name": "",
          "type": "uint256"
        }
      ],
      "stateMutability": "view",
      "type": "function"
    },
    {
      "inputs": [],
      "name": "getOwners",
      "outputs": [
        {
          "internalType": "address[]",
          "name": "",
          "type": "address[]"
        }
      ],
      "stateMutability": "view",
      "type": "function"
    },
    {
      "inputs": [],
      "name": "getNumProposals",
      "outputs": [
        {
          "internalType": "uint256",
          "name": "",
          "type": "uint256"
        }
      ],
      "stateMutability": "view",
      "type": "function"
    },
    {
      "inputs": [
        {
          "internalType": "uint256",
          "name": "_proposalId",
          "type": "uint256"
        },
        {
          "internalType": "address",
          "name": "_owner",
          "type": "address"
        }
      ],
      "name": "getOwnerConfirmation",
      "outputs": [
        {
          "internalType": "enum Pools.ProposalConfirmationTypes",
          "name": "",
          "type": "uint8"
        }
      ],
      "stateMutability": "view",
      "type": "function"
    },
    {
      "inputs": [
        {
          "internalType": "uint256",
          "name": "_proposalId",
          "type": "uint256"
        },
        {
          "internalType": "enum Pools.ProposalConfirmationTypes",
          "name": "_proposalConfirmationTypes",
          "type": "uint8"
        }
      ],
      "name": "getProposalNumConfirmations",
      "outputs": [
        {
          "internalType": "uint256",
          "name": "",
          "type": "uint256"
        }
      ],
      "stateMutability": "view",
      "type": "function"
    },
    {
      "inputs": [
        {
          "internalType": "uint256",
          "name": "_proposalId",
          "type": "uint256"
        }
      ],
      "name": "getProposal",
      "outputs": [
        {
          "internalType": "address",
          "name": "",
          "type": "address"
        },
        {
          "internalType": "uint256",
          "name": "",
          "type": "uint256"
        },
        {
          "internalType": "bool",
          "name": "",
          "type": "bool"
        },
        {
          "internalType": "bytes",
          "name": "",
          "type": "bytes"
        },
        {
          "internalType": "uint256",
          "name": "",
          "type": "uint256"
        },
        {
          "internalType": "address",
          "name": "",
          "type": "address"
        }
      ],
      "stateMutability": "view",
      "type": "function"
    },
    {
      "inputs": [],
      "name": "getConfirmationsRequired",
      "outputs": [
        {
          "internalType": "uint256",
          "name": "",
          "type": "uint256"
        }
      ],
      "stateMutability": "view",
      "type": "function"
    },
    {
      "inputs": [],
      "name": "getMetadata",
      "outputs": [
        {
          "internalType": "string",
          "name": "",
          "type": "string"
        }
      ],
      "stateMutability": "view",
      "type": "function"
    },
    {
      "inputs": [],
      "name": "getPoolCreatedTime",
      "outputs": [
        {
          "internalType": "uint256",
          "name": "",
          "type": "uint256"
        }
      ],
      "stateMutability": "view",
      "type": "function"
    },
    {
      "inputs": [],
      "name": "getPoolTTL",
      "outputs": [
        {
          "internalType": "uint256",
          "name": "",
          "type": "uint256"
        }
      ],
      "stateMutability": "view",
      "type": "function"
    }
  ],
  "bytecode": "0x60806040523480156200001157600080fd5b5060405162001e0938038062001e098339818101604052810190620000379190620005ff565b835160008114156200004857600080fd5b8360ff1660008110156200005b57600080fd5b82600081116200006a57600080fd5b8660009080519060200190620000829291906200016a565b5085600260006101000a81548160ff021916908360ff1602179055508460039080519060200190620000b6929190620001f9565b50836004819055504260058190555060005b87518110156200015c5760018060008a8481518110620000ed57620000ec620006af565b5b602002602001015173ffffffffffffffffffffffffffffffffffffffff1673ffffffffffffffffffffffffffffffffffffffff16815260200190815260200160002060006101000a81548160ff021916908315150217905550808062000153906200070d565b915050620000c8565b5050505050505050620007c0565b828054828255906000526020600020908101928215620001e6579160200282015b82811115620001e55782518260006101000a81548173ffffffffffffffffffffffffffffffffffffffff021916908373ffffffffffffffffffffffffffffffffffffffff160217905550916020019190600101906200018b565b5b509050620001f591906200028a565b5090565b82805462000207906200078a565b90600052602060002090601f0160209004810192826200022b576000855562000277565b82601f106200024657805160ff191683800117855562000277565b8280016001018555821562000277579182015b828111156200027657825182559160200191906001019062000259565b5b5090506200028691906200028a565b5090565b5b80821115620002a55760008160009055506001016200028b565b5090565b6000604051905090565b600080fd5b600080fd5b600080fd5b6000601f19601f8301169050919050565b7f4e487b7100000000000000000000000000000000000000000000000000000000600052604160045260246000fd5b6200030d82620002c2565b810181811067ffffffffffffffff821117156200032f576200032e620002d3565b5b80604052505050565b600062000344620002a9565b905062000352828262000302565b919050565b600067ffffffffffffffff821115620003755762000374620002d3565b5b602082029050602081019050919050565b600080fd5b600073ffffffffffffffffffffffffffffffffffffffff82169050919050565b6000620003b8826200038b565b9050919050565b620003ca81620003ab565b8114620003d657600080fd5b50565b600081519050620003ea81620003bf565b92915050565b600062000407620004018462000357565b62000338565b905080838252602082019050602084028301858111156200042d576200042c62000386565b5b835b818110156200045a5780620004458882620003d9565b8452602084019350506020810190506200042f565b5050509392505050565b600082601f8301126200047c576200047b620002bd565b5b81516200048e848260208601620003f0565b91505092915050565b600060ff82169050919050565b620004af8162000497565b8114620004bb57600080fd5b50565b600081519050620004cf81620004a4565b92915050565b600080fd5b600067ffffffffffffffff821115620004f857620004f7620002d3565b5b6200050382620002c2565b9050602081019050919050565b60005b838110156200053057808201518184015260208101905062000513565b8381111562000540576000848401525b50505050565b60006200055d6200055784620004da565b62000338565b9050828152602081018484840111156200057c576200057b620004d5565b5b6200058984828562000510565b509392505050565b600082601f830112620005a957620005a8620002bd565b5b8151620005bb84826020860162000546565b91505092915050565b6000819050919050565b620005d981620005c4565b8114620005e557600080fd5b50565b600081519050620005f981620005ce565b92915050565b600080600080608085870312156200061c576200061b620002b3565b5b600085015167ffffffffffffffff8111156200063d576200063c620002b8565b5b6200064b8782880162000464565b94505060206200065e87828801620004be565b935050604085015167ffffffffffffffff811115620006825762000681620002b8565b5b620006908782880162000591565b9250506060620006a387828801620005e8565b91505092959194509250565b7f4e487b7100000000000000000000000000000000000000000000000000000000600052603260045260246000fd5b7f4e487b7100000000000000000000000000000000000000000000000000000000600052601160045260246000fd5b60006200071a82620005c4565b91507fffffffffffffffffffffffffffffffffffffffffffffffffffffffffffffffff82141562000750576200074f620006de565b5b600182019050919050565b7f4e487b7100000000000000000000000000000000000000000000000000000000600052602260045260246000fd5b60006002820490506001821680620007a357607f821691505b60208210811415620007ba57620007b96200075b565b5b50919050565b61163980620007d06000396000f3fe6080604052600436106100c25760003560e01c80636a34ced51161007f5780637a5b4f59116100595780637a5b4f591461024e578063a0e67e2b14610279578063ab2995b9146102a4578063c7f758a8146102cf576100c2565b80636a34ced5146101cd5780636f56dd89146101f8578063798974dd14610223576100c2565b8063084bc145146100c75780630d61b519146100e357806313f27851146100ff57806350931cb91461012a57806350eb9321146101675780635d1941ac14610190575b600080fd5b6100e160048036038101906100dc9190610d6f565b610311565b005b6100fd60048036038101906100f89190610daf565b6104da565b005b34801561010b57600080fd5b50610114610754565b6040516101219190610deb565b60405180910390f35b34801561013657600080fd5b50610151600480360381019061014c9190610e64565b61075e565b60405161015e9190610f1b565b60405180910390f35b34801561017357600080fd5b5061018e600480360381019061018991906110ba565b6107ce565b005b34801561019c57600080fd5b506101b760048036038101906101b29190610d6f565b61097b565b6040516101c49190610deb565b60405180910390f35b3480156101d957600080fd5b506101e26109d6565b6040516101ef9190610deb565b60405180910390f35b34801561020457600080fd5b5061020d6109e2565b60405161021a9190610deb565b60405180910390f35b34801561022f57600080fd5b506102386109ec565b6040516102459190610deb565b60405180910390f35b34801561025a57600080fd5b506102636109f6565b60405161027091906111b1565b60405180910390f35b34801561028557600080fd5b5061028e610a88565b60405161029b9190611291565b60405180910390f35b3480156102b057600080fd5b506102b9610b16565b6040516102c69190610deb565b60405180910390f35b3480156102db57600080fd5b506102f660048036038101906102f19190610daf565b610b30565b60405161030896959493929190611332565b60405180910390f35b33600160008273ffffffffffffffffffffffffffffffffffffffff1673ffffffffffffffffffffffffffffffffffffffff16815260200190815260200160002060009054906101000a900460ff1661036857600080fd5b60006007600085815260200190815260200160002090508060070160008260060160003373ffffffffffffffffffffffffffffffffffffffff1673ffffffffffffffffffffffffffffffffffffffff16815260200190815260200160002060009054906101000a900460ff1660038111156103e6576103e5610ea4565b5b60038111156103f8576103f7610ea4565b5b81526020019081526020016000206000815480929190610417906113c9565b9190505550828160060160003373ffffffffffffffffffffffffffffffffffffffff1673ffffffffffffffffffffffffffffffffffffffff16815260200190815260200160002060006101000a81548160ff021916908360038111156104805761047f610ea4565b5b021790555080600701600084600381111561049e5761049d610ea4565b5b60038111156104b0576104af610ea4565b5b815260200190815260200160002060008154809291906104cf906113f3565b919050555050505050565b806008600082815260200190815260200160002060009054906101000a900460ff1661050557600080fd5b33600160008273ffffffffffffffffffffffffffffffffffffffff1673ffffffffffffffffffffffffffffffffffffffff16815260200190815260200160002060009054906101000a900460ff1661055c57600080fd5b600554603c806018600454610571919061143c565b61057b919061143c565b610585919061143c565b61058f9190611496565b421161059a57600080fd5b6000600760008581526020019081526020016000209050600260009054906101000a900460ff1660ff16816007016000600160038111156105de576105dd610ea4565b5b60038111156105f0576105ef610ea4565b5b8152602001908152602001600020541061074e5760018160040160006101000a81548160ff0219169083151502179055508060010160009054906101000a900473ffffffffffffffffffffffffffffffffffffffff1673ffffffffffffffffffffffffffffffffffffffff166108fc82600301549081150290604051600060405180830381858888f1935050505015801561068f573d6000803e3d6000fd5b5060008160010160009054906101000a900473ffffffffffffffffffffffffffffffffffffffff1673ffffffffffffffffffffffffffffffffffffffff168260030154836005016040516106e391906115ec565b60006040518083038185875af1925050503d8060008114610720576040519150601f19603f3d011682016040523d82523d6000602084013e610725565b606091505b505090508061074c5760008260040160006101000a81548160ff0219169083151502179055505b505b50505050565b6000600554905090565b6000806007600085815260200190815260200160002090508060060160008473ffffffffffffffffffffffffffffffffffffffff1673ffffffffffffffffffffffffffffffffffffffff16815260200190815260200160002060009054906101000a900460ff1691505092915050565b33600160008273ffffffffffffffffffffffffffffffffffffffff1673ffffffffffffffffffffffffffffffffffffffff16815260200190815260200160002060009054906101000a900460ff1661082557600080fd5b6000600760006006600081548092919061083e906113f3565b9190505581526020019081526020016000209050600160086000600654815260200190815260200160002060006101000a81548160ff021916908315150217905550848160010160006101000a81548173ffffffffffffffffffffffffffffffffffffffff021916908373ffffffffffffffffffffffffffffffffffffffff160217905550838160030181905550828160050190805190602001906108e4929190610c5d565b5060008054905081600701600080600381111561090457610903610ea4565b5b600381111561091657610915610ea4565b5b815260200190815260200160002081905550338160020160006101000a81548173ffffffffffffffffffffffffffffffffffffffff021916908373ffffffffffffffffffffffffffffffffffffffff1602179055504281600001819055505050505050565b6000806007600085815260200190815260200160002090508060070160008460038111156109ac576109ab610ea4565b5b60038111156109be576109bd610ea4565b5b81526020019081526020016000205491505092915050565b60008080549050905090565b6000600454905090565b6000600654905090565b606060038054610a059061151b565b80601f0160208091040260200160405190810160405280929190818152602001828054610a319061151b565b8015610a7e5780601f10610a5357610100808354040283529160200191610a7e565b820191906000526020600020905b815481529060010190602001808311610a6157829003601f168201915b5050505050905090565b60606000805480602002602001604051908101604052809291908181526020018280548015610b0c57602002820191906000526020600020905b8160009054906101000a900473ffffffffffffffffffffffffffffffffffffffff1673ffffffffffffffffffffffffffffffffffffffff1681526020019060010190808311610ac2575b5050505050905090565b6000600260009054906101000a900460ff1660ff16905090565b6000806000606060008060006007600089815260200190815260200160002090508060010160009054906101000a900473ffffffffffffffffffffffffffffffffffffffff1681600301548260040160009054906101000a900460ff168360050184600001548560020160009054906101000a900473ffffffffffffffffffffffffffffffffffffffff16828054610bc79061151b565b80601f0160208091040260200160405190810160405280929190818152602001828054610bf39061151b565b8015610c405780601f10610c1557610100808354040283529160200191610c40565b820191906000526020600020905b815481529060010190602001808311610c2357829003601f168201915b505050505092509650965096509650965096505091939550919395565b828054610c699061151b565b90600052602060002090601f016020900481019282610c8b5760008555610cd2565b82601f10610ca457805160ff1916838001178555610cd2565b82800160010185558215610cd2579182015b82811115610cd1578251825591602001919060010190610cb6565b5b509050610cdf9190610ce3565b5090565b5b80821115610cfc576000816000905550600101610ce4565b5090565b6000604051905090565b600080fd5b600080fd5b6000819050919050565b610d2781610d14565b8114610d3257600080fd5b50565b600081359050610d4481610d1e565b92915050565b60048110610d5757600080fd5b50565b600081359050610d6981610d4a565b92915050565b60008060408385031215610d8657610d85610d0a565b5b6000610d9485828601610d35565b9250506020610da585828601610d5a565b9150509250929050565b600060208284031215610dc557610dc4610d0a565b5b6000610dd384828501610d35565b91505092915050565b610de581610d14565b82525050565b6000602082019050610e006000830184610ddc565b92915050565b600073ffffffffffffffffffffffffffffffffffffffff82169050919050565b6000610e3182610e06565b9050919050565b610e4181610e26565b8114610e4c57600080fd5b50565b600081359050610e5e81610e38565b92915050565b60008060408385031215610e7b57610e7a610d0a565b5b6000610e8985828601610d35565b9250506020610e9a85828601610e4f565b9150509250929050565b7f4e487b7100000000000000000000000000000000000000000000000000000000600052602160045260246000fd5b60048110610ee457610ee3610ea4565b5b50565b6000819050610ef582610ed3565b919050565b6000610f0582610ee7565b9050919050565b610f1581610efa565b82525050565b6000602082019050610f306000830184610f0c565b92915050565b6000610f4182610e06565b9050919050565b610f5181610f36565b8114610f5c57600080fd5b50565b600081359050610f6e81610f48565b92915050565b600080fd5b600080fd5b6000601f19601f8301169050919050565b7f4e487b7100000000000000000000000000000000000000000000000000000000600052604160045260246000fd5b610fc782610f7e565b810181811067ffffffffffffffff82111715610fe657610fe5610f8f565b5b80604052505050565b6000610ff9610d00565b90506110058282610fbe565b919050565b600067ffffffffffffffff82111561102557611024610f8f565b5b61102e82610f7e565b9050602081019050919050565b82818337600083830152505050565b600061105d6110588461100a565b610fef565b90508281526020810184848401111561107957611078610f79565b5b61108484828561103b565b509392505050565b600082601f8301126110a1576110a0610f74565b5b81356110b184826020860161104a565b91505092915050565b6000806000606084860312156110d3576110d2610d0a565b5b60006110e186828701610f5f565b93505060206110f286828701610d35565b925050604084013567ffffffffffffffff81111561111357611112610d0f565b5b61111f8682870161108c565b9150509250925092565b600081519050919050565b600082825260208201905092915050565b60005b83811015611163578082015181840152602081019050611148565b83811115611172576000848401525b50505050565b600061118382611129565b61118d8185611134565b935061119d818560208601611145565b6111a681610f7e565b840191505092915050565b600060208201905081810360008301526111cb8184611178565b905092915050565b600081519050919050565b600082825260208201905092915050565b6000819050602082019050919050565b61120881610e26565b82525050565b600061121a83836111ff565b60208301905092915050565b6000602082019050919050565b600061123e826111d3565b61124881856111de565b9350611253836111ef565b8060005b8381101561128457815161126b888261120e565b975061127683611226565b925050600181019050611257565b5085935050505092915050565b600060208201905081810360008301526112ab8184611233565b905092915050565b6112bc81610e26565b82525050565b60008115159050919050565b6112d7816112c2565b82525050565b600081519050919050565b600082825260208201905092915050565b6000611304826112dd565b61130e81856112e8565b935061131e818560208601611145565b61132781610f7e565b840191505092915050565b600060c08201905061134760008301896112b3565b6113546020830188610ddc565b61136160408301876112ce565b818103606083015261137381866112f9565b90506113826080830185610ddc565b61138f60a08301846112b3565b979650505050505050565b7f4e487b7100000000000000000000000000000000000000000000000000000000600052601160045260246000fd5b60006113d482610d14565b915060008214156113e8576113e761139a565b5b600182039050919050565b60006113fe82610d14565b91507fffffffffffffffffffffffffffffffffffffffffffffffffffffffffffffffff8214156114315761143061139a565b5b600182019050919050565b600061144782610d14565b915061145283610d14565b9250817fffffffffffffffffffffffffffffffffffffffffffffffffffffffffffffffff048311821515161561148b5761148a61139a565b5b828202905092915050565b60006114a182610d14565b91506114ac83610d14565b9250827fffffffffffffffffffffffffffffffffffffffffffffffffffffffffffffffff038211156114e1576114e061139a565b5b828201905092915050565b7f4e487b7100000000000000000000000000000000000000000000000000000000600052602260045260246000fd5b6000600282049050600182168061153357607f821691505b60208210811415611547576115466114ec565b5b50919050565b600081905092915050565b60008190508160005260206000209050919050565b6000815461157a8161151b565b611584818661154d565b9450600182166000811461159f57600181146115b0576115e3565b60ff198316865281860193506115e3565b6115b985611558565b60005b838110156115db578154818901526001820191506020810190506115bc565b838801955050505b50505092915050565b60006115f8828461156d565b91508190509291505056fea26469706673582212208d323bc32b6e6a862f002f0e4ca2d649bc7ba7baf01e7203da2d37cb2c261bc264736f6c634300080a0033",
  "immutableReferences": {},
  "source": "// SPDX-License-Identifier: MIT\npragma solidity ^0.8.7;\n\ncontract Pools {\n\t\n\t\n\tenum ProposalConfirmationTypes { UNDECIDED, YES, NO, ABSTAIN }\n\t\n\tstruct Proposal {\n\t\tuint256 creationTime;\n\t\taddress payable destination;\n\t\taddress creator;\n\t\tuint amount;\n\t\tbool executed;\n\t\tbytes data;\n\t\tmapping(address => ProposalConfirmationTypes) confirmations;\n\t\tmapping(ProposalConfirmationTypes => uint) numConfirmations;\n\t}\n\t\n\taddress[] private owners;\n\tmapping(address => bool) private isOwner;\n\n\tuint8 private confirmationsRequired;\n\tstring private metadata;\n\n\tuint256 private poolTTL; //current pool's time to live measured by days\n\tuint256 private poolCreationTime;\n\n\tuint private numProposals;\n\tmapping(uint => Proposal) private proposals;\n\tmapping(uint => bool) private isProposal;\n\n\tmodifier validNumOfOwners(uint _ownerCount) {\n\t\trequire(_ownerCount != 0);\n\t\t_;\n\t}\n\n\tmodifier validConfirmationsRequired(uint _confirmationsRequired) {\n\t\trequire(_confirmationsRequired >= 0);\n\t\t_;\n\t}\n\n\tmodifier validTTL(uint256 _ttl) {\n\t\trequire(_ttl > 0);\n\t\t_;\n\t}\n\n\tmodifier validPoolTimeWindow() {\n\t\trequire(block.timestamp > (poolTTL * 24 * 60 * 60 + poolCreationTime));\n\t\t_;\n\t}\n\n\tmodifier proposalExists(uint _proposalId) {\n\t\trequire(isProposal[_proposalId]);\n\t\t_;\n\t}\n\n\tmodifier ownerExists(address _owner) {\n\t\trequire(isOwner[_owner]);\n\t\t_;\n\t} \n\n\tconstructor(address[] memory _owners, uint8 _confirmationsRequired, string memory _metadata, uint256 _ttl) \n\n\t\tvalidNumOfOwners(_owners.length)\n\t\tvalidConfirmationsRequired(_confirmationsRequired)\n\t\tvalidTTL(_ttl)\n\t{\n\t\towners = _owners;\n\t\tconfirmationsRequired = _confirmationsRequired;\n\t\tmetadata = _metadata;\n\t\tpoolTTL = _ttl;\n\t\tpoolCreationTime = block.timestamp;\n\n\t\tfor(uint i = 0; i < _owners.length; i++) {\n\t\t\tisOwner[_owners[i]] = true;\n\t\t}\n\t}\n\t\n\tfunction createProposal(address payable _destination, uint _amount, bytes memory _data) \n\t\tpublic\n\t\townerExists(msg.sender)\n\t{\n\t\tProposal storage proposal = proposals[numProposals++];\n\t\tisProposal[numProposals] = true;\n\t\tproposal.destination = _destination;\n\t\tproposal.amount = _amount;\n\t\tproposal.data = _data;\n\t\tproposal.numConfirmations[ProposalConfirmationTypes.UNDECIDED] = owners.length;\n\t\tproposal.creator = msg.sender;\n\t\tproposal.creationTime = block.timestamp;\n\t}\n\t\n\tfunction setConfirmation(uint _proposalId, ProposalConfirmationTypes _confirmation) \n\t\tpublic payable\n\t\townerExists(msg.sender)\n\t{\n\t\tProposal storage proposal = proposals[_proposalId];\n\t\tproposal.numConfirmations[proposal.confirmations[msg.sender]]--;\n\t\tproposal.confirmations[msg.sender] = _confirmation;\n\t\tproposal.numConfirmations[_confirmation]++;\n\t}\n\t\n\tfunction executeProposal(uint _proposalId) \n\t\tpublic payable\n\t\tproposalExists(_proposalId)\n\t\townerExists(msg.sender)\n\t\tvalidPoolTimeWindow()\n\t{\n\t\tProposal storage proposal = proposals[_proposalId];\n\t\tif (proposal.numConfirmations[ProposalConfirmationTypes.YES] >= confirmationsRequired) {\n\t\t\tproposal.executed = true;\n\t\t\tproposal.destination.transfer(proposal.amount);\n\t\t\t(bool success, ) = proposal.destination.call{value: proposal.amount}(proposal.data);\n\t\t\tif (!success) {\n\t\t\t\tproposal.executed = false;\n\t\t\t}\n\t\t}\n\t}\n\t// getters \n\tfunction getNumOwners() public view returns (uint) {\n\t\treturn owners.length;\n\t}\n\t\n\tfunction getOwners() public view returns (address[] memory) {\n\t\treturn owners;\n\t}\n\t\n\tfunction getNumProposals() public view returns (uint) {\n\t\treturn numProposals;\n\t}\n\t\n\tfunction getOwnerConfirmation(uint _proposalId, address _owner) public view returns (ProposalConfirmationTypes) {\n\t\tProposal storage proposal = proposals[_proposalId];\n\t\treturn proposal.confirmations[_owner];\n\t}\n\t\n\tfunction getProposalNumConfirmations(uint _proposalId, ProposalConfirmationTypes _proposalConfirmationTypes) public view returns (uint) {\n\t\tProposal storage proposal = proposals[_proposalId];\n\t\treturn proposal.numConfirmations[_proposalConfirmationTypes];\n\t}\n\t\t\n\tfunction getProposal(uint _proposalId) public view returns (address, uint, bool, bytes memory, uint256, address) {\n\t\tProposal storage proposal = proposals[_proposalId];\n\t\treturn (proposal.destination, proposal.amount, proposal.executed, proposal.data, proposal.creationTime, proposal.creator);\n\t}\n\t\t\n\tfunction getConfirmationsRequired() public view returns (uint) {\n\t\treturn confirmationsRequired;\n\t}\n\t\n\tfunction getMetadata() public view returns (string memory) {\n\t\treturn metadata;\n\t}\n\n\tfunction getPoolCreatedTime() public view returns(uint256) {\n\t\treturn poolCreationTime;\n\t}\n\n\tfunction getPoolTTL() public view returns(uint256) {\n\t\treturn poolTTL;\n\t}\n}\n",
  "sourcePath": "/Users/KellyIzKewl/1pools/contracts/Pools.sol",
  "compiler": {
    "name": "solc",
    "version": "0.8.10+commit.fc410830.Emscripten.clang"
  },
  "schemaVersion": "3.4.4",
  "updatedAt": "2022-01-13T05:33:33.856Z",
  "devdoc": {
    "kind": "dev",
    "methods": {},
    "version": 1
  },
  "userdoc": {
    "kind": "user",
    "methods": {},
    "version": 1
  }
}