{
  "contractName": "PoolFactory",
  "abi": [
    {
      "anonymous": false,
      "inputs": [
        {
          "indexed": false,
          "internalType": "address[]",
          "name": "_allPoolInstantiations",
          "type": "address[]"
        }
      ],
      "name": "allCreatedPools",
      "type": "event"
    },
    {
      "anonymous": false,
      "inputs": [
        {
          "indexed": false,
          "internalType": "address",
          "name": "_poolCreator",
          "type": "address"
        }
      ],
      "name": "createdBy",
      "type": "event"
    },
    {
      "anonymous": false,
      "inputs": [
        {
          "indexed": false,
          "internalType": "address",
          "name": "_creator",
          "type": "address"
        }
      ],
      "name": "instantiationCount",
      "type": "event"
    },
    {
      "anonymous": false,
      "inputs": [
        {
          "indexed": false,
          "internalType": "address",
          "name": "_creator",
          "type": "address"
        }
      ],
      "name": "instantiationsOfCreator",
      "type": "event"
    },
    {
      "anonymous": false,
      "inputs": [
        {
          "indexed": false,
          "internalType": "address",
          "name": "_poolAddress",
          "type": "address"
        },
        {
          "indexed": false,
          "internalType": "address[]",
          "name": "_owners",
          "type": "address[]"
        },
        {
          "indexed": false,
          "internalType": "uint8",
          "name": "_confirmations",
          "type": "uint8"
        }
      ],
      "name": "poolAddress",
      "type": "event"
    },
    {
      "inputs": [
        {
          "internalType": "uint256",
          "name": "",
          "type": "uint256"
        }
      ],
      "name": "allPoolInstantiations",
      "outputs": [
        {
          "internalType": "address",
          "name": "",
          "type": "address"
        }
      ],
      "stateMutability": "view",
      "type": "function"
    },
    {
      "inputs": [
        {
          "internalType": "address",
          "name": "",
          "type": "address"
        },
        {
          "internalType": "uint256",
          "name": "",
          "type": "uint256"
        }
      ],
      "name": "instantiations",
      "outputs": [
        {
          "internalType": "address",
          "name": "",
          "type": "address"
        }
      ],
      "stateMutability": "view",
      "type": "function"
    },
    {
      "inputs": [
        {
          "internalType": "address",
          "name": "",
          "type": "address"
        }
      ],
      "name": "isInstantiated",
      "outputs": [
        {
          "internalType": "bool",
          "name": "",
          "type": "bool"
        }
      ],
      "stateMutability": "view",
      "type": "function"
    },
    {
      "inputs": [
        {
          "internalType": "address",
          "name": "_creator",
          "type": "address"
        }
      ],
      "name": "getInstantiationCount",
      "outputs": [
        {
          "internalType": "uint256",
          "name": "",
          "type": "uint256"
        }
      ],
      "stateMutability": "nonpayable",
      "type": "function"
    },
    {
      "inputs": [
        {
          "internalType": "address",
          "name": "_creator",
          "type": "address"
        }
      ],
      "name": "getInstantiations",
      "outputs": [
        {
          "internalType": "address[]",
          "name": "",
          "type": "address[]"
        }
      ],
      "stateMutability": "nonpayable",
      "type": "function"
    },
    {
      "inputs": [],
      "name": "getAllPoolInstantiations",
      "outputs": [
        {
          "internalType": "address[]",
          "name": "",
          "type": "address[]"
        }
      ],
      "stateMutability": "nonpayable",
      "type": "function"
    },
    {
      "inputs": [
        {
          "internalType": "address",
          "name": "_poolAddress",
          "type": "address"
        }
      ],
      "name": "getCreator",
      "outputs": [
        {
          "internalType": "address",
          "name": "",
          "type": "address"
        }
      ],
      "stateMutability": "nonpayable",
      "type": "function"
    },
    {
      "inputs": [
        {
          "internalType": "address[]",
          "name": "_owners",
          "type": "address[]"
        },
        {
          "internalType": "uint8",
          "name": "_confirmationsRequired",
          "type": "uint8"
        },
        {
          "internalType": "string",
          "name": "_metadata",
          "type": "string"
        }
      ],
      "name": "createPool",
      "outputs": [
        {
          "internalType": "address",
          "name": "",
          "type": "address"
        }
      ],
      "stateMutability": "payable",
      "type": "function"
    }
  ],
  "bytecode": "0x608060405234801561001057600080fd5b50613318806100206000396000f3fe608060405260043610620000865760003560e01c8063812c286a1162000055578063812c286a14620001875780638f83847814620001bd5780639457517a1462000201578063a021030914620002455762000086565b80630c6cc52a146200008b578063482af68914620000cf57806357183c8214620001135780636fc1eced1462000157575b600080fd5b3480156200009857600080fd5b50620000b76004803603810190620000b19190620009ba565b62000289565b604051620000c6919062000aba565b60405180910390f35b348015620000dc57600080fd5b50620000fb6004803603810190620000f59190620009ba565b62000391565b6040516200010a919062000afb565b60405180910390f35b3480156200012057600080fd5b506200013f600480360381019062000139919062000b53565b620003b1565b6040516200014e919062000bab565b60405180910390f35b3480156200016457600080fd5b506200016f62000400565b6040516200017e919062000aba565b60405180910390f35b620001a560048036038101906200019f919062000e43565b620004ca565b604051620001b4919062000bab565b60405180910390f35b348015620001ca57600080fd5b50620001e96004803603810190620001e39190620009ba565b6200076d565b604051620001f8919062000eee565b60405180910390f35b3480156200020e57600080fd5b506200022d600480360381019062000227919062000f0b565b620007f2565b6040516200023c919062000bab565b60405180910390f35b3480156200025257600080fd5b506200027160048036038101906200026b9190620009ba565b62000832565b60405162000280919062000bab565b60405180910390f35b60607f1ed0f50852174cbd2e1dfbe8814327bb516997d3e9931a3ff3866cced133428082604051620002bc919062000bab565b60405180910390a1600160008373ffffffffffffffffffffffffffffffffffffffff1673ffffffffffffffffffffffffffffffffffffffff1681526020019081526020016000208054806020026020016040519081016040528092919081815260200182805480156200038557602002820191906000526020600020905b8160009054906101000a900473ffffffffffffffffffffffffffffffffffffffff1673ffffffffffffffffffffffffffffffffffffffff16815260200190600101908083116200033a575b50505050509050919050565b60006020528060005260406000206000915054906101000a900460ff1681565b60016020528160005260406000208181548110620003ce57600080fd5b906000526020600020016000915091509054906101000a900473ffffffffffffffffffffffffffffffffffffffff1681565b60607fc9227b8df5d9d4242323f9144fc88e7687cb36ce1f988cb5a406864b961bc92160026040516200043491906200103d565b60405180910390a16002805480602002602001604051908101604052809291908181526020018280548015620004c057602002820191906000526020600020905b8160009054906101000a900473ffffffffffffffffffffffffffffffffffffffff1673ffffffffffffffffffffffffffffffffffffffff168152602001906001019080831162000475575b5050505050905090565b600080848484604051620004de9062000933565b620004ec9392919062001105565b604051809103906000f08015801562000509573d6000803e3d6000fd5b50905060016000808373ffffffffffffffffffffffffffffffffffffffff1673ffffffffffffffffffffffffffffffffffffffff16815260200190815260200160002060006101000a81548160ff0219169083151502179055506002819080600181540180825580915050600190039060005260206000200160009091909190916101000a81548173ffffffffffffffffffffffffffffffffffffffff021916908373ffffffffffffffffffffffffffffffffffffffff16021790555033600360008373ffffffffffffffffffffffffffffffffffffffff1673ffffffffffffffffffffffffffffffffffffffff16815260200190815260200160002060006101000a81548173ffffffffffffffffffffffffffffffffffffffff021916908373ffffffffffffffffffffffffffffffffffffffff16021790555060005b85518110156200072457600160008783815181106200066b576200066a62001150565b5b602002602001015173ffffffffffffffffffffffffffffffffffffffff1673ffffffffffffffffffffffffffffffffffffffff168152602001908152602001600020829080600181540180825580915050600190039060005260206000200160009091909190916101000a81548173ffffffffffffffffffffffffffffffffffffffff021916908373ffffffffffffffffffffffffffffffffffffffff16021790555080806200071b90620011ae565b91505062000647565b507fc95526cc5f14d0117f0490fca959ad7b8f4b0c53d4be77d349baa10d46b756bc8186866040516200075a93929190620011fc565b60405180910390a1809150509392505050565b60007fdeb65e4fef0e83903053386261118dd52d3f9391eb352feb1814744453923e6c82604051620007a0919062000bab565b60405180910390a1600160008373ffffffffffffffffffffffffffffffffffffffff1673ffffffffffffffffffffffffffffffffffffffff168152602001908152602001600020805490509050919050565b600281815481106200080357600080fd5b906000526020600020016000915054906101000a900473ffffffffffffffffffffffffffffffffffffffff1681565b60007f1e3e8e8ab149929451d90c96b3fd62c402d756e0e938b754222484897869855a600360008473ffffffffffffffffffffffffffffffffffffffff1673ffffffffffffffffffffffffffffffffffffffff16815260200190815260200160002060009054906101000a900473ffffffffffffffffffffffffffffffffffffffff16604051620008c4919062000bab565b60405180910390a1600360008373ffffffffffffffffffffffffffffffffffffffff1673ffffffffffffffffffffffffffffffffffffffff16815260200190815260200160002060009054906101000a900473ffffffffffffffffffffffffffffffffffffffff169050919050565b6120a2806200124183390190565b6000604051905090565b600080fd5b600080fd5b600073ffffffffffffffffffffffffffffffffffffffff82169050919050565b6000620009828262000955565b9050919050565b620009948162000975565b8114620009a057600080fd5b50565b600081359050620009b48162000989565b92915050565b600060208284031215620009d357620009d26200094b565b5b6000620009e384828501620009a3565b91505092915050565b600081519050919050565b600082825260208201905092915050565b6000819050602082019050919050565b62000a238162000975565b82525050565b600062000a37838362000a18565b60208301905092915050565b6000602082019050919050565b600062000a5d82620009ec565b62000a698185620009f7565b935062000a768362000a08565b8060005b8381101562000aad57815162000a91888262000a29565b975062000a9e8362000a43565b92505060018101905062000a7a565b5085935050505092915050565b6000602082019050818103600083015262000ad6818462000a50565b905092915050565b60008115159050919050565b62000af58162000ade565b82525050565b600060208201905062000b12600083018462000aea565b92915050565b6000819050919050565b62000b2d8162000b18565b811462000b3957600080fd5b50565b60008135905062000b4d8162000b22565b92915050565b6000806040838503121562000b6d5762000b6c6200094b565b5b600062000b7d85828601620009a3565b925050602062000b908582860162000b3c565b9150509250929050565b62000ba58162000975565b82525050565b600060208201905062000bc2600083018462000b9a565b92915050565b600080fd5b6000601f19601f8301169050919050565b7f4e487b7100000000000000000000000000000000000000000000000000000000600052604160045260246000fd5b62000c188262000bcd565b810181811067ffffffffffffffff8211171562000c3a5762000c3962000bde565b5b80604052505050565b600062000c4f62000941565b905062000c5d828262000c0d565b919050565b600067ffffffffffffffff82111562000c805762000c7f62000bde565b5b602082029050602081019050919050565b600080fd5b600062000cad62000ca78462000c62565b62000c43565b9050808382526020820190506020840283018581111562000cd35762000cd262000c91565b5b835b8181101562000d00578062000ceb8882620009a3565b84526020840193505060208101905062000cd5565b5050509392505050565b600082601f83011262000d225762000d2162000bc8565b5b813562000d3484826020860162000c96565b91505092915050565b600060ff82169050919050565b62000d558162000d3d565b811462000d6157600080fd5b50565b60008135905062000d758162000d4a565b92915050565b600080fd5b600067ffffffffffffffff82111562000d9e5762000d9d62000bde565b5b62000da98262000bcd565b9050602081019050919050565b82818337600083830152505050565b600062000ddc62000dd68462000d80565b62000c43565b90508281526020810184848401111562000dfb5762000dfa62000d7b565b5b62000e0884828562000db6565b509392505050565b600082601f83011262000e285762000e2762000bc8565b5b813562000e3a84826020860162000dc5565b91505092915050565b60008060006060848603121562000e5f5762000e5e6200094b565b5b600084013567ffffffffffffffff81111562000e805762000e7f62000950565b5b62000e8e8682870162000d0a565b935050602062000ea18682870162000d64565b925050604084013567ffffffffffffffff81111562000ec55762000ec462000950565b5b62000ed38682870162000e10565b9150509250925092565b62000ee88162000b18565b82525050565b600060208201905062000f05600083018462000edd565b92915050565b60006020828403121562000f245762000f236200094b565b5b600062000f348482850162000b3c565b91505092915050565b600081549050919050565b60008190508160005260206000209050919050565b60008160001c9050919050565b600073ffffffffffffffffffffffffffffffffffffffff82169050919050565b600062000fa162000f9b8362000f5d565b62000f6a565b9050919050565b600062000fb6825462000f8a565b9050919050565b6000600182019050919050565b600062000fd78262000f3d565b62000fe38185620009f7565b935062000ff08362000f48565b8060005b838110156200103057620010088262000fa8565b62001014888262000a29565b9750620010218362000fbd565b92505060018101905062000ff4565b5085935050505092915050565b6000602082019050818103600083015262001059818462000fca565b905092915050565b6200106c8162000d3d565b82525050565b600081519050919050565b600082825260208201905092915050565b60005b83811015620010ae57808201518184015260208101905062001091565b83811115620010be576000848401525b50505050565b6000620010d18262001072565b620010dd81856200107d565b9350620010ef8185602086016200108e565b620010fa8162000bcd565b840191505092915050565b6000606082019050818103600083015262001121818662000a50565b905062001132602083018562001061565b8181036040830152620011468184620010c4565b9050949350505050565b7f4e487b7100000000000000000000000000000000000000000000000000000000600052603260045260246000fd5b7f4e487b7100000000000000000000000000000000000000000000000000000000600052601160045260246000fd5b6000620011bb8262000b18565b91507fffffffffffffffffffffffffffffffffffffffffffffffffffffffffffffffff821415620011f157620011f06200117f565b5b600182019050919050565b600060608201905062001213600083018662000b9a565b818103602083015262001227818562000a50565b905062001238604083018462001061565b94935050505056fe60806040523480156200001157600080fd5b50604051620020a2380380620020a28339818101604052810190620000379190620005a5565b825160008114156200004857600080fd5b8260ff1660008110156200005b57600080fd5b8460009080519060200190620000739291906200014b565b5083600260006101000a81548160ff021916908360ff1602179055508260039080519060200190620000a7929190620001da565b5060005b85518110156200013f576001806000888481518110620000d057620000cf6200063f565b5b602002602001015173ffffffffffffffffffffffffffffffffffffffff1673ffffffffffffffffffffffffffffffffffffffff16815260200190815260200160002060006101000a81548160ff02191690831515021790555080806200013690620006a7565b915050620000ab565b5050505050506200075a565b828054828255906000526020600020908101928215620001c7579160200282015b82811115620001c65782518260006101000a81548173ffffffffffffffffffffffffffffffffffffffff021916908373ffffffffffffffffffffffffffffffffffffffff160217905550916020019190600101906200016c565b5b509050620001d691906200026b565b5090565b828054620001e89062000724565b90600052602060002090601f0160209004810192826200020c576000855562000258565b82601f106200022757805160ff191683800117855562000258565b8280016001018555821562000258579182015b82811115620002575782518255916020019190600101906200023a565b5b5090506200026791906200026b565b5090565b5b80821115620002865760008160009055506001016200026c565b5090565b6000604051905090565b600080fd5b600080fd5b600080fd5b6000601f19601f8301169050919050565b7f4e487b7100000000000000000000000000000000000000000000000000000000600052604160045260246000fd5b620002ee82620002a3565b810181811067ffffffffffffffff8211171562000310576200030f620002b4565b5b80604052505050565b6000620003256200028a565b9050620003338282620002e3565b919050565b600067ffffffffffffffff821115620003565762000355620002b4565b5b602082029050602081019050919050565b600080fd5b600073ffffffffffffffffffffffffffffffffffffffff82169050919050565b600062000399826200036c565b9050919050565b620003ab816200038c565b8114620003b757600080fd5b50565b600081519050620003cb81620003a0565b92915050565b6000620003e8620003e28462000338565b62000319565b905080838252602082019050602084028301858111156200040e576200040d62000367565b5b835b818110156200043b5780620004268882620003ba565b84526020840193505060208101905062000410565b5050509392505050565b600082601f8301126200045d576200045c6200029e565b5b81516200046f848260208601620003d1565b91505092915050565b600060ff82169050919050565b620004908162000478565b81146200049c57600080fd5b50565b600081519050620004b08162000485565b92915050565b600080fd5b600067ffffffffffffffff821115620004d957620004d8620002b4565b5b620004e482620002a3565b9050602081019050919050565b60005b8381101562000511578082015181840152602081019050620004f4565b8381111562000521576000848401525b50505050565b60006200053e6200053884620004bb565b62000319565b9050828152602081018484840111156200055d576200055c620004b6565b5b6200056a848285620004f1565b509392505050565b600082601f8301126200058a57620005896200029e565b5b81516200059c84826020860162000527565b91505092915050565b600080600060608486031215620005c157620005c062000294565b5b600084015167ffffffffffffffff811115620005e257620005e162000299565b5b620005f08682870162000445565b935050602062000603868287016200049f565b925050604084015167ffffffffffffffff81111562000627576200062662000299565b5b620006358682870162000572565b9150509250925092565b7f4e487b7100000000000000000000000000000000000000000000000000000000600052603260045260246000fd5b7f4e487b7100000000000000000000000000000000000000000000000000000000600052601160045260246000fd5b6000819050919050565b6000620006b4826200069d565b91507fffffffffffffffffffffffffffffffffffffffffffffffffffffffffffffffff821415620006ea57620006e96200066e565b5b600182019050919050565b7f4e487b7100000000000000000000000000000000000000000000000000000000600052602260045260246000fd5b600060028204905060018216806200073d57607f821691505b60208210811415620007545762000753620006f5565b5b50919050565b611938806200076a6000396000f3fe608060405234801561001057600080fd5b50600436106100b45760003560e01c8063798974dd11610071578063798974dd1461018b5780637a5b4f59146101a9578063a0e67e2b146101c7578063ab2995b9146101e5578063c7f758a814610203578063ff05d7fd14610235576100b4565b8063084bc145146100b95780630d61b519146100d557806350931cb9146100f157806350eb9321146101215780635d1941ac1461013d5780636a34ced51461016d575b600080fd5b6100d360048036038101906100ce9190610ed5565b610265565b005b6100ef60048036038101906100ea9190610f15565b61042e565b005b61010b60048036038101906101069190610fa0565b61066a565b6040516101189190611057565b60405180910390f35b61013b600480360381019061013691906111f6565b61075f565b005b61015760048036038101906101529190610ed5565b610903565b6040516101649190611274565b60405180910390f35b6101756109ce565b6040516101829190611274565b60405180910390f35b610193610a17565b6040516101a09190611274565b60405180910390f35b6101b1610a5a565b6040516101be9190611317565b60405180910390f35b6101cf610b24565b6040516101dc91906113f7565b60405180910390f35b6101ed610bea565b6040516101fa9190611274565b60405180910390f35b61021d60048036038101906102189190610f15565b610c4a565b60405161022c93929190611443565b60405180910390f35b61024f600480360381019061024a9190610f15565b610d23565b60405161025c919061147a565b60405180910390f35b33600160008273ffffffffffffffffffffffffffffffffffffffff1673ffffffffffffffffffffffffffffffffffffffff16815260200190815260200160002060009054906101000a900460ff166102bc57600080fd5b60006005600085815260200190815260200160002090508060060160008260050160003373ffffffffffffffffffffffffffffffffffffffff1673ffffffffffffffffffffffffffffffffffffffff16815260200190815260200160002060009054906101000a900460ff16600381111561033a57610339610fe0565b5b600381111561034c5761034b610fe0565b5b8152602001908152602001600020600081548092919061036b906114c4565b9190505550828160050160003373ffffffffffffffffffffffffffffffffffffffff1673ffffffffffffffffffffffffffffffffffffffff16815260200190815260200160002060006101000a81548160ff021916908360038111156103d4576103d3610fe0565b5b02179055508060060160008460038111156103f2576103f1610fe0565b5b600381111561040457610403610fe0565b5b81526020019081526020016000206000815480929190610423906114ee565b919050555050505050565b806006600082815260200190815260200160002060009054906101000a900460ff1661045957600080fd5b33600160008273ffffffffffffffffffffffffffffffffffffffff1673ffffffffffffffffffffffffffffffffffffffff16815260200190815260200160002060009054906101000a900460ff166104b057600080fd5b6000600560008581526020019081526020016000209050600260009054906101000a900460ff1660ff16816006016000600160038111156104f4576104f3610fe0565b5b600381111561050657610505610fe0565b5b815260200190815260200160002054106106645760018160030160006101000a81548160ff0219169083151502179055508060000160009054906101000a900473ffffffffffffffffffffffffffffffffffffffff1673ffffffffffffffffffffffffffffffffffffffff166108fc82600201549081150290604051600060405180830381858888f193505050501580156105a5573d6000803e3d6000fd5b5060008160000160009054906101000a900473ffffffffffffffffffffffffffffffffffffffff1673ffffffffffffffffffffffffffffffffffffffff168260020154836004016040516105f99190611637565b60006040518083038185875af1925050503d8060008114610636576040519150601f19603f3d011682016040523d82523d6000602084013e61063b565b606091505b50509050806106625760008260030160006101000a81548160ff0219169083151502179055505b505b50505050565b6000806005600085815260200190815260200160002090507fa74405d8978463e26d855fb88cf38272541410d3b76750cb3e877358b31eae228160050160008573ffffffffffffffffffffffffffffffffffffffff1673ffffffffffffffffffffffffffffffffffffffff16815260200190815260200160002060009054906101000a900460ff166040516106ff9190611057565b60405180910390a18060050160008473ffffffffffffffffffffffffffffffffffffffff1673ffffffffffffffffffffffffffffffffffffffff16815260200190815260200160002060009054906101000a900460ff1691505092915050565b33600160008273ffffffffffffffffffffffffffffffffffffffff1673ffffffffffffffffffffffffffffffffffffffff16815260200190815260200160002060009054906101000a900460ff166107b657600080fd5b600060056000600460008154809291906107cf906114ee565b9190505581526020019081526020016000209050600160066000600454815260200190815260200160002060006101000a81548160ff021916908315150217905550848160000160006101000a81548173ffffffffffffffffffffffffffffffffffffffff021916908373ffffffffffffffffffffffffffffffffffffffff16021790555083816002018190555082816004019080519060200190610875929190610dc3565b5060008054905081600601600080600381111561089557610894610fe0565b5b60038111156108a7576108a6610fe0565b5b815260200190815260200160002081905550338160010160006101000a81548173ffffffffffffffffffffffffffffffffffffffff021916908373ffffffffffffffffffffffffffffffffffffffff1602179055505050505050565b6000806005600085815260200190815260200160002090507f3c0cfb9d54b3c4232a4dd7ad8058591bcd04ef3fac7d27bdd68764836b99b97181600601600085600381111561095557610954610fe0565b5b600381111561096757610966610fe0565b5b8152602001908152602001600020546040516109839190611274565b60405180910390a18060060160008460038111156109a4576109a3610fe0565b5b60038111156109b6576109b5610fe0565b5b81526020019081526020016000205491505092915050565b60007f2fb2f52ae56eb882225a880abcdb82364b6d558dec08616d4806f466f0fe5922600080549050604051610a049190611274565b60405180910390a1600080549050905090565b60007fb7e4eacf63016bc970389606fb1598fe39493237dcf88126de973086ca0dc864600454604051610a4a9190611274565b60405180910390a1600454905090565b60607fbb14e658531b6a7527e686f0f67328036165d76ac2234ffba9698d7a651eb1c76003604051610a8c91906116e3565b60405180910390a160038054610aa190611566565b80601f0160208091040260200160405190810160405280929190818152602001828054610acd90611566565b8015610b1a5780601f10610aef57610100808354040283529160200191610b1a565b820191906000526020600020905b815481529060010190602001808311610afd57829003601f168201915b5050505050905090565b60607ff92562eabfa0b6973b6ff815bc399b9cf536c69fc160cd21b02587559d972b026000604051610b5691906117f1565b60405180910390a16000805480602002602001604051908101604052809291908181526020018280548015610be057602002820191906000526020600020905b8160009054906101000a900473ffffffffffffffffffffffffffffffffffffffff1673ffffffffffffffffffffffffffffffffffffffff1681526020019060010190808311610b96575b5050505050905090565b60007fdf2a30634de697b4d175c27ac50344714f478c80e642463403267fb8f7df9afb600260009054906101000a900460ff16604051610c2a919061185b565b60405180910390a1600260009054906101000a900460ff1660ff16905090565b6000806000806005600086815260200190815260200160002090507f04f09f5329ce1640e228ee97d32be2a88d91bdfcaf56e3b11a328cd1c75ae62a8160000160009054906101000a900473ffffffffffffffffffffffffffffffffffffffff1682600201548360030160009054906101000a900460ff16604051610cd1939291906118cb565b60405180910390a18060000160009054906101000a900473ffffffffffffffffffffffffffffffffffffffff1681600201548260030160009054906101000a900460ff16935093509350509193909250565b6000806005600084815260200190815260200160002090507f5a95febda9550e90ab420ee7d418753c6f22278adc925da2763027cc1f5e056d8160010160009054906101000a900473ffffffffffffffffffffffffffffffffffffffff16604051610d8e919061147a565b60405180910390a18060010160009054906101000a900473ffffffffffffffffffffffffffffffffffffffff16915050919050565b828054610dcf90611566565b90600052602060002090601f016020900481019282610df15760008555610e38565b82601f10610e0a57805160ff1916838001178555610e38565b82800160010185558215610e38579182015b82811115610e37578251825591602001919060010190610e1c565b5b509050610e459190610e49565b5090565b5b80821115610e62576000816000905550600101610e4a565b5090565b6000604051905090565b600080fd5b600080fd5b6000819050919050565b610e8d81610e7a565b8114610e9857600080fd5b50565b600081359050610eaa81610e84565b92915050565b60048110610ebd57600080fd5b50565b600081359050610ecf81610eb0565b92915050565b60008060408385031215610eec57610eeb610e70565b5b6000610efa85828601610e9b565b9250506020610f0b85828601610ec0565b9150509250929050565b600060208284031215610f2b57610f2a610e70565b5b6000610f3984828501610e9b565b91505092915050565b600073ffffffffffffffffffffffffffffffffffffffff82169050919050565b6000610f6d82610f42565b9050919050565b610f7d81610f62565b8114610f8857600080fd5b50565b600081359050610f9a81610f74565b92915050565b60008060408385031215610fb757610fb6610e70565b5b6000610fc585828601610e9b565b9250506020610fd685828601610f8b565b9150509250929050565b7f4e487b7100000000000000000000000000000000000000000000000000000000600052602160045260246000fd5b600481106110205761101f610fe0565b5b50565b60008190506110318261100f565b919050565b600061104182611023565b9050919050565b61105181611036565b82525050565b600060208201905061106c6000830184611048565b92915050565b600061107d82610f42565b9050919050565b61108d81611072565b811461109857600080fd5b50565b6000813590506110aa81611084565b92915050565b600080fd5b600080fd5b6000601f19601f8301169050919050565b7f4e487b7100000000000000000000000000000000000000000000000000000000600052604160045260246000fd5b611103826110ba565b810181811067ffffffffffffffff82111715611122576111216110cb565b5b80604052505050565b6000611135610e66565b905061114182826110fa565b919050565b600067ffffffffffffffff821115611161576111606110cb565b5b61116a826110ba565b9050602081019050919050565b82818337600083830152505050565b600061119961119484611146565b61112b565b9050828152602081018484840111156111b5576111b46110b5565b5b6111c0848285611177565b509392505050565b600082601f8301126111dd576111dc6110b0565b5b81356111ed848260208601611186565b91505092915050565b60008060006060848603121561120f5761120e610e70565b5b600061121d8682870161109b565b935050602061122e86828701610e9b565b925050604084013567ffffffffffffffff81111561124f5761124e610e75565b5b61125b868287016111c8565b9150509250925092565b61126e81610e7a565b82525050565b60006020820190506112896000830184611265565b92915050565b600081519050919050565b600082825260208201905092915050565b60005b838110156112c95780820151818401526020810190506112ae565b838111156112d8576000848401525b50505050565b60006112e98261128f565b6112f3818561129a565b93506113038185602086016112ab565b61130c816110ba565b840191505092915050565b6000602082019050818103600083015261133181846112de565b905092915050565b600081519050919050565b600082825260208201905092915050565b6000819050602082019050919050565b61136e81610f62565b82525050565b60006113808383611365565b60208301905092915050565b6000602082019050919050565b60006113a482611339565b6113ae8185611344565b93506113b983611355565b8060005b838110156113ea5781516113d18882611374565b97506113dc8361138c565b9250506001810190506113bd565b5085935050505092915050565b600060208201905081810360008301526114118184611399565b905092915050565b61142281610f62565b82525050565b60008115159050919050565b61143d81611428565b82525050565b60006060820190506114586000830186611419565b6114656020830185611265565b6114726040830184611434565b949350505050565b600060208201905061148f6000830184611419565b92915050565b7f4e487b7100000000000000000000000000000000000000000000000000000000600052601160045260246000fd5b60006114cf82610e7a565b915060008214156114e3576114e2611495565b5b600182039050919050565b60006114f982610e7a565b91507fffffffffffffffffffffffffffffffffffffffffffffffffffffffffffffffff82141561152c5761152b611495565b5b600182019050919050565b7f4e487b7100000000000000000000000000000000000000000000000000000000600052602260045260246000fd5b6000600282049050600182168061157e57607f821691505b6020821081141561159257611591611537565b5b50919050565b600081905092915050565b60008190508160005260206000209050919050565b600081546115c581611566565b6115cf8186611598565b945060018216600081146115ea57600181146115fb5761162e565b60ff1983168652818601935061162e565b611604856115a3565b60005b8381101561162657815481890152600182019150602081019050611607565b838801955050505b50505092915050565b600061164382846115b8565b915081905092915050565b60008190508160005260206000209050919050565b6000815461167081611566565b61167a818661129a565b9450600182166000811461169557600181146116a7576116da565b60ff19831686526020860193506116da565b6116b08561164e565b60005b838110156116d2578154818901526001820191506020810190506116b3565b808801955050505b50505092915050565b600060208201905081810360008301526116fd8184611663565b905092915050565b600081549050919050565b60008190508160005260206000209050919050565b60008160001c9050919050565b600073ffffffffffffffffffffffffffffffffffffffff82169050919050565b600061176561176083611725565b611732565b9050919050565b60006117788254611752565b9050919050565b6000600182019050919050565b600061179782611705565b6117a18185611344565b93506117ac83611710565b8060005b838110156117e4576117c18261176c565b6117cb8882611374565b97506117d68361177f565b9250506001810190506117b0565b5085935050505092915050565b6000602082019050818103600083015261180b818461178c565b905092915050565b600060ff82169050919050565b6000819050919050565b600061184561184061183b84611813565b611820565b610e7a565b9050919050565b6118558161182a565b82525050565b6000602082019050611870600083018461184c565b92915050565b600061189161188c61188784610f42565b611820565b610f42565b9050919050565b60006118a382611876565b9050919050565b60006118b582611898565b9050919050565b6118c5816118aa565b82525050565b60006060820190506118e060008301866118bc565b6118ed6020830185611265565b6118fa6040830184611434565b94935050505056fea26469706673582212205480049e3bc6f0f135a051e5d027f8a38e698726984a30b25279d68f1ffc8f1064736f6c634300080a0033a26469706673582212205db8b92cc9beec6e4fb101aebb3a06a896877922dff016f3d095078f4de4906f64736f6c634300080a0033",
  "immutableReferences": {},
  "source": "// SPDX-License-Identifier: MIT\npragma solidity ^0.8.7;\nimport \"./Pools.sol\";\n\ncontract PoolFactory {\n\n\tmapping(address => bool) public isInstantiated;\n\tmapping(address => address[]) public instantiations;\n\taddress[] public allPoolInstantiations;\n\tmapping(address => address) poolCreator; //mapping of pool address to creator address\n\n\tevent instantiationCount(address _creator);\n\tevent instantiationsOfCreator(address _creator);\n\tevent allCreatedPools(address[] _allPoolInstantiations);\n\tevent poolAddress(address _poolAddress, address[] _owners, uint8 _confirmations);\n\tevent createdBy(address _poolCreator);\n\n\n\tfunction getInstantiationCount(address _creator) public returns(uint) {\n\t\temit instantiationCount(_creator);\n\t\treturn instantiations[_creator].length;\n\t}\n\n    function getInstantiations(address _creator) public returns(address[] memory) {\n\t\temit instantiationsOfCreator(_creator);\n\t\treturn instantiations[_creator];\n\t}\n\n\tfunction getAllPoolInstantiations() public returns(address[] memory) {\n\t\temit allCreatedPools(allPoolInstantiations);\n\t\treturn allPoolInstantiations;\n\t}\n\n\tfunction getCreator(address _poolAddress) public returns(address) {\n\t\temit createdBy(poolCreator[_poolAddress]);\n\t\treturn poolCreator[_poolAddress];\n\t}\n \n\tfunction createPool(address[] memory _owners, uint8 _confirmationsRequired, string memory _metadata) public payable returns (address) {\n\t\taddress poolContractAddress = address(new Pools(_owners, _confirmationsRequired, _metadata));\n\t\tisInstantiated[poolContractAddress] = true;\n\t\tallPoolInstantiations.push(poolContractAddress);\n\t\tpoolCreator[poolContractAddress] = msg.sender;\n\t\tfor(uint i = 0; i < _owners.length; i++) {\n\t\t\tinstantiations[_owners[i]].push(poolContractAddress);\n\t\t}\n\t\temit poolAddress(poolContractAddress, _owners, _confirmationsRequired);\n\t\treturn poolContractAddress;\n\t}\n\n}",
  "sourcePath": "/Users/KellyIzKewl/1pools/contracts/PoolFactory.sol",
  "compiler": {
    "name": "solc",
    "version": "0.8.10+commit.fc410830.Emscripten.clang"
  },
  "schemaVersion": "3.4.4",
  "updatedAt": "2022-01-10T09:50:55.254Z",
  "devdoc": {
    "kind": "dev",
    "methods": {},
    "version": 1
  },
  "userdoc": {
    "kind": "user",
    "methods": {},
    "version": 1
  }
}