{
  "contractName": "Pools",
  "abi": [
    {
      "inputs": [
        {
          "internalType": "address[]",
          "name": "_owners",
          "type": "address[]"
        },
        {
          "internalType": "uint8",
          "name": "_confirmationsRequired",
          "type": "uint8"
        },
        {
          "internalType": "string",
          "name": "_metadata",
          "type": "string"
        }
      ],
      "stateMutability": "nonpayable",
      "type": "constructor"
    },
    {
      "inputs": [
        {
          "internalType": "address payable",
          "name": "_destination",
          "type": "address"
        },
        {
          "internalType": "uint256",
          "name": "_amount",
          "type": "uint256"
        },
        {
          "internalType": "bytes",
          "name": "_data",
          "type": "bytes"
        }
      ],
      "name": "createProposal",
      "outputs": [],
      "stateMutability": "nonpayable",
      "type": "function"
    },
    {
      "inputs": [
        {
          "internalType": "uint256",
          "name": "_proposalId",
          "type": "uint256"
        },
        {
          "internalType": "enum Pools.ProposalConfirmationTypes",
          "name": "_confirmation",
          "type": "uint8"
        }
      ],
      "name": "setConfirmation",
      "outputs": [],
      "stateMutability": "nonpayable",
      "type": "function"
    },
    {
      "inputs": [
        {
          "internalType": "uint256",
          "name": "_proposalId",
          "type": "uint256"
        }
      ],
      "name": "executeProposal",
      "outputs": [],
      "stateMutability": "nonpayable",
      "type": "function"
    },
    {
      "inputs": [],
      "name": "getNumOwners",
      "outputs": [
        {
          "internalType": "uint256",
          "name": "",
          "type": "uint256"
        }
      ],
      "stateMutability": "view",
      "type": "function"
    },
    {
      "inputs": [],
      "name": "getOwners",
      "outputs": [
        {
          "internalType": "address[]",
          "name": "",
          "type": "address[]"
        }
      ],
      "stateMutability": "view",
      "type": "function"
    },
    {
      "inputs": [],
      "name": "getNumProposals",
      "outputs": [
        {
          "internalType": "uint256",
          "name": "",
          "type": "uint256"
        }
      ],
      "stateMutability": "view",
      "type": "function"
    },
    {
      "inputs": [
        {
          "internalType": "uint256",
          "name": "_proposalId",
          "type": "uint256"
        },
        {
          "internalType": "address",
          "name": "_owner",
          "type": "address"
        }
      ],
      "name": "getOwnerConfirmation",
      "outputs": [
        {
          "internalType": "enum Pools.ProposalConfirmationTypes",
          "name": "",
          "type": "uint8"
        }
      ],
      "stateMutability": "view",
      "type": "function"
    },
    {
      "inputs": [
        {
          "internalType": "uint256",
          "name": "_proposalId",
          "type": "uint256"
        },
        {
          "internalType": "enum Pools.ProposalConfirmationTypes",
          "name": "_proposalConfirmationTypes",
          "type": "uint8"
        }
      ],
      "name": "getProposalNumConfirmations",
      "outputs": [
        {
          "internalType": "uint256",
          "name": "",
          "type": "uint256"
        }
      ],
      "stateMutability": "view",
      "type": "function"
    },
    {
      "inputs": [
        {
          "internalType": "uint256",
          "name": "_proposalId",
          "type": "uint256"
        }
      ],
      "name": "getProposal",
      "outputs": [
        {
          "internalType": "address",
          "name": "",
          "type": "address"
        },
        {
          "internalType": "uint256",
          "name": "",
          "type": "uint256"
        },
        {
          "internalType": "bool",
          "name": "",
          "type": "bool"
        }
      ],
      "stateMutability": "view",
      "type": "function"
    },
    {
      "inputs": [],
      "name": "getConfirmationsRequired",
      "outputs": [
        {
          "internalType": "uint256",
          "name": "",
          "type": "uint256"
        }
      ],
      "stateMutability": "view",
      "type": "function"
    },
    {
      "inputs": [],
      "name": "getMetadata",
      "outputs": [
        {
          "internalType": "string",
          "name": "",
          "type": "string"
        }
      ],
      "stateMutability": "view",
      "type": "function"
    }
  ],
  "bytecode": "0x60806040523480156200001157600080fd5b5060405162001a2538038062001a258339818101604052810190620000379190620005a5565b825160008114156200004857600080fd5b8260ff1660008110156200005b57600080fd5b8460009080519060200190620000739291906200014b565b5083600260006101000a81548160ff021916908360ff1602179055508260039080519060200190620000a7929190620001da565b5060005b85518110156200013f576001806000888481518110620000d057620000cf6200063f565b5b602002602001015173ffffffffffffffffffffffffffffffffffffffff1673ffffffffffffffffffffffffffffffffffffffff16815260200190815260200160002060006101000a81548160ff02191690831515021790555080806200013690620006a7565b915050620000ab565b5050505050506200075a565b828054828255906000526020600020908101928215620001c7579160200282015b82811115620001c65782518260006101000a81548173ffffffffffffffffffffffffffffffffffffffff021916908373ffffffffffffffffffffffffffffffffffffffff160217905550916020019190600101906200016c565b5b509050620001d691906200026b565b5090565b828054620001e89062000724565b90600052602060002090601f0160209004810192826200020c576000855562000258565b82601f106200022757805160ff191683800117855562000258565b8280016001018555821562000258579182015b82811115620002575782518255916020019190600101906200023a565b5b5090506200026791906200026b565b5090565b5b80821115620002865760008160009055506001016200026c565b5090565b6000604051905090565b600080fd5b600080fd5b600080fd5b6000601f19601f8301169050919050565b7f4e487b7100000000000000000000000000000000000000000000000000000000600052604160045260246000fd5b620002ee82620002a3565b810181811067ffffffffffffffff8211171562000310576200030f620002b4565b5b80604052505050565b6000620003256200028a565b9050620003338282620002e3565b919050565b600067ffffffffffffffff821115620003565762000355620002b4565b5b602082029050602081019050919050565b600080fd5b600073ffffffffffffffffffffffffffffffffffffffff82169050919050565b600062000399826200036c565b9050919050565b620003ab816200038c565b8114620003b757600080fd5b50565b600081519050620003cb81620003a0565b92915050565b6000620003e8620003e28462000338565b62000319565b905080838252602082019050602084028301858111156200040e576200040d62000367565b5b835b818110156200043b5780620004268882620003ba565b84526020840193505060208101905062000410565b5050509392505050565b600082601f8301126200045d576200045c6200029e565b5b81516200046f848260208601620003d1565b91505092915050565b600060ff82169050919050565b620004908162000478565b81146200049c57600080fd5b50565b600081519050620004b08162000485565b92915050565b600080fd5b600067ffffffffffffffff821115620004d957620004d8620002b4565b5b620004e482620002a3565b9050602081019050919050565b60005b8381101562000511578082015181840152602081019050620004f4565b8381111562000521576000848401525b50505050565b60006200053e6200053884620004bb565b62000319565b9050828152602081018484840111156200055d576200055c620004b6565b5b6200056a848285620004f1565b509392505050565b600082601f8301126200058a57620005896200029e565b5b81516200059c84826020860162000527565b91505092915050565b600080600060608486031215620005c157620005c062000294565b5b600084015167ffffffffffffffff811115620005e257620005e162000299565b5b620005f08682870162000445565b935050602062000603868287016200049f565b925050604084015167ffffffffffffffff81111562000627576200062662000299565b5b620006358682870162000572565b9150509250925092565b7f4e487b7100000000000000000000000000000000000000000000000000000000600052603260045260246000fd5b7f4e487b7100000000000000000000000000000000000000000000000000000000600052601160045260246000fd5b6000819050919050565b6000620006b4826200069d565b91507fffffffffffffffffffffffffffffffffffffffffffffffffffffffffffffffff821415620006ea57620006e96200066e565b5b600182019050919050565b7f4e487b7100000000000000000000000000000000000000000000000000000000600052602260045260246000fd5b600060028204905060018216806200073d57607f821691505b60208210811415620007545762000753620006f5565b5b50919050565b6112bb806200076a6000396000f3fe608060405234801561001057600080fd5b50600436106100a95760003560e01c80636a34ced5116100715780636a34ced514610162578063798974dd146101805780637a5b4f591461019e578063a0e67e2b146101bc578063ab2995b9146101da578063c7f758a8146101f8576100a9565b8063084bc145146100ae5780630d61b519146100ca57806350931cb9146100e657806350eb9321146101165780635d1941ac14610132575b600080fd5b6100c860048036038101906100c39190610b27565b61022a565b005b6100e460048036038101906100df9190610b67565b6103f3565b005b61010060048036038101906100fb9190610bf2565b610634565b60405161010d9190610ca9565b60405180910390f35b610130600480360381019061012b9190610e48565b6106a4565b005b61014c60048036038101906101479190610b27565b610805565b6040516101599190610ec6565b60405180910390f35b61016a610860565b6040516101779190610ec6565b60405180910390f35b61018861086c565b6040516101959190610ec6565b60405180910390f35b6101a6610876565b6040516101b39190610f69565b60405180910390f35b6101c4610908565b6040516101d19190611049565b60405180910390f35b6101e2610996565b6040516101ef9190610ec6565b60405180910390f35b610212600480360381019061020d9190610b67565b6109b0565b60405161022193929190611095565b60405180910390f35b33600160008273ffffffffffffffffffffffffffffffffffffffff1673ffffffffffffffffffffffffffffffffffffffff16815260200190815260200160002060009054906101000a900460ff1661028157600080fd5b60006005600085815260200190815260200160002090508060050160008260040160003373ffffffffffffffffffffffffffffffffffffffff1673ffffffffffffffffffffffffffffffffffffffff16815260200190815260200160002060009054906101000a900460ff1660038111156102ff576102fe610c32565b5b600381111561031157610310610c32565b5b81526020019081526020016000206000815480929190610330906110fb565b9190505550828160040160003373ffffffffffffffffffffffffffffffffffffffff1673ffffffffffffffffffffffffffffffffffffffff16815260200190815260200160002060006101000a81548160ff0219169083600381111561039957610398610c32565b5b02179055508060050160008460038111156103b7576103b6610c32565b5b60038111156103c9576103c8610c32565b5b815260200190815260200160002060008154809291906103e890611125565b919050555050505050565b806006600082815260200190815260200160002060009054906101000a900460ff1661041e57600080fd5b33600160008273ffffffffffffffffffffffffffffffffffffffff1673ffffffffffffffffffffffffffffffffffffffff16815260200190815260200160002060009054906101000a900460ff1661047557600080fd5b6000600560008581526020019081526020016000209050600260009054906101000a900460ff1660ff16816005016000600160038111156104b9576104b8610c32565b5b60038111156104cb576104ca610c32565b5b8152602001908152602001600020541061062e5760018160020160006101000a81548160ff0219169083151502179055508060000160009054906101000a900473ffffffffffffffffffffffffffffffffffffffff1673ffffffffffffffffffffffffffffffffffffffff166108fc82600101549081150290604051600060405180830381858888f1935050505015801561056a573d6000803e3d6000fd5b5060008160000160009054906101000a900473ffffffffffffffffffffffffffffffffffffffff1673ffffffffffffffffffffffffffffffffffffffff168260010154836003016040516105be919061126e565b60006040518083038185875af1925050503d80600081146105fb576040519150601f19603f3d011682016040523d82523d6000602084013e610600565b606091505b505090508061062b5760008260020160006101000a81548160ff02191690831515021790555061062c565b5b505b50505050565b6000806005600085815260200190815260200160002090508060040160008473ffffffffffffffffffffffffffffffffffffffff1673ffffffffffffffffffffffffffffffffffffffff16815260200190815260200160002060009054906101000a900460ff1691505092915050565b33600160008273ffffffffffffffffffffffffffffffffffffffff1673ffffffffffffffffffffffffffffffffffffffff16815260200190815260200160002060009054906101000a900460ff166106fb57600080fd5b6000600560006004600081548092919061071490611125565b9190505581526020019081526020016000209050600160066000600454815260200190815260200160002060006101000a81548160ff021916908315150217905550848160000160006101000a81548173ffffffffffffffffffffffffffffffffffffffff021916908373ffffffffffffffffffffffffffffffffffffffff160217905550838160010181905550828160030190805190602001906107ba929190610a15565b506000805490508160050160008060038111156107da576107d9610c32565b5b60038111156107ec576107eb610c32565b5b8152602001908152602001600020819055505050505050565b60008060056000858152602001908152602001600020905080600501600084600381111561083657610835610c32565b5b600381111561084857610847610c32565b5b81526020019081526020016000205491505092915050565b60008080549050905090565b6000600454905090565b6060600380546108859061119d565b80601f01602080910402602001604051908101604052809291908181526020018280546108b19061119d565b80156108fe5780601f106108d3576101008083540402835291602001916108fe565b820191906000526020600020905b8154815290600101906020018083116108e157829003601f168201915b5050505050905090565b6060600080548060200260200160405190810160405280929190818152602001828054801561098c57602002820191906000526020600020905b8160009054906101000a900473ffffffffffffffffffffffffffffffffffffffff1673ffffffffffffffffffffffffffffffffffffffff1681526020019060010190808311610942575b5050505050905090565b6000600260009054906101000a900460ff1660ff16905090565b6000806000806005600086815260200190815260200160002090508060000160009054906101000a900473ffffffffffffffffffffffffffffffffffffffff1681600101548260020160009054906101000a900460ff16935093509350509193909250565b828054610a219061119d565b90600052602060002090601f016020900481019282610a435760008555610a8a565b82601f10610a5c57805160ff1916838001178555610a8a565b82800160010185558215610a8a579182015b82811115610a89578251825591602001919060010190610a6e565b5b509050610a979190610a9b565b5090565b5b80821115610ab4576000816000905550600101610a9c565b5090565b6000604051905090565b600080fd5b600080fd5b6000819050919050565b610adf81610acc565b8114610aea57600080fd5b50565b600081359050610afc81610ad6565b92915050565b60048110610b0f57600080fd5b50565b600081359050610b2181610b02565b92915050565b60008060408385031215610b3e57610b3d610ac2565b5b6000610b4c85828601610aed565b9250506020610b5d85828601610b12565b9150509250929050565b600060208284031215610b7d57610b7c610ac2565b5b6000610b8b84828501610aed565b91505092915050565b600073ffffffffffffffffffffffffffffffffffffffff82169050919050565b6000610bbf82610b94565b9050919050565b610bcf81610bb4565b8114610bda57600080fd5b50565b600081359050610bec81610bc6565b92915050565b60008060408385031215610c0957610c08610ac2565b5b6000610c1785828601610aed565b9250506020610c2885828601610bdd565b9150509250929050565b7f4e487b7100000000000000000000000000000000000000000000000000000000600052602160045260246000fd5b60048110610c7257610c71610c32565b5b50565b6000819050610c8382610c61565b919050565b6000610c9382610c75565b9050919050565b610ca381610c88565b82525050565b6000602082019050610cbe6000830184610c9a565b92915050565b6000610ccf82610b94565b9050919050565b610cdf81610cc4565b8114610cea57600080fd5b50565b600081359050610cfc81610cd6565b92915050565b600080fd5b600080fd5b6000601f19601f8301169050919050565b7f4e487b7100000000000000000000000000000000000000000000000000000000600052604160045260246000fd5b610d5582610d0c565b810181811067ffffffffffffffff82111715610d7457610d73610d1d565b5b80604052505050565b6000610d87610ab8565b9050610d938282610d4c565b919050565b600067ffffffffffffffff821115610db357610db2610d1d565b5b610dbc82610d0c565b9050602081019050919050565b82818337600083830152505050565b6000610deb610de684610d98565b610d7d565b905082815260208101848484011115610e0757610e06610d07565b5b610e12848285610dc9565b509392505050565b600082601f830112610e2f57610e2e610d02565b5b8135610e3f848260208601610dd8565b91505092915050565b600080600060608486031215610e6157610e60610ac2565b5b6000610e6f86828701610ced565b9350506020610e8086828701610aed565b925050604084013567ffffffffffffffff811115610ea157610ea0610ac7565b5b610ead86828701610e1a565b9150509250925092565b610ec081610acc565b82525050565b6000602082019050610edb6000830184610eb7565b92915050565b600081519050919050565b600082825260208201905092915050565b60005b83811015610f1b578082015181840152602081019050610f00565b83811115610f2a576000848401525b50505050565b6000610f3b82610ee1565b610f458185610eec565b9350610f55818560208601610efd565b610f5e81610d0c565b840191505092915050565b60006020820190508181036000830152610f838184610f30565b905092915050565b600081519050919050565b600082825260208201905092915050565b6000819050602082019050919050565b610fc081610bb4565b82525050565b6000610fd28383610fb7565b60208301905092915050565b6000602082019050919050565b6000610ff682610f8b565b6110008185610f96565b935061100b83610fa7565b8060005b8381101561103c5781516110238882610fc6565b975061102e83610fde565b92505060018101905061100f565b5085935050505092915050565b600060208201905081810360008301526110638184610feb565b905092915050565b61107481610bb4565b82525050565b60008115159050919050565b61108f8161107a565b82525050565b60006060820190506110aa600083018661106b565b6110b76020830185610eb7565b6110c46040830184611086565b949350505050565b7f4e487b7100000000000000000000000000000000000000000000000000000000600052601160045260246000fd5b600061110682610acc565b9150600082141561111a576111196110cc565b5b600182039050919050565b600061113082610acc565b91507fffffffffffffffffffffffffffffffffffffffffffffffffffffffffffffffff821415611163576111626110cc565b5b600182019050919050565b7f4e487b7100000000000000000000000000000000000000000000000000000000600052602260045260246000fd5b600060028204905060018216806111b557607f821691505b602082108114156111c9576111c861116e565b5b50919050565b600081905092915050565b60008190508160005260206000209050919050565b600081546111fc8161119d565b61120681866111cf565b94506001821660008114611221576001811461123257611265565b60ff19831686528186019350611265565b61123b856111da565b60005b8381101561125d5781548189015260018201915060208101905061123e565b838801955050505b50505092915050565b600061127a82846111ef565b91508190509291505056fea2646970667358221220f332a361bedeecf0c226397f0a364471711fccb761983eb11a0eafddff70f6e064736f6c634300080a0033",
  "immutableReferences": {},
  "source": "// SPDX-License-Identifier: MIT\npragma solidity ^0.8.7;\n\ncontract Pools {\n\t\n\t\n\tenum ProposalConfirmationTypes { UNDECIDED, YES, NO, ABSTAIN }\n\t\n\tstruct Proposal {\n\t\taddress payable destination;\n\t\tuint amount;\n\t\tbool executed;\n\t\tbytes data;\n\t\tmapping(address => ProposalConfirmationTypes) confirmations;\n\t\tmapping(ProposalConfirmationTypes => uint) numConfirmations;\n\t}\n\t\n\taddress[] private owners;\n\tmapping(address => bool) private isOwner;\n\n\tuint8 private confirmationsRequired;\n\tstring private metadata;\n\t\n\tuint private numProposals;\n\tmapping(uint => Proposal) private proposals;\n\tmapping(uint => bool) private isProposal;\n\n\t// modifiers \n\tmodifier validNumOfOwners(uint _ownerCount) {\n\t\trequire(_ownerCount != 0);\n\t\t_;\n\t}\n\n\tmodifier validConfirmationsRequired(uint _confirmationsRequired) {\n\t\trequire(_confirmationsRequired >= 0);\n\t\t_;\n\t}\n\n\tmodifier proposalExists(uint _proposalId) {\n\t\trequire(isProposal[_proposalId]);\n\t\t_;\n\t}\n\n\tmodifier ownerExists(address _owner) {\n\t\trequire(isOwner[_owner]);\n\t\t_;\n\t}\n\n\tconstructor(address[] memory _owners, uint8 _confirmationsRequired, string memory _metadata) \n\n\t\tvalidNumOfOwners(_owners.length)\n\t\tvalidConfirmationsRequired(_confirmationsRequired)\n\t{\n        // require(_owners[0] == msg.sender);\n\t\towners = _owners;\n\t\tconfirmationsRequired = _confirmationsRequired;\n\t\tmetadata = _metadata;\n\t\tfor(uint i = 0; i < _owners.length; i++) {\n\t\t\tisOwner[_owners[i]] = true;\n\t\t}\n\t}\n\t\n\tfunction createProposal(address payable _destination, uint _amount, bytes memory _data) \n\t\tpublic\n\t\townerExists(msg.sender)\n\t{\n\t\tProposal storage proposal = proposals[numProposals++];\n\t\tisProposal[numProposals] = true;\n\t\tproposal.destination = _destination;\n\t\tproposal.amount = _amount;\n\t\tproposal.data = _data;\n\t\tproposal.numConfirmations[ProposalConfirmationTypes.UNDECIDED] = owners.length;\n\t}\n\t\n\tfunction setConfirmation(uint _proposalId, ProposalConfirmationTypes _confirmation) \n\t\tpublic \n\t\townerExists(msg.sender)\n\t{\n    \tProposal storage proposal = proposals[_proposalId];\n\t\tproposal.numConfirmations[proposal.confirmations[msg.sender]]--;\n\t\tproposal.confirmations[msg.sender] = _confirmation;\n\t\tproposal.numConfirmations[_confirmation]++;\n\t}\n\t\n\tfunction executeProposal(uint _proposalId) \n\t\tpublic \n\t\tproposalExists(_proposalId)\n\t\townerExists(msg.sender)\n\t{\n    \tProposal storage proposal = proposals[_proposalId];\n\t\tif (proposal.numConfirmations[ProposalConfirmationTypes.YES] >= confirmationsRequired) {\n\t\t\tproposal.executed = true;\n\t\t\tproposal.destination.transfer(proposal.amount);\n\t\t\t(bool success, ) = proposal.destination.call{value: proposal.amount}(proposal.data);\n\t\t\tif (!success) {\n\t\t\t\tproposal.executed = false;\n\t\t\t} else {\n\t\t\t\t\n\t\t\t}\n\t\t}\n\t}\n\n\t// getters \n\tfunction getNumOwners() public view returns (uint) {\n\t\treturn owners.length;\n\t}\n\t\n\tfunction getOwners() public view returns (address[] memory) {\n\t\treturn owners;\n\t}\n\t\n\tfunction getNumProposals() public view returns (uint) {\n\t\treturn numProposals;\n\t}\n\t\n\tfunction getOwnerConfirmation(uint _proposalId, address _owner) public view returns (ProposalConfirmationTypes) {\n    Proposal storage proposal = proposals[_proposalId];\n\t\treturn proposal.confirmations[_owner];\n\t}\n\t\n\tfunction getProposalNumConfirmations(uint _proposalId, ProposalConfirmationTypes _proposalConfirmationTypes) public view returns (uint) {\n    Proposal storage proposal = proposals[_proposalId];\n\t\treturn proposal.numConfirmations[_proposalConfirmationTypes];\n\t}\n\t\t\n\tfunction getProposal(uint _proposalId) public view returns (address, uint, bool) {\n    Proposal storage proposal = proposals[_proposalId];\n\t\treturn (proposal.destination, proposal.amount, proposal.executed);\n\t}\n\t\t\n\tfunction getConfirmationsRequired() public view returns (uint) {\n\t\treturn confirmationsRequired;\n\t}\n\t\n\tfunction getMetadata() public view returns (string memory) {\n\t\treturn metadata;\n\t}\n}\n",
  "sourcePath": "/Users/KellyIzKewl/1pools/contracts/Pools.sol",
  "compiler": {
    "name": "solc",
    "version": "0.8.10+commit.fc410830.Emscripten.clang"
  },
  "schemaVersion": "3.4.4",
  "updatedAt": "2022-01-07T10:00:18.432Z",
  "devdoc": {
    "kind": "dev",
    "methods": {},
    "version": 1
  },
  "userdoc": {
    "kind": "user",
    "methods": {},
    "version": 1
  }
}