{
  "contractName": "PoolFactory",
  "abi": [
    {
      "anonymous": false,
      "inputs": [
        {
          "indexed": false,
          "internalType": "address",
          "name": "_poolAddress",
          "type": "address"
        },
        {
          "indexed": false,
          "internalType": "address[]",
          "name": "_owners",
          "type": "address[]"
        },
        {
          "indexed": false,
          "internalType": "uint8",
          "name": "_confirmations",
          "type": "uint8"
        }
      ],
      "name": "poolAddress",
      "type": "event"
    },
    {
      "inputs": [
        {
          "internalType": "uint256",
          "name": "",
          "type": "uint256"
        }
      ],
      "name": "allPoolInstantiations",
      "outputs": [
        {
          "internalType": "address",
          "name": "",
          "type": "address"
        }
      ],
      "stateMutability": "view",
      "type": "function",
      "constant": true
    },
    {
      "inputs": [
        {
          "internalType": "address",
          "name": "",
          "type": "address"
        },
        {
          "internalType": "uint256",
          "name": "",
          "type": "uint256"
        }
      ],
      "name": "instantiations",
      "outputs": [
        {
          "internalType": "address",
          "name": "",
          "type": "address"
        }
      ],
      "stateMutability": "view",
      "type": "function",
      "constant": true
    },
    {
      "inputs": [
        {
          "internalType": "address",
          "name": "",
          "type": "address"
        }
      ],
      "name": "isInstantiated",
      "outputs": [
        {
          "internalType": "bool",
          "name": "",
          "type": "bool"
        }
      ],
      "stateMutability": "view",
      "type": "function",
      "constant": true
    },
    {
      "inputs": [
        {
          "internalType": "address",
          "name": "_creator",
          "type": "address"
        }
      ],
      "name": "getInstantiationCount",
      "outputs": [
        {
          "internalType": "uint256",
          "name": "",
          "type": "uint256"
        }
      ],
      "stateMutability": "view",
      "type": "function",
      "constant": true
    },
    {
      "inputs": [
        {
          "internalType": "address",
          "name": "_creator",
          "type": "address"
        }
      ],
      "name": "getInstantiations",
      "outputs": [
        {
          "internalType": "address[]",
          "name": "",
          "type": "address[]"
        }
      ],
      "stateMutability": "view",
      "type": "function",
      "constant": true
    },
    {
      "inputs": [],
      "name": "getAllPoolInstantiations",
      "outputs": [
        {
          "internalType": "address[]",
          "name": "",
          "type": "address[]"
        }
      ],
      "stateMutability": "view",
      "type": "function",
      "constant": true
    },
    {
      "inputs": [
        {
          "internalType": "address",
          "name": "_poolAddress",
          "type": "address"
        }
      ],
      "name": "getCreator",
      "outputs": [
        {
          "internalType": "address",
          "name": "",
          "type": "address"
        }
      ],
      "stateMutability": "view",
      "type": "function",
      "constant": true
    },
    {
      "inputs": [
        {
          "internalType": "address",
          "name": "_creator",
          "type": "address"
        }
      ],
      "name": "getPool",
      "outputs": [
        {
          "internalType": "address",
          "name": "",
          "type": "address"
        }
      ],
      "stateMutability": "view",
      "type": "function",
      "constant": true
    },
    {
      "inputs": [
        {
          "internalType": "address[]",
          "name": "_owners",
          "type": "address[]"
        },
        {
          "internalType": "uint8",
          "name": "_confirmationsRequired",
          "type": "uint8"
        },
        {
          "internalType": "string",
          "name": "_metadata",
          "type": "string"
        },
        {
          "internalType": "uint256",
          "name": "_ttl",
          "type": "uint256"
        }
      ],
      "name": "createPool",
      "outputs": [
        {
          "internalType": "address",
          "name": "",
          "type": "address"
        }
      ],
      "stateMutability": "payable",
      "type": "function",
      "payable": true
    }
  ],
  "bytecode": "0x608060405234801561001057600080fd5b50612f77806100206000396000f3fe608060405260043610620000925760003560e01c80636fc1eced11620000615780636fc1eced14620001995780638f83847814620001c95780639457517a146200020d578063a02103091462000251578063bbe4f6db14620002955762000092565b80630c6cc52a146200009757806326bd8d6114620000db578063482af689146200011157806357183c821462000155575b600080fd5b348015620000a457600080fd5b50620000c36004803603810190620000bd9190620009b0565b620002d9565b604051620000d2919062000ab0565b60405180910390f35b620000f96004803603810190620000f3919062000d8a565b620003a8565b60405162000108919062000e4b565b60405180910390f35b3480156200011e57600080fd5b506200013d6004803603810190620001379190620009b0565b620006cc565b6040516200014c919062000e85565b60405180910390f35b3480156200016257600080fd5b506200018160048036038101906200017b919062000ea2565b620006ec565b60405162000190919062000e4b565b60405180910390f35b348015620001a657600080fd5b50620001b16200073b565b604051620001c0919062000ab0565b60405180910390f35b348015620001d657600080fd5b50620001f56004803603810190620001ef9190620009b0565b620007cb565b60405162000204919062000efa565b60405180910390f35b3480156200021a57600080fd5b5062000239600480360381019062000233919062000f17565b62000817565b60405162000248919062000e4b565b60405180910390f35b3480156200025e57600080fd5b506200027d6004803603810190620002779190620009b0565b62000857565b6040516200028c919062000e4b565b60405180910390f35b348015620002a257600080fd5b50620002c16004803603810190620002bb9190620009b0565b620008c0565b604051620002d0919062000e4b565b60405180910390f35b6060600160008373ffffffffffffffffffffffffffffffffffffffff1673ffffffffffffffffffffffffffffffffffffffff1681526020019081526020016000208054806020026020016040519081016040528092919081815260200182805480156200039c57602002820191906000526020600020905b8160009054906101000a900473ffffffffffffffffffffffffffffffffffffffff1673ffffffffffffffffffffffffffffffffffffffff168152602001906001019080831162000351575b50505050509050919050565b60008085858585604051620003bd9062000929565b620003cc949392919062000fed565b604051809103906000f080158015620003e9573d6000803e3d6000fd5b50905060016000808373ffffffffffffffffffffffffffffffffffffffff1673ffffffffffffffffffffffffffffffffffffffff16815260200190815260200160002060006101000a81548160ff0219169083151502179055506002819080600181540180825580915050600190039060005260206000200160009091909190916101000a81548173ffffffffffffffffffffffffffffffffffffffff021916908373ffffffffffffffffffffffffffffffffffffffff16021790555033600360008373ffffffffffffffffffffffffffffffffffffffff1673ffffffffffffffffffffffffffffffffffffffff16815260200190815260200160002060006101000a81548173ffffffffffffffffffffffffffffffffffffffff021916908373ffffffffffffffffffffffffffffffffffffffff16021790555080600460003373ffffffffffffffffffffffffffffffffffffffff1673ffffffffffffffffffffffffffffffffffffffff16815260200190815260200160002060006101000a81548173ffffffffffffffffffffffffffffffffffffffff021916908373ffffffffffffffffffffffffffffffffffffffff16021790555060005b8651811015620006825760016000888381518110620005c957620005c862001048565b5b602002602001015173ffffffffffffffffffffffffffffffffffffffff1673ffffffffffffffffffffffffffffffffffffffff168152602001908152602001600020829080600181540180825580915050600190039060005260206000200160009091909190916101000a81548173ffffffffffffffffffffffffffffffffffffffff021916908373ffffffffffffffffffffffffffffffffffffffff16021790555080806200067990620010a6565b915050620005a5565b507fc95526cc5f14d0117f0490fca959ad7b8f4b0c53d4be77d349baa10d46b756bc818787604051620006b893929190620010f4565b60405180910390a180915050949350505050565b60006020528060005260406000206000915054906101000a900460ff1681565b600160205281600052604060002081815481106200070957600080fd5b906000526020600020016000915091509054906101000a900473ffffffffffffffffffffffffffffffffffffffff1681565b60606002805480602002602001604051908101604052809291908181526020018280548015620007c157602002820191906000526020600020905b8160009054906101000a900473ffffffffffffffffffffffffffffffffffffffff1673ffffffffffffffffffffffffffffffffffffffff168152602001906001019080831162000776575b5050505050905090565b6000600160008373ffffffffffffffffffffffffffffffffffffffff1673ffffffffffffffffffffffffffffffffffffffff168152602001908152602001600020805490509050919050565b600281815481106200082857600080fd5b906000526020600020016000915054906101000a900473ffffffffffffffffffffffffffffffffffffffff1681565b6000600360008373ffffffffffffffffffffffffffffffffffffffff1673ffffffffffffffffffffffffffffffffffffffff16815260200190815260200160002060009054906101000a900473ffffffffffffffffffffffffffffffffffffffff169050919050565b6000600460008373ffffffffffffffffffffffffffffffffffffffff1673ffffffffffffffffffffffffffffffffffffffff16815260200190815260200160002060009054906101000a900473ffffffffffffffffffffffffffffffffffffffff169050919050565b611e09806200113983390190565b6000604051905090565b600080fd5b600080fd5b600073ffffffffffffffffffffffffffffffffffffffff82169050919050565b600062000978826200094b565b9050919050565b6200098a816200096b565b81146200099657600080fd5b50565b600081359050620009aa816200097f565b92915050565b600060208284031215620009c957620009c862000941565b5b6000620009d98482850162000999565b91505092915050565b600081519050919050565b600082825260208201905092915050565b6000819050602082019050919050565b62000a19816200096b565b82525050565b600062000a2d838362000a0e565b60208301905092915050565b6000602082019050919050565b600062000a5382620009e2565b62000a5f8185620009ed565b935062000a6c83620009fe565b8060005b8381101562000aa357815162000a87888262000a1f565b975062000a948362000a39565b92505060018101905062000a70565b5085935050505092915050565b6000602082019050818103600083015262000acc818462000a46565b905092915050565b600080fd5b6000601f19601f8301169050919050565b7f4e487b7100000000000000000000000000000000000000000000000000000000600052604160045260246000fd5b62000b248262000ad9565b810181811067ffffffffffffffff8211171562000b465762000b4562000aea565b5b80604052505050565b600062000b5b62000937565b905062000b69828262000b19565b919050565b600067ffffffffffffffff82111562000b8c5762000b8b62000aea565b5b602082029050602081019050919050565b600080fd5b600062000bb962000bb38462000b6e565b62000b4f565b9050808382526020820190506020840283018581111562000bdf5762000bde62000b9d565b5b835b8181101562000c0c578062000bf7888262000999565b84526020840193505060208101905062000be1565b5050509392505050565b600082601f83011262000c2e5762000c2d62000ad4565b5b813562000c4084826020860162000ba2565b91505092915050565b600060ff82169050919050565b62000c618162000c49565b811462000c6d57600080fd5b50565b60008135905062000c818162000c56565b92915050565b600080fd5b600067ffffffffffffffff82111562000caa5762000ca962000aea565b5b62000cb58262000ad9565b9050602081019050919050565b82818337600083830152505050565b600062000ce862000ce28462000c8c565b62000b4f565b90508281526020810184848401111562000d075762000d0662000c87565b5b62000d1484828562000cc2565b509392505050565b600082601f83011262000d345762000d3362000ad4565b5b813562000d4684826020860162000cd1565b91505092915050565b6000819050919050565b62000d648162000d4f565b811462000d7057600080fd5b50565b60008135905062000d848162000d59565b92915050565b6000806000806080858703121562000da75762000da662000941565b5b600085013567ffffffffffffffff81111562000dc85762000dc762000946565b5b62000dd68782880162000c16565b945050602062000de98782880162000c70565b935050604085013567ffffffffffffffff81111562000e0d5762000e0c62000946565b5b62000e1b8782880162000d1c565b925050606062000e2e8782880162000d73565b91505092959194509250565b62000e45816200096b565b82525050565b600060208201905062000e62600083018462000e3a565b92915050565b60008115159050919050565b62000e7f8162000e68565b82525050565b600060208201905062000e9c600083018462000e74565b92915050565b6000806040838503121562000ebc5762000ebb62000941565b5b600062000ecc8582860162000999565b925050602062000edf8582860162000d73565b9150509250929050565b62000ef48162000d4f565b82525050565b600060208201905062000f11600083018462000ee9565b92915050565b60006020828403121562000f305762000f2f62000941565b5b600062000f408482850162000d73565b91505092915050565b62000f548162000c49565b82525050565b600081519050919050565b600082825260208201905092915050565b60005b8381101562000f9657808201518184015260208101905062000f79565b8381111562000fa6576000848401525b50505050565b600062000fb98262000f5a565b62000fc5818562000f65565b935062000fd781856020860162000f76565b62000fe28162000ad9565b840191505092915050565b6000608082019050818103600083015262001009818762000a46565b90506200101a602083018662000f49565b81810360408301526200102e818562000fac565b90506200103f606083018462000ee9565b95945050505050565b7f4e487b7100000000000000000000000000000000000000000000000000000000600052603260045260246000fd5b7f4e487b7100000000000000000000000000000000000000000000000000000000600052601160045260246000fd5b6000620010b38262000d4f565b91507fffffffffffffffffffffffffffffffffffffffffffffffffffffffffffffffff821415620010e957620010e862001077565b5b600182019050919050565b60006060820190506200110b600083018662000e3a565b81810360208301526200111f818562000a46565b905062001130604083018462000f49565b94935050505056fe60806040523480156200001157600080fd5b5060405162001e0938038062001e098339818101604052810190620000379190620005ff565b835160008114156200004857600080fd5b8360ff1660008110156200005b57600080fd5b82600081116200006a57600080fd5b8660009080519060200190620000829291906200016a565b5085600260006101000a81548160ff021916908360ff1602179055508460039080519060200190620000b6929190620001f9565b50836004819055504260058190555060005b87518110156200015c5760018060008a8481518110620000ed57620000ec620006af565b5b602002602001015173ffffffffffffffffffffffffffffffffffffffff1673ffffffffffffffffffffffffffffffffffffffff16815260200190815260200160002060006101000a81548160ff021916908315150217905550808062000153906200070d565b915050620000c8565b5050505050505050620007c0565b828054828255906000526020600020908101928215620001e6579160200282015b82811115620001e55782518260006101000a81548173ffffffffffffffffffffffffffffffffffffffff021916908373ffffffffffffffffffffffffffffffffffffffff160217905550916020019190600101906200018b565b5b509050620001f591906200028a565b5090565b82805462000207906200078a565b90600052602060002090601f0160209004810192826200022b576000855562000277565b82601f106200024657805160ff191683800117855562000277565b8280016001018555821562000277579182015b828111156200027657825182559160200191906001019062000259565b5b5090506200028691906200028a565b5090565b5b80821115620002a55760008160009055506001016200028b565b5090565b6000604051905090565b600080fd5b600080fd5b600080fd5b6000601f19601f8301169050919050565b7f4e487b7100000000000000000000000000000000000000000000000000000000600052604160045260246000fd5b6200030d82620002c2565b810181811067ffffffffffffffff821117156200032f576200032e620002d3565b5b80604052505050565b600062000344620002a9565b905062000352828262000302565b919050565b600067ffffffffffffffff821115620003755762000374620002d3565b5b602082029050602081019050919050565b600080fd5b600073ffffffffffffffffffffffffffffffffffffffff82169050919050565b6000620003b8826200038b565b9050919050565b620003ca81620003ab565b8114620003d657600080fd5b50565b600081519050620003ea81620003bf565b92915050565b600062000407620004018462000357565b62000338565b905080838252602082019050602084028301858111156200042d576200042c62000386565b5b835b818110156200045a5780620004458882620003d9565b8452602084019350506020810190506200042f565b5050509392505050565b600082601f8301126200047c576200047b620002bd565b5b81516200048e848260208601620003f0565b91505092915050565b600060ff82169050919050565b620004af8162000497565b8114620004bb57600080fd5b50565b600081519050620004cf81620004a4565b92915050565b600080fd5b600067ffffffffffffffff821115620004f857620004f7620002d3565b5b6200050382620002c2565b9050602081019050919050565b60005b838110156200053057808201518184015260208101905062000513565b8381111562000540576000848401525b50505050565b60006200055d6200055784620004da565b62000338565b9050828152602081018484840111156200057c576200057b620004d5565b5b6200058984828562000510565b509392505050565b600082601f830112620005a957620005a8620002bd565b5b8151620005bb84826020860162000546565b91505092915050565b6000819050919050565b620005d981620005c4565b8114620005e557600080fd5b50565b600081519050620005f981620005ce565b92915050565b600080600080608085870312156200061c576200061b620002b3565b5b600085015167ffffffffffffffff8111156200063d576200063c620002b8565b5b6200064b8782880162000464565b94505060206200065e87828801620004be565b935050604085015167ffffffffffffffff811115620006825762000681620002b8565b5b620006908782880162000591565b9250506060620006a387828801620005e8565b91505092959194509250565b7f4e487b7100000000000000000000000000000000000000000000000000000000600052603260045260246000fd5b7f4e487b7100000000000000000000000000000000000000000000000000000000600052601160045260246000fd5b60006200071a82620005c4565b91507fffffffffffffffffffffffffffffffffffffffffffffffffffffffffffffffff82141562000750576200074f620006de565b5b600182019050919050565b7f4e487b7100000000000000000000000000000000000000000000000000000000600052602260045260246000fd5b60006002820490506001821680620007a357607f821691505b60208210811415620007ba57620007b96200075b565b5b50919050565b61163980620007d06000396000f3fe6080604052600436106100c25760003560e01c80636a34ced51161007f5780637a5b4f59116100595780637a5b4f591461024e578063a0e67e2b14610279578063ab2995b9146102a4578063c7f758a8146102cf576100c2565b80636a34ced5146101cd5780636f56dd89146101f8578063798974dd14610223576100c2565b8063084bc145146100c75780630d61b519146100e357806313f27851146100ff57806350931cb91461012a57806350eb9321146101675780635d1941ac14610190575b600080fd5b6100e160048036038101906100dc9190610d6f565b610311565b005b6100fd60048036038101906100f89190610daf565b6104da565b005b34801561010b57600080fd5b50610114610754565b6040516101219190610deb565b60405180910390f35b34801561013657600080fd5b50610151600480360381019061014c9190610e64565b61075e565b60405161015e9190610f1b565b60405180910390f35b34801561017357600080fd5b5061018e600480360381019061018991906110ba565b6107ce565b005b34801561019c57600080fd5b506101b760048036038101906101b29190610d6f565b61097b565b6040516101c49190610deb565b60405180910390f35b3480156101d957600080fd5b506101e26109d6565b6040516101ef9190610deb565b60405180910390f35b34801561020457600080fd5b5061020d6109e2565b60405161021a9190610deb565b60405180910390f35b34801561022f57600080fd5b506102386109ec565b6040516102459190610deb565b60405180910390f35b34801561025a57600080fd5b506102636109f6565b60405161027091906111b1565b60405180910390f35b34801561028557600080fd5b5061028e610a88565b60405161029b9190611291565b60405180910390f35b3480156102b057600080fd5b506102b9610b16565b6040516102c69190610deb565b60405180910390f35b3480156102db57600080fd5b506102f660048036038101906102f19190610daf565b610b30565b60405161030896959493929190611332565b60405180910390f35b33600160008273ffffffffffffffffffffffffffffffffffffffff1673ffffffffffffffffffffffffffffffffffffffff16815260200190815260200160002060009054906101000a900460ff1661036857600080fd5b60006007600085815260200190815260200160002090508060070160008260060160003373ffffffffffffffffffffffffffffffffffffffff1673ffffffffffffffffffffffffffffffffffffffff16815260200190815260200160002060009054906101000a900460ff1660038111156103e6576103e5610ea4565b5b60038111156103f8576103f7610ea4565b5b81526020019081526020016000206000815480929190610417906113c9565b9190505550828160060160003373ffffffffffffffffffffffffffffffffffffffff1673ffffffffffffffffffffffffffffffffffffffff16815260200190815260200160002060006101000a81548160ff021916908360038111156104805761047f610ea4565b5b021790555080600701600084600381111561049e5761049d610ea4565b5b60038111156104b0576104af610ea4565b5b815260200190815260200160002060008154809291906104cf906113f3565b919050555050505050565b806008600082815260200190815260200160002060009054906101000a900460ff1661050557600080fd5b33600160008273ffffffffffffffffffffffffffffffffffffffff1673ffffffffffffffffffffffffffffffffffffffff16815260200190815260200160002060009054906101000a900460ff1661055c57600080fd5b600554603c806018600454610571919061143c565b61057b919061143c565b610585919061143c565b61058f9190611496565b421161059a57600080fd5b6000600760008581526020019081526020016000209050600260009054906101000a900460ff1660ff16816007016000600160038111156105de576105dd610ea4565b5b60038111156105f0576105ef610ea4565b5b8152602001908152602001600020541061074e5760018160040160006101000a81548160ff0219169083151502179055508060010160009054906101000a900473ffffffffffffffffffffffffffffffffffffffff1673ffffffffffffffffffffffffffffffffffffffff166108fc82600301549081150290604051600060405180830381858888f1935050505015801561068f573d6000803e3d6000fd5b5060008160010160009054906101000a900473ffffffffffffffffffffffffffffffffffffffff1673ffffffffffffffffffffffffffffffffffffffff168260030154836005016040516106e391906115ec565b60006040518083038185875af1925050503d8060008114610720576040519150601f19603f3d011682016040523d82523d6000602084013e610725565b606091505b505090508061074c5760008260040160006101000a81548160ff0219169083151502179055505b505b50505050565b6000600554905090565b6000806007600085815260200190815260200160002090508060060160008473ffffffffffffffffffffffffffffffffffffffff1673ffffffffffffffffffffffffffffffffffffffff16815260200190815260200160002060009054906101000a900460ff1691505092915050565b33600160008273ffffffffffffffffffffffffffffffffffffffff1673ffffffffffffffffffffffffffffffffffffffff16815260200190815260200160002060009054906101000a900460ff1661082557600080fd5b6000600760006006600081548092919061083e906113f3565b9190505581526020019081526020016000209050600160086000600654815260200190815260200160002060006101000a81548160ff021916908315150217905550848160010160006101000a81548173ffffffffffffffffffffffffffffffffffffffff021916908373ffffffffffffffffffffffffffffffffffffffff160217905550838160030181905550828160050190805190602001906108e4929190610c5d565b5060008054905081600701600080600381111561090457610903610ea4565b5b600381111561091657610915610ea4565b5b815260200190815260200160002081905550338160020160006101000a81548173ffffffffffffffffffffffffffffffffffffffff021916908373ffffffffffffffffffffffffffffffffffffffff1602179055504281600001819055505050505050565b6000806007600085815260200190815260200160002090508060070160008460038111156109ac576109ab610ea4565b5b60038111156109be576109bd610ea4565b5b81526020019081526020016000205491505092915050565b60008080549050905090565b6000600454905090565b6000600654905090565b606060038054610a059061151b565b80601f0160208091040260200160405190810160405280929190818152602001828054610a319061151b565b8015610a7e5780601f10610a5357610100808354040283529160200191610a7e565b820191906000526020600020905b815481529060010190602001808311610a6157829003601f168201915b5050505050905090565b60606000805480602002602001604051908101604052809291908181526020018280548015610b0c57602002820191906000526020600020905b8160009054906101000a900473ffffffffffffffffffffffffffffffffffffffff1673ffffffffffffffffffffffffffffffffffffffff1681526020019060010190808311610ac2575b5050505050905090565b6000600260009054906101000a900460ff1660ff16905090565b6000806000606060008060006007600089815260200190815260200160002090508060010160009054906101000a900473ffffffffffffffffffffffffffffffffffffffff1681600301548260040160009054906101000a900460ff168360050184600001548560020160009054906101000a900473ffffffffffffffffffffffffffffffffffffffff16828054610bc79061151b565b80601f0160208091040260200160405190810160405280929190818152602001828054610bf39061151b565b8015610c405780601f10610c1557610100808354040283529160200191610c40565b820191906000526020600020905b815481529060010190602001808311610c2357829003601f168201915b505050505092509650965096509650965096505091939550919395565b828054610c699061151b565b90600052602060002090601f016020900481019282610c8b5760008555610cd2565b82601f10610ca457805160ff1916838001178555610cd2565b82800160010185558215610cd2579182015b82811115610cd1578251825591602001919060010190610cb6565b5b509050610cdf9190610ce3565b5090565b5b80821115610cfc576000816000905550600101610ce4565b5090565b6000604051905090565b600080fd5b600080fd5b6000819050919050565b610d2781610d14565b8114610d3257600080fd5b50565b600081359050610d4481610d1e565b92915050565b60048110610d5757600080fd5b50565b600081359050610d6981610d4a565b92915050565b60008060408385031215610d8657610d85610d0a565b5b6000610d9485828601610d35565b9250506020610da585828601610d5a565b9150509250929050565b600060208284031215610dc557610dc4610d0a565b5b6000610dd384828501610d35565b91505092915050565b610de581610d14565b82525050565b6000602082019050610e006000830184610ddc565b92915050565b600073ffffffffffffffffffffffffffffffffffffffff82169050919050565b6000610e3182610e06565b9050919050565b610e4181610e26565b8114610e4c57600080fd5b50565b600081359050610e5e81610e38565b92915050565b60008060408385031215610e7b57610e7a610d0a565b5b6000610e8985828601610d35565b9250506020610e9a85828601610e4f565b9150509250929050565b7f4e487b7100000000000000000000000000000000000000000000000000000000600052602160045260246000fd5b60048110610ee457610ee3610ea4565b5b50565b6000819050610ef582610ed3565b919050565b6000610f0582610ee7565b9050919050565b610f1581610efa565b82525050565b6000602082019050610f306000830184610f0c565b92915050565b6000610f4182610e06565b9050919050565b610f5181610f36565b8114610f5c57600080fd5b50565b600081359050610f6e81610f48565b92915050565b600080fd5b600080fd5b6000601f19601f8301169050919050565b7f4e487b7100000000000000000000000000000000000000000000000000000000600052604160045260246000fd5b610fc782610f7e565b810181811067ffffffffffffffff82111715610fe657610fe5610f8f565b5b80604052505050565b6000610ff9610d00565b90506110058282610fbe565b919050565b600067ffffffffffffffff82111561102557611024610f8f565b5b61102e82610f7e565b9050602081019050919050565b82818337600083830152505050565b600061105d6110588461100a565b610fef565b90508281526020810184848401111561107957611078610f79565b5b61108484828561103b565b509392505050565b600082601f8301126110a1576110a0610f74565b5b81356110b184826020860161104a565b91505092915050565b6000806000606084860312156110d3576110d2610d0a565b5b60006110e186828701610f5f565b93505060206110f286828701610d35565b925050604084013567ffffffffffffffff81111561111357611112610d0f565b5b61111f8682870161108c565b9150509250925092565b600081519050919050565b600082825260208201905092915050565b60005b83811015611163578082015181840152602081019050611148565b83811115611172576000848401525b50505050565b600061118382611129565b61118d8185611134565b935061119d818560208601611145565b6111a681610f7e565b840191505092915050565b600060208201905081810360008301526111cb8184611178565b905092915050565b600081519050919050565b600082825260208201905092915050565b6000819050602082019050919050565b61120881610e26565b82525050565b600061121a83836111ff565b60208301905092915050565b6000602082019050919050565b600061123e826111d3565b61124881856111de565b9350611253836111ef565b8060005b8381101561128457815161126b888261120e565b975061127683611226565b925050600181019050611257565b5085935050505092915050565b600060208201905081810360008301526112ab8184611233565b905092915050565b6112bc81610e26565b82525050565b60008115159050919050565b6112d7816112c2565b82525050565b600081519050919050565b600082825260208201905092915050565b6000611304826112dd565b61130e81856112e8565b935061131e818560208601611145565b61132781610f7e565b840191505092915050565b600060c08201905061134760008301896112b3565b6113546020830188610ddc565b61136160408301876112ce565b818103606083015261137381866112f9565b90506113826080830185610ddc565b61138f60a08301846112b3565b979650505050505050565b7f4e487b7100000000000000000000000000000000000000000000000000000000600052601160045260246000fd5b60006113d482610d14565b915060008214156113e8576113e761139a565b5b600182039050919050565b60006113fe82610d14565b91507fffffffffffffffffffffffffffffffffffffffffffffffffffffffffffffffff8214156114315761143061139a565b5b600182019050919050565b600061144782610d14565b915061145283610d14565b9250817fffffffffffffffffffffffffffffffffffffffffffffffffffffffffffffffff048311821515161561148b5761148a61139a565b5b828202905092915050565b60006114a182610d14565b91506114ac83610d14565b9250827fffffffffffffffffffffffffffffffffffffffffffffffffffffffffffffffff038211156114e1576114e061139a565b5b828201905092915050565b7f4e487b7100000000000000000000000000000000000000000000000000000000600052602260045260246000fd5b6000600282049050600182168061153357607f821691505b60208210811415611547576115466114ec565b5b50919050565b600081905092915050565b60008190508160005260206000209050919050565b6000815461157a8161151b565b611584818661154d565b9450600182166000811461159f57600181146115b0576115e3565b60ff198316865281860193506115e3565b6115b985611558565b60005b838110156115db578154818901526001820191506020810190506115bc565b838801955050505b50505092915050565b60006115f8828461156d565b91508190509291505056fea26469706673582212208d323bc32b6e6a862f002f0e4ca2d649bc7ba7baf01e7203da2d37cb2c261bc264736f6c634300080a0033a26469706673582212208fc2ea41c4b872d7c3e4a10240d25a212214408009a09db35e707eb5f2f8d69164736f6c634300080a0033",
  "immutableReferences": {},
  "source": "// SPDX-License-Identifier: MIT\npragma solidity ^0.8.7;\nimport \"./Pools.sol\";\n\ncontract PoolFactory {\n\n\tmapping(address => bool) public isInstantiated;\n\tmapping(address => address[]) public instantiations;\n\taddress[] public allPoolInstantiations;\n\tmapping(address => address) poolToCreator; //mapping of pool address to creator address\n\tmapping(address => address) creatorToPool; //mapping of creator address to pool address\n\n\tevent poolAddress(address _poolAddress, address[] _owners, uint8 _confirmations);\n\n\tfunction getInstantiationCount(address _creator) public view returns(uint) {\n\t\treturn instantiations[_creator].length;\n\t}\n\n\tfunction getInstantiations(address _creator) public view returns(address[] memory) {\n\t\treturn instantiations[_creator];\n\t}\n\n\tfunction getAllPoolInstantiations() public view returns(address[] memory) {\n\t\treturn allPoolInstantiations;\n\t}\n\n\tfunction getCreator(address _poolAddress) public view returns(address) {\n\t\treturn poolToCreator[_poolAddress];\n\t}\n\n\tfunction getPool(address _creator) public view returns(address) {\n\t\treturn creatorToPool[_creator]; \n\t}\n \n\tfunction createPool(address[] memory _owners, uint8 _confirmationsRequired, string memory _metadata, uint256 _ttl) public payable returns (address) {\n\t\taddress poolContractAddress = address(new Pools(_owners, _confirmationsRequired, _metadata, _ttl));\n\n\t\tisInstantiated[poolContractAddress] = true;\n\t\tallPoolInstantiations.push(poolContractAddress);\n\t\tpoolToCreator[poolContractAddress] = msg.sender;\n\t\tcreatorToPool[msg.sender] = poolContractAddress;\n\n\t\tfor(uint i = 0; i < _owners.length; i++) {\n\t\t\tinstantiations[_owners[i]].push(poolContractAddress);\n\t\t}\n\t\t\n\t\temit poolAddress(poolContractAddress, _owners, _confirmationsRequired);\n\t\treturn poolContractAddress;\n\t}\n\n}\n",
  "sourcePath": "/Users/KellyIzKewl/1pools/contracts/PoolFactory.sol",
  "compiler": {
    "name": "solc",
    "version": "0.8.10+commit.fc410830.Emscripten.clang"
  },
  "schemaVersion": "3.4.4",
  "updatedAt": "2022-01-13T06:50:50.790Z",
  "networkType": "ethereum",
  "devdoc": {
    "kind": "dev",
    "methods": {},
    "version": 1
  },
  "userdoc": {
    "kind": "user",
    "methods": {},
    "version": 1
  }
}