{
  "contractName": "Pools",
  "abi": [
    {
      "inputs": [
        {
          "internalType": "address",
          "name": "_pool_addr",
          "type": "address"
        },
        {
          "internalType": "address",
          "name": "_owner_addr",
          "type": "address"
        },
        {
          "internalType": "bytes",
          "name": "_metadata",
          "type": "bytes"
        }
      ],
      "stateMutability": "nonpayable",
      "type": "constructor"
    },
    {
      "inputs": [
        {
          "internalType": "address",
          "name": "pool_addr",
          "type": "address"
        },
        {
          "internalType": "address[]",
          "name": "owners_addr",
          "type": "address[]"
        }
      ],
      "name": "addOwner",
      "outputs": [],
      "stateMutability": "nonpayable",
      "type": "function"
    },
    {
      "inputs": [
        {
          "internalType": "address",
          "name": "pool_addr",
          "type": "address"
        }
      ],
      "name": "getOwners",
      "outputs": [
        {
          "internalType": "address[]",
          "name": "",
          "type": "address[]"
        }
      ],
      "stateMutability": "view",
      "type": "function"
    },
    {
      "inputs": [
        {
          "internalType": "address",
          "name": "owner_addr",
          "type": "address"
        }
      ],
      "name": "getPools",
      "outputs": [
        {
          "internalType": "address[]",
          "name": "",
          "type": "address[]"
        }
      ],
      "stateMutability": "view",
      "type": "function"
    }
  ],
  "bytecode": "0x60806040523480156200001157600080fd5b5060405162000d8438038062000d84833981810160405281019062000037919062000487565b6000808473ffffffffffffffffffffffffffffffffffffffff1673ffffffffffffffffffffffffffffffffffffffff168152602001908152602001600020829080600181540180825580915050600190039060005260206000200160009091909190916101000a81548173ffffffffffffffffffffffffffffffffffffffff021916908373ffffffffffffffffffffffffffffffffffffffff16021790555080600260008573ffffffffffffffffffffffffffffffffffffffff1673ffffffffffffffffffffffffffffffffffffffff16815260200190815260200160002090805190602001906200012b929190620001d5565b50600160008373ffffffffffffffffffffffffffffffffffffffff1673ffffffffffffffffffffffffffffffffffffffff168152602001908152602001600020839080600181540180825580915050600190039060005260206000200160009091909190916101000a81548173ffffffffffffffffffffffffffffffffffffffff021916908373ffffffffffffffffffffffffffffffffffffffff16021790555050505062000567565b828054620001e39062000531565b90600052602060002090601f01602090048101928262000207576000855562000253565b82601f106200022257805160ff191683800117855562000253565b8280016001018555821562000253579182015b828111156200025257825182559160200191906001019062000235565b5b50905062000262919062000266565b5090565b5b808211156200028157600081600090555060010162000267565b5090565b6000604051905090565b600080fd5b600080fd5b600073ffffffffffffffffffffffffffffffffffffffff82169050919050565b6000620002c68262000299565b9050919050565b620002d881620002b9565b8114620002e457600080fd5b50565b600081519050620002f881620002cd565b92915050565b600080fd5b600080fd5b6000601f19601f8301169050919050565b7f4e487b7100000000000000000000000000000000000000000000000000000000600052604160045260246000fd5b620003538262000308565b810181811067ffffffffffffffff8211171562000375576200037462000319565b5b80604052505050565b60006200038a62000285565b905062000398828262000348565b919050565b600067ffffffffffffffff821115620003bb57620003ba62000319565b5b620003c68262000308565b9050602081019050919050565b60005b83811015620003f3578082015181840152602081019050620003d6565b8381111562000403576000848401525b50505050565b6000620004206200041a846200039d565b6200037e565b9050828152602081018484840111156200043f576200043e62000303565b5b6200044c848285620003d3565b509392505050565b600082601f8301126200046c576200046b620002fe565b5b81516200047e84826020860162000409565b91505092915050565b600080600060608486031215620004a357620004a26200028f565b5b6000620004b386828701620002e7565b9350506020620004c686828701620002e7565b925050604084015167ffffffffffffffff811115620004ea57620004e962000294565b5b620004f88682870162000454565b9150509250925092565b7f4e487b7100000000000000000000000000000000000000000000000000000000600052602260045260246000fd5b600060028204905060018216806200054a57607f821691505b6020821081141562000561576200056062000502565b5b50919050565b61080d80620005776000396000f3fe608060405234801561001057600080fd5b50600436106100415760003560e01c80635c39f467146100465780637d0b3d1d14610076578063fd8b84b114610092575b600080fd5b610060600480360381019061005b9190610464565b6100c2565b60405161006d919061054f565b60405180910390f35b610090600480360381019061008b91906106ca565b61018f565b005b6100ac60048036038101906100a79190610464565b610326565b6040516100b9919061054f565b60405180910390f35b6060600160008373ffffffffffffffffffffffffffffffffffffffff1673ffffffffffffffffffffffffffffffffffffffff16815260200190815260200160002080548060200260200160405190810160405280929190818152602001828054801561018357602002820191906000526020600020905b8160009054906101000a900473ffffffffffffffffffffffffffffffffffffffff1673ffffffffffffffffffffffffffffffffffffffff1681526020019060010190808311610139575b50505050509050919050565b60005b8151811015610321576000808473ffffffffffffffffffffffffffffffffffffffff1673ffffffffffffffffffffffffffffffffffffffff1681526020019081526020016000208282815181106101ec576101eb610726565b5b60200260200101519080600181540180825580915050600190039060005260206000200160009091909190916101000a81548173ffffffffffffffffffffffffffffffffffffffff021916908373ffffffffffffffffffffffffffffffffffffffff1602179055506001600083838151811061026b5761026a610726565b5b602002602001015173ffffffffffffffffffffffffffffffffffffffff1673ffffffffffffffffffffffffffffffffffffffff168152602001908152602001600020839080600181540180825580915050600190039060005260206000200160009091909190916101000a81548173ffffffffffffffffffffffffffffffffffffffff021916908373ffffffffffffffffffffffffffffffffffffffff16021790555080806103199061078e565b915050610192565b505050565b60606000808373ffffffffffffffffffffffffffffffffffffffff1673ffffffffffffffffffffffffffffffffffffffff1681526020019081526020016000208054806020026020016040519081016040528092919081815260200182805480156103e657602002820191906000526020600020905b8160009054906101000a900473ffffffffffffffffffffffffffffffffffffffff1673ffffffffffffffffffffffffffffffffffffffff168152602001906001019080831161039c575b50505050509050919050565b6000604051905090565b600080fd5b600080fd5b600073ffffffffffffffffffffffffffffffffffffffff82169050919050565b600061043182610406565b9050919050565b61044181610426565b811461044c57600080fd5b50565b60008135905061045e81610438565b92915050565b60006020828403121561047a576104796103fc565b5b60006104888482850161044f565b91505092915050565b600081519050919050565b600082825260208201905092915050565b6000819050602082019050919050565b6104c681610426565b82525050565b60006104d883836104bd565b60208301905092915050565b6000602082019050919050565b60006104fc82610491565b610506818561049c565b9350610511836104ad565b8060005b8381101561054257815161052988826104cc565b9750610534836104e4565b925050600181019050610515565b5085935050505092915050565b6000602082019050818103600083015261056981846104f1565b905092915050565b600080fd5b6000601f19601f8301169050919050565b7f4e487b7100000000000000000000000000000000000000000000000000000000600052604160045260246000fd5b6105bf82610576565b810181811067ffffffffffffffff821117156105de576105dd610587565b5b80604052505050565b60006105f16103f2565b90506105fd82826105b6565b919050565b600067ffffffffffffffff82111561061d5761061c610587565b5b602082029050602081019050919050565b600080fd5b600061064661064184610602565b6105e7565b905080838252602082019050602084028301858111156106695761066861062e565b5b835b81811015610692578061067e888261044f565b84526020840193505060208101905061066b565b5050509392505050565b600082601f8301126106b1576106b0610571565b5b81356106c1848260208601610633565b91505092915050565b600080604083850312156106e1576106e06103fc565b5b60006106ef8582860161044f565b925050602083013567ffffffffffffffff8111156107105761070f610401565b5b61071c8582860161069c565b9150509250929050565b7f4e487b7100000000000000000000000000000000000000000000000000000000600052603260045260246000fd5b7f4e487b7100000000000000000000000000000000000000000000000000000000600052601160045260246000fd5b6000819050919050565b600061079982610784565b91507fffffffffffffffffffffffffffffffffffffffffffffffffffffffffffffffff8214156107cc576107cb610755565b5b60018201905091905056fea2646970667358221220dcd8d6ff861ee71ded0482584f65c7212042b2e204b3549c5b2e907d20c74ad164736f6c634300080a0033",
  "immutableReferences": {},
  "source": "pragma solidity ^0.8.10;\n\ncontract Pools {\n    mapping(address => address[]) private pool_to_owners;\n    mapping(address => address[]) private owner_to_pools;\n    mapping(address => bytes) private pool_to_metadata;\n\n\tconstructor(address _pool_addr, address _owner_addr, bytes memory _metadata) public {\n\t\t/*\n\t\t\t- constructor takes in owners to create wallet and adds to lookup table then calls multisig wallet\n\t\t*/\n        pool_to_owners[_pool_addr].push(address(_owner_addr));\n        pool_to_metadata[_pool_addr] = _metadata;\n        owner_to_pools[_owner_addr].push(address(_pool_addr));\n\t} \n\n    function addOwner(address pool_addr, address [] memory owners_addr) public {\n        for (uint i = 0; i < owners_addr.length; i++) {\n            pool_to_owners[pool_addr].push(owners_addr[i]);\n            owner_to_pools[owners_addr[i]].push(pool_addr);\n        }\n    }\n\n    // getters \n    function getOwners(address pool_addr) public view returns (address [] memory) {\n        return pool_to_owners[pool_addr];\n    }\n\n    function getPools(address owner_addr) public view returns (address [] memory) {\n        return owner_to_pools[owner_addr];\n    }\n\n    /*\n    \tTODO:\n    \t\t- allow owner x to send funds to pool \n    \t\t- trigger multisig for withdrawling from fund \n    \t\t- select delegate of pool \n    */\n\n}\n\ncontract MultiSigWallet {\n\tuint constant public MIN_CONSENT = 1; // 100% agreement upon owners to withdrawl funds \n}\n\n// contract MultiSigWallet {\n// \tfunction submitTransaction() {\n// \t\t/*\n// \t\t\towner will propose a transaction subject to approval by other owners\n// \t\t*/\n\n// \t}\n\n// \tfunction confirmTransaction() {\n\t\t\n// \t\t\tother owners can approve or deny the transaction proposal \n\t\t\n\n// \t}\n\n// \tfunction executeTransaction() {\n// \t\t/*\n// \t\t\tif enough owners approve the transaction, it will be executed \n// \t\t*/\n\n// \t}\n\n// \tfunction revokeConfirmation() {\n// \t\t/*\n// \t\t\tallow an owner to cancel the confirmation  \n// \t\t*/\n\n// \t}\n// }",
  "sourcePath": "/Users/KellyIzKewl/1pools/contracts/Pools.sol",
  "compiler": {
    "name": "solc",
    "version": "0.8.10+commit.fc410830.Emscripten.clang"
  },
  "schemaVersion": "3.4.4",
  "updatedAt": "2021-12-28T08:31:55.589Z",
  "devdoc": {
    "kind": "dev",
    "methods": {},
    "version": 1
  },
  "userdoc": {
    "kind": "user",
    "methods": {},
    "version": 1
  }
}