{
  "contractName": "Pools",
  "abi": [
    {
      "inputs": [
        {
          "internalType": "address[]",
          "name": "_owners",
          "type": "address[]"
        },
        {
          "internalType": "uint8",
          "name": "_confirmationsRequired",
          "type": "uint8"
        },
        {
          "internalType": "string",
          "name": "_metadata",
          "type": "string"
        }
      ],
      "stateMutability": "nonpayable",
      "type": "constructor"
    },
    {
      "anonymous": false,
      "inputs": [
        {
          "indexed": false,
          "internalType": "uint256",
          "name": "_count",
          "type": "uint256"
        }
      ],
      "name": "confirmationRequiredCount",
      "type": "event"
    },
    {
      "anonymous": false,
      "inputs": [
        {
          "indexed": false,
          "internalType": "address[]",
          "name": "_owners",
          "type": "address[]"
        }
      ],
      "name": "getAllOwners",
      "type": "event"
    },
    {
      "anonymous": false,
      "inputs": [
        {
          "indexed": false,
          "internalType": "string",
          "name": "_metadata",
          "type": "string"
        }
      ],
      "name": "metadataInfo",
      "type": "event"
    },
    {
      "anonymous": false,
      "inputs": [
        {
          "indexed": false,
          "internalType": "enum Pools.ProposalConfirmationTypes",
          "name": "_confirmationTypes",
          "type": "uint8"
        }
      ],
      "name": "ownerConfirmationTypes",
      "type": "event"
    },
    {
      "anonymous": false,
      "inputs": [
        {
          "indexed": false,
          "internalType": "uint256",
          "name": "_count",
          "type": "uint256"
        }
      ],
      "name": "ownersCount",
      "type": "event"
    },
    {
      "anonymous": false,
      "inputs": [
        {
          "indexed": false,
          "internalType": "uint256",
          "name": "_count",
          "type": "uint256"
        }
      ],
      "name": "proposalConfirmationCount",
      "type": "event"
    },
    {
      "anonymous": false,
      "inputs": [
        {
          "indexed": false,
          "internalType": "uint256",
          "name": "_count",
          "type": "uint256"
        }
      ],
      "name": "proposalCount",
      "type": "event"
    },
    {
      "anonymous": false,
      "inputs": [
        {
          "indexed": false,
          "internalType": "address",
          "name": "_creator",
          "type": "address"
        }
      ],
      "name": "proposalCreatedBy",
      "type": "event"
    },
    {
      "anonymous": false,
      "inputs": [
        {
          "indexed": false,
          "internalType": "address",
          "name": "_destionation",
          "type": "address"
        },
        {
          "indexed": false,
          "internalType": "uint256",
          "name": "_amount",
          "type": "uint256"
        },
        {
          "indexed": false,
          "internalType": "bool",
          "name": "_executed",
          "type": "bool"
        }
      ],
      "name": "proposalInfo",
      "type": "event"
    },
    {
      "inputs": [
        {
          "internalType": "address payable",
          "name": "_destination",
          "type": "address"
        },
        {
          "internalType": "uint256",
          "name": "_amount",
          "type": "uint256"
        },
        {
          "internalType": "bytes",
          "name": "_data",
          "type": "bytes"
        }
      ],
      "name": "createProposal",
      "outputs": [],
      "stateMutability": "nonpayable",
      "type": "function"
    },
    {
      "inputs": [
        {
          "internalType": "uint256",
          "name": "_proposalId",
          "type": "uint256"
        },
        {
          "internalType": "enum Pools.ProposalConfirmationTypes",
          "name": "_confirmation",
          "type": "uint8"
        }
      ],
      "name": "setConfirmation",
      "outputs": [],
      "stateMutability": "nonpayable",
      "type": "function"
    },
    {
      "inputs": [
        {
          "internalType": "uint256",
          "name": "_proposalId",
          "type": "uint256"
        }
      ],
      "name": "executeProposal",
      "outputs": [],
      "stateMutability": "nonpayable",
      "type": "function"
    },
    {
      "inputs": [],
      "name": "getNumOwners",
      "outputs": [
        {
          "internalType": "uint256",
          "name": "",
          "type": "uint256"
        }
      ],
      "stateMutability": "nonpayable",
      "type": "function"
    },
    {
      "inputs": [],
      "name": "getOwners",
      "outputs": [
        {
          "internalType": "address[]",
          "name": "",
          "type": "address[]"
        }
      ],
      "stateMutability": "nonpayable",
      "type": "function"
    },
    {
      "inputs": [],
      "name": "getNumProposals",
      "outputs": [
        {
          "internalType": "uint256",
          "name": "",
          "type": "uint256"
        }
      ],
      "stateMutability": "nonpayable",
      "type": "function"
    },
    {
      "inputs": [
        {
          "internalType": "uint256",
          "name": "_proposalId",
          "type": "uint256"
        },
        {
          "internalType": "address",
          "name": "_owner",
          "type": "address"
        }
      ],
      "name": "getOwnerConfirmation",
      "outputs": [
        {
          "internalType": "enum Pools.ProposalConfirmationTypes",
          "name": "",
          "type": "uint8"
        }
      ],
      "stateMutability": "nonpayable",
      "type": "function"
    },
    {
      "inputs": [
        {
          "internalType": "uint256",
          "name": "_proposalId",
          "type": "uint256"
        },
        {
          "internalType": "enum Pools.ProposalConfirmationTypes",
          "name": "_proposalConfirmationTypes",
          "type": "uint8"
        }
      ],
      "name": "getProposalNumConfirmations",
      "outputs": [
        {
          "internalType": "uint256",
          "name": "",
          "type": "uint256"
        }
      ],
      "stateMutability": "nonpayable",
      "type": "function"
    },
    {
      "inputs": [
        {
          "internalType": "uint256",
          "name": "_proposalId",
          "type": "uint256"
        }
      ],
      "name": "getProposal",
      "outputs": [
        {
          "internalType": "address",
          "name": "",
          "type": "address"
        },
        {
          "internalType": "uint256",
          "name": "",
          "type": "uint256"
        },
        {
          "internalType": "bool",
          "name": "",
          "type": "bool"
        }
      ],
      "stateMutability": "nonpayable",
      "type": "function"
    },
    {
      "inputs": [],
      "name": "getConfirmationsRequired",
      "outputs": [
        {
          "internalType": "uint256",
          "name": "",
          "type": "uint256"
        }
      ],
      "stateMutability": "nonpayable",
      "type": "function"
    },
    {
      "inputs": [],
      "name": "getMetadata",
      "outputs": [
        {
          "internalType": "string",
          "name": "",
          "type": "string"
        }
      ],
      "stateMutability": "nonpayable",
      "type": "function"
    },
    {
      "inputs": [
        {
          "internalType": "uint256",
          "name": "_proposalId",
          "type": "uint256"
        }
      ],
      "name": "getProposalCreator",
      "outputs": [
        {
          "internalType": "address",
          "name": "",
          "type": "address"
        }
      ],
      "stateMutability": "nonpayable",
      "type": "function"
    }
  ],
  "bytecode": "0x60806040523480156200001157600080fd5b50604051620020a2380380620020a28339818101604052810190620000379190620005a5565b825160008114156200004857600080fd5b8260ff1660008110156200005b57600080fd5b8460009080519060200190620000739291906200014b565b5083600260006101000a81548160ff021916908360ff1602179055508260039080519060200190620000a7929190620001da565b5060005b85518110156200013f576001806000888481518110620000d057620000cf6200063f565b5b602002602001015173ffffffffffffffffffffffffffffffffffffffff1673ffffffffffffffffffffffffffffffffffffffff16815260200190815260200160002060006101000a81548160ff02191690831515021790555080806200013690620006a7565b915050620000ab565b5050505050506200075a565b828054828255906000526020600020908101928215620001c7579160200282015b82811115620001c65782518260006101000a81548173ffffffffffffffffffffffffffffffffffffffff021916908373ffffffffffffffffffffffffffffffffffffffff160217905550916020019190600101906200016c565b5b509050620001d691906200026b565b5090565b828054620001e89062000724565b90600052602060002090601f0160209004810192826200020c576000855562000258565b82601f106200022757805160ff191683800117855562000258565b8280016001018555821562000258579182015b82811115620002575782518255916020019190600101906200023a565b5b5090506200026791906200026b565b5090565b5b80821115620002865760008160009055506001016200026c565b5090565b6000604051905090565b600080fd5b600080fd5b600080fd5b6000601f19601f8301169050919050565b7f4e487b7100000000000000000000000000000000000000000000000000000000600052604160045260246000fd5b620002ee82620002a3565b810181811067ffffffffffffffff8211171562000310576200030f620002b4565b5b80604052505050565b6000620003256200028a565b9050620003338282620002e3565b919050565b600067ffffffffffffffff821115620003565762000355620002b4565b5b602082029050602081019050919050565b600080fd5b600073ffffffffffffffffffffffffffffffffffffffff82169050919050565b600062000399826200036c565b9050919050565b620003ab816200038c565b8114620003b757600080fd5b50565b600081519050620003cb81620003a0565b92915050565b6000620003e8620003e28462000338565b62000319565b905080838252602082019050602084028301858111156200040e576200040d62000367565b5b835b818110156200043b5780620004268882620003ba565b84526020840193505060208101905062000410565b5050509392505050565b600082601f8301126200045d576200045c6200029e565b5b81516200046f848260208601620003d1565b91505092915050565b600060ff82169050919050565b620004908162000478565b81146200049c57600080fd5b50565b600081519050620004b08162000485565b92915050565b600080fd5b600067ffffffffffffffff821115620004d957620004d8620002b4565b5b620004e482620002a3565b9050602081019050919050565b60005b8381101562000511578082015181840152602081019050620004f4565b8381111562000521576000848401525b50505050565b60006200053e6200053884620004bb565b62000319565b9050828152602081018484840111156200055d576200055c620004b6565b5b6200056a848285620004f1565b509392505050565b600082601f8301126200058a57620005896200029e565b5b81516200059c84826020860162000527565b91505092915050565b600080600060608486031215620005c157620005c062000294565b5b600084015167ffffffffffffffff811115620005e257620005e162000299565b5b620005f08682870162000445565b935050602062000603868287016200049f565b925050604084015167ffffffffffffffff81111562000627576200062662000299565b5b620006358682870162000572565b9150509250925092565b7f4e487b7100000000000000000000000000000000000000000000000000000000600052603260045260246000fd5b7f4e487b7100000000000000000000000000000000000000000000000000000000600052601160045260246000fd5b6000819050919050565b6000620006b4826200069d565b91507fffffffffffffffffffffffffffffffffffffffffffffffffffffffffffffffff821415620006ea57620006e96200066e565b5b600182019050919050565b7f4e487b7100000000000000000000000000000000000000000000000000000000600052602260045260246000fd5b600060028204905060018216806200073d57607f821691505b60208210811415620007545762000753620006f5565b5b50919050565b611938806200076a6000396000f3fe608060405234801561001057600080fd5b50600436106100b45760003560e01c8063798974dd11610071578063798974dd1461018b5780637a5b4f59146101a9578063a0e67e2b146101c7578063ab2995b9146101e5578063c7f758a814610203578063ff05d7fd14610235576100b4565b8063084bc145146100b95780630d61b519146100d557806350931cb9146100f157806350eb9321146101215780635d1941ac1461013d5780636a34ced51461016d575b600080fd5b6100d360048036038101906100ce9190610ed5565b610265565b005b6100ef60048036038101906100ea9190610f15565b61042e565b005b61010b60048036038101906101069190610fa0565b61066a565b6040516101189190611057565b60405180910390f35b61013b600480360381019061013691906111f6565b61075f565b005b61015760048036038101906101529190610ed5565b610903565b6040516101649190611274565b60405180910390f35b6101756109ce565b6040516101829190611274565b60405180910390f35b610193610a17565b6040516101a09190611274565b60405180910390f35b6101b1610a5a565b6040516101be9190611317565b60405180910390f35b6101cf610b24565b6040516101dc91906113f7565b60405180910390f35b6101ed610bea565b6040516101fa9190611274565b60405180910390f35b61021d60048036038101906102189190610f15565b610c4a565b60405161022c93929190611443565b60405180910390f35b61024f600480360381019061024a9190610f15565b610d23565b60405161025c919061147a565b60405180910390f35b33600160008273ffffffffffffffffffffffffffffffffffffffff1673ffffffffffffffffffffffffffffffffffffffff16815260200190815260200160002060009054906101000a900460ff166102bc57600080fd5b60006005600085815260200190815260200160002090508060060160008260050160003373ffffffffffffffffffffffffffffffffffffffff1673ffffffffffffffffffffffffffffffffffffffff16815260200190815260200160002060009054906101000a900460ff16600381111561033a57610339610fe0565b5b600381111561034c5761034b610fe0565b5b8152602001908152602001600020600081548092919061036b906114c4565b9190505550828160050160003373ffffffffffffffffffffffffffffffffffffffff1673ffffffffffffffffffffffffffffffffffffffff16815260200190815260200160002060006101000a81548160ff021916908360038111156103d4576103d3610fe0565b5b02179055508060060160008460038111156103f2576103f1610fe0565b5b600381111561040457610403610fe0565b5b81526020019081526020016000206000815480929190610423906114ee565b919050555050505050565b806006600082815260200190815260200160002060009054906101000a900460ff1661045957600080fd5b33600160008273ffffffffffffffffffffffffffffffffffffffff1673ffffffffffffffffffffffffffffffffffffffff16815260200190815260200160002060009054906101000a900460ff166104b057600080fd5b6000600560008581526020019081526020016000209050600260009054906101000a900460ff1660ff16816006016000600160038111156104f4576104f3610fe0565b5b600381111561050657610505610fe0565b5b815260200190815260200160002054106106645760018160030160006101000a81548160ff0219169083151502179055508060000160009054906101000a900473ffffffffffffffffffffffffffffffffffffffff1673ffffffffffffffffffffffffffffffffffffffff166108fc82600201549081150290604051600060405180830381858888f193505050501580156105a5573d6000803e3d6000fd5b5060008160000160009054906101000a900473ffffffffffffffffffffffffffffffffffffffff1673ffffffffffffffffffffffffffffffffffffffff168260020154836004016040516105f99190611637565b60006040518083038185875af1925050503d8060008114610636576040519150601f19603f3d011682016040523d82523d6000602084013e61063b565b606091505b50509050806106625760008260030160006101000a81548160ff0219169083151502179055505b505b50505050565b6000806005600085815260200190815260200160002090507fa74405d8978463e26d855fb88cf38272541410d3b76750cb3e877358b31eae228160050160008573ffffffffffffffffffffffffffffffffffffffff1673ffffffffffffffffffffffffffffffffffffffff16815260200190815260200160002060009054906101000a900460ff166040516106ff9190611057565b60405180910390a18060050160008473ffffffffffffffffffffffffffffffffffffffff1673ffffffffffffffffffffffffffffffffffffffff16815260200190815260200160002060009054906101000a900460ff1691505092915050565b33600160008273ffffffffffffffffffffffffffffffffffffffff1673ffffffffffffffffffffffffffffffffffffffff16815260200190815260200160002060009054906101000a900460ff166107b657600080fd5b600060056000600460008154809291906107cf906114ee565b9190505581526020019081526020016000209050600160066000600454815260200190815260200160002060006101000a81548160ff021916908315150217905550848160000160006101000a81548173ffffffffffffffffffffffffffffffffffffffff021916908373ffffffffffffffffffffffffffffffffffffffff16021790555083816002018190555082816004019080519060200190610875929190610dc3565b5060008054905081600601600080600381111561089557610894610fe0565b5b60038111156108a7576108a6610fe0565b5b815260200190815260200160002081905550338160010160006101000a81548173ffffffffffffffffffffffffffffffffffffffff021916908373ffffffffffffffffffffffffffffffffffffffff1602179055505050505050565b6000806005600085815260200190815260200160002090507f3c0cfb9d54b3c4232a4dd7ad8058591bcd04ef3fac7d27bdd68764836b99b97181600601600085600381111561095557610954610fe0565b5b600381111561096757610966610fe0565b5b8152602001908152602001600020546040516109839190611274565b60405180910390a18060060160008460038111156109a4576109a3610fe0565b5b60038111156109b6576109b5610fe0565b5b81526020019081526020016000205491505092915050565b60007f2fb2f52ae56eb882225a880abcdb82364b6d558dec08616d4806f466f0fe5922600080549050604051610a049190611274565b60405180910390a1600080549050905090565b60007fb7e4eacf63016bc970389606fb1598fe39493237dcf88126de973086ca0dc864600454604051610a4a9190611274565b60405180910390a1600454905090565b60607fbb14e658531b6a7527e686f0f67328036165d76ac2234ffba9698d7a651eb1c76003604051610a8c91906116e3565b60405180910390a160038054610aa190611566565b80601f0160208091040260200160405190810160405280929190818152602001828054610acd90611566565b8015610b1a5780601f10610aef57610100808354040283529160200191610b1a565b820191906000526020600020905b815481529060010190602001808311610afd57829003601f168201915b5050505050905090565b60607ff92562eabfa0b6973b6ff815bc399b9cf536c69fc160cd21b02587559d972b026000604051610b5691906117f1565b60405180910390a16000805480602002602001604051908101604052809291908181526020018280548015610be057602002820191906000526020600020905b8160009054906101000a900473ffffffffffffffffffffffffffffffffffffffff1673ffffffffffffffffffffffffffffffffffffffff1681526020019060010190808311610b96575b5050505050905090565b60007fdf2a30634de697b4d175c27ac50344714f478c80e642463403267fb8f7df9afb600260009054906101000a900460ff16604051610c2a919061185b565b60405180910390a1600260009054906101000a900460ff1660ff16905090565b6000806000806005600086815260200190815260200160002090507f04f09f5329ce1640e228ee97d32be2a88d91bdfcaf56e3b11a328cd1c75ae62a8160000160009054906101000a900473ffffffffffffffffffffffffffffffffffffffff1682600201548360030160009054906101000a900460ff16604051610cd1939291906118cb565b60405180910390a18060000160009054906101000a900473ffffffffffffffffffffffffffffffffffffffff1681600201548260030160009054906101000a900460ff16935093509350509193909250565b6000806005600084815260200190815260200160002090507f5a95febda9550e90ab420ee7d418753c6f22278adc925da2763027cc1f5e056d8160010160009054906101000a900473ffffffffffffffffffffffffffffffffffffffff16604051610d8e919061147a565b60405180910390a18060010160009054906101000a900473ffffffffffffffffffffffffffffffffffffffff16915050919050565b828054610dcf90611566565b90600052602060002090601f016020900481019282610df15760008555610e38565b82601f10610e0a57805160ff1916838001178555610e38565b82800160010185558215610e38579182015b82811115610e37578251825591602001919060010190610e1c565b5b509050610e459190610e49565b5090565b5b80821115610e62576000816000905550600101610e4a565b5090565b6000604051905090565b600080fd5b600080fd5b6000819050919050565b610e8d81610e7a565b8114610e9857600080fd5b50565b600081359050610eaa81610e84565b92915050565b60048110610ebd57600080fd5b50565b600081359050610ecf81610eb0565b92915050565b60008060408385031215610eec57610eeb610e70565b5b6000610efa85828601610e9b565b9250506020610f0b85828601610ec0565b9150509250929050565b600060208284031215610f2b57610f2a610e70565b5b6000610f3984828501610e9b565b91505092915050565b600073ffffffffffffffffffffffffffffffffffffffff82169050919050565b6000610f6d82610f42565b9050919050565b610f7d81610f62565b8114610f8857600080fd5b50565b600081359050610f9a81610f74565b92915050565b60008060408385031215610fb757610fb6610e70565b5b6000610fc585828601610e9b565b9250506020610fd685828601610f8b565b9150509250929050565b7f4e487b7100000000000000000000000000000000000000000000000000000000600052602160045260246000fd5b600481106110205761101f610fe0565b5b50565b60008190506110318261100f565b919050565b600061104182611023565b9050919050565b61105181611036565b82525050565b600060208201905061106c6000830184611048565b92915050565b600061107d82610f42565b9050919050565b61108d81611072565b811461109857600080fd5b50565b6000813590506110aa81611084565b92915050565b600080fd5b600080fd5b6000601f19601f8301169050919050565b7f4e487b7100000000000000000000000000000000000000000000000000000000600052604160045260246000fd5b611103826110ba565b810181811067ffffffffffffffff82111715611122576111216110cb565b5b80604052505050565b6000611135610e66565b905061114182826110fa565b919050565b600067ffffffffffffffff821115611161576111606110cb565b5b61116a826110ba565b9050602081019050919050565b82818337600083830152505050565b600061119961119484611146565b61112b565b9050828152602081018484840111156111b5576111b46110b5565b5b6111c0848285611177565b509392505050565b600082601f8301126111dd576111dc6110b0565b5b81356111ed848260208601611186565b91505092915050565b60008060006060848603121561120f5761120e610e70565b5b600061121d8682870161109b565b935050602061122e86828701610e9b565b925050604084013567ffffffffffffffff81111561124f5761124e610e75565b5b61125b868287016111c8565b9150509250925092565b61126e81610e7a565b82525050565b60006020820190506112896000830184611265565b92915050565b600081519050919050565b600082825260208201905092915050565b60005b838110156112c95780820151818401526020810190506112ae565b838111156112d8576000848401525b50505050565b60006112e98261128f565b6112f3818561129a565b93506113038185602086016112ab565b61130c816110ba565b840191505092915050565b6000602082019050818103600083015261133181846112de565b905092915050565b600081519050919050565b600082825260208201905092915050565b6000819050602082019050919050565b61136e81610f62565b82525050565b60006113808383611365565b60208301905092915050565b6000602082019050919050565b60006113a482611339565b6113ae8185611344565b93506113b983611355565b8060005b838110156113ea5781516113d18882611374565b97506113dc8361138c565b9250506001810190506113bd565b5085935050505092915050565b600060208201905081810360008301526114118184611399565b905092915050565b61142281610f62565b82525050565b60008115159050919050565b61143d81611428565b82525050565b60006060820190506114586000830186611419565b6114656020830185611265565b6114726040830184611434565b949350505050565b600060208201905061148f6000830184611419565b92915050565b7f4e487b7100000000000000000000000000000000000000000000000000000000600052601160045260246000fd5b60006114cf82610e7a565b915060008214156114e3576114e2611495565b5b600182039050919050565b60006114f982610e7a565b91507fffffffffffffffffffffffffffffffffffffffffffffffffffffffffffffffff82141561152c5761152b611495565b5b600182019050919050565b7f4e487b7100000000000000000000000000000000000000000000000000000000600052602260045260246000fd5b6000600282049050600182168061157e57607f821691505b6020821081141561159257611591611537565b5b50919050565b600081905092915050565b60008190508160005260206000209050919050565b600081546115c581611566565b6115cf8186611598565b945060018216600081146115ea57600181146115fb5761162e565b60ff1983168652818601935061162e565b611604856115a3565b60005b8381101561162657815481890152600182019150602081019050611607565b838801955050505b50505092915050565b600061164382846115b8565b915081905092915050565b60008190508160005260206000209050919050565b6000815461167081611566565b61167a818661129a565b9450600182166000811461169557600181146116a7576116da565b60ff19831686526020860193506116da565b6116b08561164e565b60005b838110156116d2578154818901526001820191506020810190506116b3565b808801955050505b50505092915050565b600060208201905081810360008301526116fd8184611663565b905092915050565b600081549050919050565b60008190508160005260206000209050919050565b60008160001c9050919050565b600073ffffffffffffffffffffffffffffffffffffffff82169050919050565b600061176561176083611725565b611732565b9050919050565b60006117788254611752565b9050919050565b6000600182019050919050565b600061179782611705565b6117a18185611344565b93506117ac83611710565b8060005b838110156117e4576117c18261176c565b6117cb8882611374565b97506117d68361177f565b9250506001810190506117b0565b5085935050505092915050565b6000602082019050818103600083015261180b818461178c565b905092915050565b600060ff82169050919050565b6000819050919050565b600061184561184061183b84611813565b611820565b610e7a565b9050919050565b6118558161182a565b82525050565b6000602082019050611870600083018461184c565b92915050565b600061189161188c61188784610f42565b611820565b610f42565b9050919050565b60006118a382611876565b9050919050565b60006118b582611898565b9050919050565b6118c5816118aa565b82525050565b60006060820190506118e060008301866118bc565b6118ed6020830185611265565b6118fa6040830184611434565b94935050505056fea26469706673582212205480049e3bc6f0f135a051e5d027f8a38e698726984a30b25279d68f1ffc8f1064736f6c634300080a0033",
  "immutableReferences": {},
  "source": "// SPDX-License-Identifier: MIT\npragma solidity ^0.8.7;\n\ncontract Pools {\n\t\n\t\n\tenum ProposalConfirmationTypes { UNDECIDED, YES, NO, ABSTAIN }\n\t\n\tstruct Proposal {\n\t\taddress payable destination;\n\t\taddress creator;\n\t\tuint amount;\n\t\tbool executed;\n\t\tbytes data;\n\t\tmapping(address => ProposalConfirmationTypes) confirmations;\n\t\tmapping(ProposalConfirmationTypes => uint) numConfirmations;\n\t}\n\t\n\taddress[] private owners;\n\tmapping(address => bool) private isOwner;\n\n\tuint8 private confirmationsRequired;\n\tstring private metadata;\n\t\n\tuint private numProposals;\n\tmapping(uint => Proposal) private proposals;\n\tmapping(uint => bool) private isProposal;\n\taddress proposalCreator;\n\n\tevent ownersCount(uint _count);\n\tevent getAllOwners(address[] _owners);\n\tevent proposalCount(uint _count);\n\tevent ownerConfirmationTypes(ProposalConfirmationTypes _confirmationTypes);\n\tevent proposalConfirmationCount(uint _count);\n\tevent proposalInfo(address _destionation, uint _amount, bool _executed);\n\tevent confirmationRequiredCount(uint _count);\n\tevent metadataInfo(string _metadata);\n\tevent proposalCreatedBy(address _creator);\n\n\n\tmodifier validNumOfOwners(uint _ownerCount) {\n\t\trequire(_ownerCount != 0);\n\t\t_;\n\t}\n\n\tmodifier validConfirmationsRequired(uint _confirmationsRequired) {\n\t\trequire(_confirmationsRequired >= 0);\n\t\t_;\n\t}\n\n\tmodifier proposalExists(uint _proposalId) {\n\t\trequire(isProposal[_proposalId]);\n\t\t_;\n\t}\n\n\tmodifier ownerExists(address _owner) {\n\t\trequire(isOwner[_owner]);\n\t\t_;\n\t}\n\n\tconstructor(address[] memory _owners, uint8 _confirmationsRequired, string memory _metadata) \n\n\t\tvalidNumOfOwners(_owners.length)\n\t\tvalidConfirmationsRequired(_confirmationsRequired)\n\t{\n        // require(_owners[0] == msg.sender);\n\t\towners = _owners;\n\t\tconfirmationsRequired = _confirmationsRequired;\n\t\tmetadata = _metadata;\n\t\tfor(uint i = 0; i < _owners.length; i++) {\n\t\t\tisOwner[_owners[i]] = true;\n\t\t}\n\t}\n\t\n\tfunction createProposal(address payable _destination, uint _amount, bytes memory _data) \n\t\tpublic\n\t\townerExists(msg.sender)\n\t{\n\t\tProposal storage proposal = proposals[numProposals++];\n\t\tisProposal[numProposals] = true;\n\t\tproposal.destination = _destination;\n\t\tproposal.amount = _amount;\n\t\tproposal.data = _data;\n\t\tproposal.numConfirmations[ProposalConfirmationTypes.UNDECIDED] = owners.length;\n\t\tproposal.creator = msg.sender;\n\t}\n\t\n\tfunction setConfirmation(uint _proposalId, ProposalConfirmationTypes _confirmation) \n\t\tpublic \n\t\townerExists(msg.sender)\n\t{\n    Proposal storage proposal = proposals[_proposalId];\n\t\tproposal.numConfirmations[proposal.confirmations[msg.sender]]--;\n\t\tproposal.confirmations[msg.sender] = _confirmation;\n\t\tproposal.numConfirmations[_confirmation]++;\n\t}\n\t\n\tfunction executeProposal(uint _proposalId) \n\t\tpublic \n\t\tproposalExists(_proposalId)\n\t\townerExists(msg.sender)\n\t{\n    Proposal storage proposal = proposals[_proposalId];\n\t\tif (proposal.numConfirmations[ProposalConfirmationTypes.YES] >= confirmationsRequired) {\n\t\t\tproposal.executed = true;\n\t\t\tproposal.destination.transfer(proposal.amount);\n\t\t\t(bool success, ) = proposal.destination.call{value: proposal.amount}(proposal.data);\n\t\t\tif (!success) {\n\t\t\t\tproposal.executed = false;\n\t\t\t}\n\t\t}\n\t}\n\n\t// getters \n\tfunction getNumOwners() public returns (uint) {\n\t\temit ownersCount(owners.length);\n\t\treturn owners.length;\n\t}\n\t\n\tfunction getOwners() public returns (address[] memory) {\n\t\temit getAllOwners(owners);\n\t\treturn owners;\n\t}\n\t\n\tfunction getNumProposals() public returns (uint) {\n\t\temit proposalCount(numProposals);\n\t\treturn numProposals;\n\t}\n\t\n\tfunction getOwnerConfirmation(uint _proposalId, address _owner) public returns (ProposalConfirmationTypes) {\n\t\tProposal storage proposal = proposals[_proposalId];\n\t\temit ownerConfirmationTypes(proposal.confirmations[_owner]);\n\t\treturn proposal.confirmations[_owner];\n\t}\n\t\n\tfunction getProposalNumConfirmations(uint _proposalId, ProposalConfirmationTypes _proposalConfirmationTypes) public returns (uint) {\n\t\tProposal storage proposal = proposals[_proposalId];\n\t\temit proposalConfirmationCount(proposal.numConfirmations[_proposalConfirmationTypes]);\n\t\treturn proposal.numConfirmations[_proposalConfirmationTypes];\n\t}\n\t\t\n\tfunction getProposal(uint _proposalId) public returns (address, uint, bool) {\n\t\tProposal storage proposal = proposals[_proposalId];\n\t\temit proposalInfo(proposal.destination, proposal.amount, proposal.executed);\n\t\treturn (proposal.destination, proposal.amount, proposal.executed);\n\t}\n\t\t\n\tfunction getConfirmationsRequired() public returns (uint) {\n\t\temit confirmationRequiredCount(confirmationsRequired);\n\t\treturn confirmationsRequired;\n\t}\n\t\n\tfunction getMetadata() public returns (string memory) {\n\t\temit metadataInfo(metadata);\n\t\treturn metadata;\n\t}\n\n\tfunction getProposalCreator(uint _proposalId) public returns (address) {\n\t\tProposal storage proposal = proposals[_proposalId];\n\t\temit proposalCreatedBy(proposal.creator);\n\t\treturn proposal.creator;\n\t}\n}\n",
  "sourcePath": "/Users/KellyIzKewl/1pools/contracts/Pools.sol",
  "compiler": {
    "name": "solc",
    "version": "0.8.10+commit.fc410830.Emscripten.clang"
  },
  "schemaVersion": "3.4.4",
  "updatedAt": "2022-01-10T09:50:55.265Z",
  "devdoc": {
    "kind": "dev",
    "methods": {},
    "version": 1
  },
  "userdoc": {
    "kind": "user",
    "methods": {},
    "version": 1
  }
}