{
  "contractName": "Pools",
  "abi": [
    {
      "inputs": [
        {
          "internalType": "address[]",
          "name": "_owners",
          "type": "address[]"
        },
        {
          "internalType": "uint8",
          "name": "_confirmationsRequired",
          "type": "uint8"
        },
        {
          "internalType": "string",
          "name": "_metadata",
          "type": "string"
        },
        {
          "internalType": "uint256",
          "name": "_ttl",
          "type": "uint256"
        }
      ],
      "stateMutability": "nonpayable",
      "type": "constructor"
    },
    {
      "inputs": [
        {
          "internalType": "address payable",
          "name": "_destination",
          "type": "address"
        },
        {
          "internalType": "uint256",
          "name": "_amount",
          "type": "uint256"
        },
        {
          "internalType": "bytes",
          "name": "_data",
          "type": "bytes"
        }
      ],
      "name": "createProposal",
      "outputs": [],
      "stateMutability": "nonpayable",
      "type": "function"
    },
    {
      "inputs": [
        {
          "internalType": "uint256",
          "name": "_proposalId",
          "type": "uint256"
        },
        {
          "internalType": "enum Pools.ProposalConfirmationTypes",
          "name": "_confirmation",
          "type": "uint8"
        }
      ],
      "name": "setConfirmation",
      "outputs": [],
      "stateMutability": "payable",
      "type": "function"
    },
    {
      "inputs": [
        {
          "internalType": "uint256",
          "name": "_proposalId",
          "type": "uint256"
        }
      ],
      "name": "executeProposal",
      "outputs": [],
      "stateMutability": "payable",
      "type": "function"
    },
    {
      "inputs": [],
      "name": "getNumOwners",
      "outputs": [
        {
          "internalType": "uint256",
          "name": "",
          "type": "uint256"
        }
      ],
      "stateMutability": "view",
      "type": "function"
    },
    {
      "inputs": [],
      "name": "getOwners",
      "outputs": [
        {
          "internalType": "address[]",
          "name": "",
          "type": "address[]"
        }
      ],
      "stateMutability": "view",
      "type": "function"
    },
    {
      "inputs": [],
      "name": "getNumProposals",
      "outputs": [
        {
          "internalType": "uint256",
          "name": "",
          "type": "uint256"
        }
      ],
      "stateMutability": "view",
      "type": "function"
    },
    {
      "inputs": [
        {
          "internalType": "uint256",
          "name": "_proposalId",
          "type": "uint256"
        },
        {
          "internalType": "address",
          "name": "_owner",
          "type": "address"
        }
      ],
      "name": "getOwnerConfirmation",
      "outputs": [
        {
          "internalType": "enum Pools.ProposalConfirmationTypes",
          "name": "",
          "type": "uint8"
        }
      ],
      "stateMutability": "view",
      "type": "function"
    },
    {
      "inputs": [
        {
          "internalType": "uint256",
          "name": "_proposalId",
          "type": "uint256"
        },
        {
          "internalType": "enum Pools.ProposalConfirmationTypes",
          "name": "_proposalConfirmationTypes",
          "type": "uint8"
        }
      ],
      "name": "getProposalNumConfirmations",
      "outputs": [
        {
          "internalType": "uint256",
          "name": "",
          "type": "uint256"
        }
      ],
      "stateMutability": "view",
      "type": "function"
    },
    {
      "inputs": [
        {
          "internalType": "uint256",
          "name": "_proposalId",
          "type": "uint256"
        }
      ],
      "name": "getProposal",
      "outputs": [
        {
          "internalType": "address",
          "name": "",
          "type": "address"
        },
        {
          "internalType": "uint256",
          "name": "",
          "type": "uint256"
        },
        {
          "internalType": "bool",
          "name": "",
          "type": "bool"
        }
      ],
      "stateMutability": "view",
      "type": "function"
    },
    {
      "inputs": [
        {
          "internalType": "uint256",
          "name": "_proposalId",
          "type": "uint256"
        }
      ],
      "name": "getProposalCreatedTime",
      "outputs": [
        {
          "internalType": "uint256",
          "name": "",
          "type": "uint256"
        }
      ],
      "stateMutability": "view",
      "type": "function"
    },
    {
      "inputs": [],
      "name": "getConfirmationsRequired",
      "outputs": [
        {
          "internalType": "uint256",
          "name": "",
          "type": "uint256"
        }
      ],
      "stateMutability": "view",
      "type": "function"
    },
    {
      "inputs": [],
      "name": "getMetadata",
      "outputs": [
        {
          "internalType": "string",
          "name": "",
          "type": "string"
        }
      ],
      "stateMutability": "view",
      "type": "function"
    },
    {
      "inputs": [
        {
          "internalType": "uint256",
          "name": "_proposalId",
          "type": "uint256"
        }
      ],
      "name": "getProposalCreator",
      "outputs": [
        {
          "internalType": "address",
          "name": "",
          "type": "address"
        }
      ],
      "stateMutability": "view",
      "type": "function"
    },
    {
      "inputs": [],
      "name": "getPoolCreatedTime",
      "outputs": [
        {
          "internalType": "uint256",
          "name": "",
          "type": "uint256"
        }
      ],
      "stateMutability": "view",
      "type": "function"
    },
    {
      "inputs": [],
      "name": "getPoolTTL",
      "outputs": [
        {
          "internalType": "uint256",
          "name": "",
          "type": "uint256"
        }
      ],
      "stateMutability": "view",
      "type": "function"
    }
  ],
  "bytecode": "0x60806040523480156200001157600080fd5b5060405162001ddd38038062001ddd8339818101604052810190620000379190620005ff565b835160008114156200004857600080fd5b8360ff1660008110156200005b57600080fd5b82600081116200006a57600080fd5b8660009080519060200190620000829291906200016a565b5085600260006101000a81548160ff021916908360ff1602179055508460039080519060200190620000b6929190620001f9565b50836004819055504260058190555060005b87518110156200015c5760018060008a8481518110620000ed57620000ec620006af565b5b602002602001015173ffffffffffffffffffffffffffffffffffffffff1673ffffffffffffffffffffffffffffffffffffffff16815260200190815260200160002060006101000a81548160ff021916908315150217905550808062000153906200070d565b915050620000c8565b5050505050505050620007c0565b828054828255906000526020600020908101928215620001e6579160200282015b82811115620001e55782518260006101000a81548173ffffffffffffffffffffffffffffffffffffffff021916908373ffffffffffffffffffffffffffffffffffffffff160217905550916020019190600101906200018b565b5b509050620001f591906200028a565b5090565b82805462000207906200078a565b90600052602060002090601f0160209004810192826200022b576000855562000277565b82601f106200024657805160ff191683800117855562000277565b8280016001018555821562000277579182015b828111156200027657825182559160200191906001019062000259565b5b5090506200028691906200028a565b5090565b5b80821115620002a55760008160009055506001016200028b565b5090565b6000604051905090565b600080fd5b600080fd5b600080fd5b6000601f19601f8301169050919050565b7f4e487b7100000000000000000000000000000000000000000000000000000000600052604160045260246000fd5b6200030d82620002c2565b810181811067ffffffffffffffff821117156200032f576200032e620002d3565b5b80604052505050565b600062000344620002a9565b905062000352828262000302565b919050565b600067ffffffffffffffff821115620003755762000374620002d3565b5b602082029050602081019050919050565b600080fd5b600073ffffffffffffffffffffffffffffffffffffffff82169050919050565b6000620003b8826200038b565b9050919050565b620003ca81620003ab565b8114620003d657600080fd5b50565b600081519050620003ea81620003bf565b92915050565b600062000407620004018462000357565b62000338565b905080838252602082019050602084028301858111156200042d576200042c62000386565b5b835b818110156200045a5780620004458882620003d9565b8452602084019350506020810190506200042f565b5050509392505050565b600082601f8301126200047c576200047b620002bd565b5b81516200048e848260208601620003f0565b91505092915050565b600060ff82169050919050565b620004af8162000497565b8114620004bb57600080fd5b50565b600081519050620004cf81620004a4565b92915050565b600080fd5b600067ffffffffffffffff821115620004f857620004f7620002d3565b5b6200050382620002c2565b9050602081019050919050565b60005b838110156200053057808201518184015260208101905062000513565b8381111562000540576000848401525b50505050565b60006200055d6200055784620004da565b62000338565b9050828152602081018484840111156200057c576200057b620004d5565b5b6200058984828562000510565b509392505050565b600082601f830112620005a957620005a8620002bd565b5b8151620005bb84826020860162000546565b91505092915050565b6000819050919050565b620005d981620005c4565b8114620005e557600080fd5b50565b600081519050620005f981620005ce565b92915050565b600080600080608085870312156200061c576200061b620002b3565b5b600085015167ffffffffffffffff8111156200063d576200063c620002b8565b5b6200064b8782880162000464565b94505060206200065e87828801620004be565b935050604085015167ffffffffffffffff811115620006825762000681620002b8565b5b620006908782880162000591565b9250506060620006a387828801620005e8565b91505092959194509250565b7f4e487b7100000000000000000000000000000000000000000000000000000000600052603260045260246000fd5b7f4e487b7100000000000000000000000000000000000000000000000000000000600052601160045260246000fd5b60006200071a82620005c4565b91507fffffffffffffffffffffffffffffffffffffffffffffffffffffffffffffffff82141562000750576200074f620006de565b5b600182019050919050565b7f4e487b7100000000000000000000000000000000000000000000000000000000600052602260045260246000fd5b60006002820490506001821680620007a357607f821691505b60208210811415620007ba57620007b96200075b565b5b50919050565b61160d80620007d06000396000f3fe6080604052600436106100e85760003560e01c80636f56dd891161008a578063ab2995b911610059578063ab2995b9146102ca578063c7f758a8146102f5578063e01e089914610334578063ff05d7fd14610371576100e8565b80636f56dd891461021e578063798974dd146102495780637a5b4f5914610274578063a0e67e2b1461029f576100e8565b806350931cb9116100c657806350931cb91461015057806350eb93211461018d5780635d1941ac146101b65780636a34ced5146101f3576100e8565b8063084bc145146100ed5780630d61b5191461010957806313f2785114610125575b600080fd5b61010760048036038101906101029190610dae565b6103ae565b005b610123600480360381019061011e9190610dee565b610577565b005b34801561013157600080fd5b5061013a6107b3565b6040516101479190610e2a565b60405180910390f35b34801561015c57600080fd5b5061017760048036038101906101729190610ea3565b6107bd565b6040516101849190610f5a565b60405180910390f35b34801561019957600080fd5b506101b460048036038101906101af91906110f9565b61082d565b005b3480156101c257600080fd5b506101dd60048036038101906101d89190610dae565b610a18565b6040516101ea9190610e2a565b60405180910390f35b3480156101ff57600080fd5b50610208610a73565b6040516102159190610e2a565b60405180910390f35b34801561022a57600080fd5b50610233610a7f565b6040516102409190610e2a565b60405180910390f35b34801561025557600080fd5b5061025e610a89565b60405161026b9190610e2a565b60405180910390f35b34801561028057600080fd5b50610289610a93565b60405161029691906111f0565b60405180910390f35b3480156102ab57600080fd5b506102b4610b25565b6040516102c191906112d0565b60405180910390f35b3480156102d657600080fd5b506102df610bb3565b6040516102ec9190610e2a565b60405180910390f35b34801561030157600080fd5b5061031c60048036038101906103179190610dee565b610bcd565b60405161032b9392919061131c565b60405180910390f35b34801561034057600080fd5b5061035b60048036038101906103569190610dee565b610c32565b6040516103689190610e2a565b60405180910390f35b34801561037d57600080fd5b5061039860048036038101906103939190610dee565b610c57565b6040516103a59190611353565b60405180910390f35b33600160008273ffffffffffffffffffffffffffffffffffffffff1673ffffffffffffffffffffffffffffffffffffffff16815260200190815260200160002060009054906101000a900460ff1661040557600080fd5b60006007600085815260200190815260200160002090508060070160008260060160003373ffffffffffffffffffffffffffffffffffffffff1673ffffffffffffffffffffffffffffffffffffffff16815260200190815260200160002060009054906101000a900460ff16600381111561048357610482610ee3565b5b600381111561049557610494610ee3565b5b815260200190815260200160002060008154809291906104b49061139d565b9190505550828160060160003373ffffffffffffffffffffffffffffffffffffffff1673ffffffffffffffffffffffffffffffffffffffff16815260200190815260200160002060006101000a81548160ff0219169083600381111561051d5761051c610ee3565b5b021790555080600701600084600381111561053b5761053a610ee3565b5b600381111561054d5761054c610ee3565b5b8152602001908152602001600020600081548092919061056c906113c7565b919050555050505050565b806008600082815260200190815260200160002060009054906101000a900460ff166105a257600080fd5b33600160008273ffffffffffffffffffffffffffffffffffffffff1673ffffffffffffffffffffffffffffffffffffffff16815260200190815260200160002060009054906101000a900460ff166105f957600080fd5b6000600760008581526020019081526020016000209050600260009054906101000a900460ff1660ff168160070160006001600381111561063d5761063c610ee3565b5b600381111561064f5761064e610ee3565b5b815260200190815260200160002054106107ad5760018160040160006101000a81548160ff0219169083151502179055508060010160009054906101000a900473ffffffffffffffffffffffffffffffffffffffff1673ffffffffffffffffffffffffffffffffffffffff166108fc82600301549081150290604051600060405180830381858888f193505050501580156106ee573d6000803e3d6000fd5b5060008160010160009054906101000a900473ffffffffffffffffffffffffffffffffffffffff1673ffffffffffffffffffffffffffffffffffffffff168260030154836005016040516107429190611510565b60006040518083038185875af1925050503d806000811461077f576040519150601f19603f3d011682016040523d82523d6000602084013e610784565b606091505b50509050806107ab5760008260040160006101000a81548160ff0219169083151502179055505b505b50505050565b6000600554905090565b6000806007600085815260200190815260200160002090508060060160008473ffffffffffffffffffffffffffffffffffffffff1673ffffffffffffffffffffffffffffffffffffffff16815260200190815260200160002060009054906101000a900460ff1691505092915050565b33600160008273ffffffffffffffffffffffffffffffffffffffff1673ffffffffffffffffffffffffffffffffffffffff16815260200190815260200160002060009054906101000a900460ff1661088457600080fd5b600554603c8060186004546108999190611527565b6108a39190611527565b6108ad9190611527565b6108b79190611581565b42116108c257600080fd5b600060076000600660008154809291906108db906113c7565b9190505581526020019081526020016000209050600160086000600654815260200190815260200160002060006101000a81548160ff021916908315150217905550848160010160006101000a81548173ffffffffffffffffffffffffffffffffffffffff021916908373ffffffffffffffffffffffffffffffffffffffff16021790555083816003018190555082816005019080519060200190610981929190610c9c565b506000805490508160070160008060038111156109a1576109a0610ee3565b5b60038111156109b3576109b2610ee3565b5b815260200190815260200160002081905550338160020160006101000a81548173ffffffffffffffffffffffffffffffffffffffff021916908373ffffffffffffffffffffffffffffffffffffffff1602179055504281600001819055505050505050565b600080600760008581526020019081526020016000209050806007016000846003811115610a4957610a48610ee3565b5b6003811115610a5b57610a5a610ee3565b5b81526020019081526020016000205491505092915050565b60008080549050905090565b6000600454905090565b6000600654905090565b606060038054610aa29061143f565b80601f0160208091040260200160405190810160405280929190818152602001828054610ace9061143f565b8015610b1b5780601f10610af057610100808354040283529160200191610b1b565b820191906000526020600020905b815481529060010190602001808311610afe57829003601f168201915b5050505050905090565b60606000805480602002602001604051908101604052809291908181526020018280548015610ba957602002820191906000526020600020905b8160009054906101000a900473ffffffffffffffffffffffffffffffffffffffff1673ffffffffffffffffffffffffffffffffffffffff1681526020019060010190808311610b5f575b5050505050905090565b6000600260009054906101000a900460ff1660ff16905090565b6000806000806007600086815260200190815260200160002090508060010160009054906101000a900473ffffffffffffffffffffffffffffffffffffffff1681600301548260040160009054906101000a900460ff16935093509350509193909250565b6000806007600084815260200190815260200160002090508060000154915050919050565b6000806007600084815260200190815260200160002090508060020160009054906101000a900473ffffffffffffffffffffffffffffffffffffffff16915050919050565b828054610ca89061143f565b90600052602060002090601f016020900481019282610cca5760008555610d11565b82601f10610ce357805160ff1916838001178555610d11565b82800160010185558215610d11579182015b82811115610d10578251825591602001919060010190610cf5565b5b509050610d1e9190610d22565b5090565b5b80821115610d3b576000816000905550600101610d23565b5090565b6000604051905090565b600080fd5b600080fd5b6000819050919050565b610d6681610d53565b8114610d7157600080fd5b50565b600081359050610d8381610d5d565b92915050565b60048110610d9657600080fd5b50565b600081359050610da881610d89565b92915050565b60008060408385031215610dc557610dc4610d49565b5b6000610dd385828601610d74565b9250506020610de485828601610d99565b9150509250929050565b600060208284031215610e0457610e03610d49565b5b6000610e1284828501610d74565b91505092915050565b610e2481610d53565b82525050565b6000602082019050610e3f6000830184610e1b565b92915050565b600073ffffffffffffffffffffffffffffffffffffffff82169050919050565b6000610e7082610e45565b9050919050565b610e8081610e65565b8114610e8b57600080fd5b50565b600081359050610e9d81610e77565b92915050565b60008060408385031215610eba57610eb9610d49565b5b6000610ec885828601610d74565b9250506020610ed985828601610e8e565b9150509250929050565b7f4e487b7100000000000000000000000000000000000000000000000000000000600052602160045260246000fd5b60048110610f2357610f22610ee3565b5b50565b6000819050610f3482610f12565b919050565b6000610f4482610f26565b9050919050565b610f5481610f39565b82525050565b6000602082019050610f6f6000830184610f4b565b92915050565b6000610f8082610e45565b9050919050565b610f9081610f75565b8114610f9b57600080fd5b50565b600081359050610fad81610f87565b92915050565b600080fd5b600080fd5b6000601f19601f8301169050919050565b7f4e487b7100000000000000000000000000000000000000000000000000000000600052604160045260246000fd5b61100682610fbd565b810181811067ffffffffffffffff8211171561102557611024610fce565b5b80604052505050565b6000611038610d3f565b90506110448282610ffd565b919050565b600067ffffffffffffffff82111561106457611063610fce565b5b61106d82610fbd565b9050602081019050919050565b82818337600083830152505050565b600061109c61109784611049565b61102e565b9050828152602081018484840111156110b8576110b7610fb8565b5b6110c384828561107a565b509392505050565b600082601f8301126110e0576110df610fb3565b5b81356110f0848260208601611089565b91505092915050565b60008060006060848603121561111257611111610d49565b5b600061112086828701610f9e565b935050602061113186828701610d74565b925050604084013567ffffffffffffffff81111561115257611151610d4e565b5b61115e868287016110cb565b9150509250925092565b600081519050919050565b600082825260208201905092915050565b60005b838110156111a2578082015181840152602081019050611187565b838111156111b1576000848401525b50505050565b60006111c282611168565b6111cc8185611173565b93506111dc818560208601611184565b6111e581610fbd565b840191505092915050565b6000602082019050818103600083015261120a81846111b7565b905092915050565b600081519050919050565b600082825260208201905092915050565b6000819050602082019050919050565b61124781610e65565b82525050565b6000611259838361123e565b60208301905092915050565b6000602082019050919050565b600061127d82611212565b611287818561121d565b93506112928361122e565b8060005b838110156112c35781516112aa888261124d565b97506112b583611265565b925050600181019050611296565b5085935050505092915050565b600060208201905081810360008301526112ea8184611272565b905092915050565b6112fb81610e65565b82525050565b60008115159050919050565b61131681611301565b82525050565b600060608201905061133160008301866112f2565b61133e6020830185610e1b565b61134b604083018461130d565b949350505050565b600060208201905061136860008301846112f2565b92915050565b7f4e487b7100000000000000000000000000000000000000000000000000000000600052601160045260246000fd5b60006113a882610d53565b915060008214156113bc576113bb61136e565b5b600182039050919050565b60006113d282610d53565b91507fffffffffffffffffffffffffffffffffffffffffffffffffffffffffffffffff8214156114055761140461136e565b5b600182019050919050565b7f4e487b7100000000000000000000000000000000000000000000000000000000600052602260045260246000fd5b6000600282049050600182168061145757607f821691505b6020821081141561146b5761146a611410565b5b50919050565b600081905092915050565b60008190508160005260206000209050919050565b6000815461149e8161143f565b6114a88186611471565b945060018216600081146114c357600181146114d457611507565b60ff19831686528186019350611507565b6114dd8561147c565b60005b838110156114ff578154818901526001820191506020810190506114e0565b838801955050505b50505092915050565b600061151c8284611491565b915081905092915050565b600061153282610d53565b915061153d83610d53565b9250817fffffffffffffffffffffffffffffffffffffffffffffffffffffffffffffffff04831182151516156115765761157561136e565b5b828202905092915050565b600061158c82610d53565b915061159783610d53565b9250827fffffffffffffffffffffffffffffffffffffffffffffffffffffffffffffffff038211156115cc576115cb61136e565b5b82820190509291505056fea264697066735822122021fba73d6b04c6481f9ff8e1ea2fb89ea6fc6850b9bfa53e7f327850922f3afe64736f6c634300080a0033",
  "immutableReferences": {},
  "source": "// SPDX-License-Identifier: MIT\npragma solidity ^0.8.7;\n\ncontract Pools {\n\t\n\t\n\tenum ProposalConfirmationTypes { UNDECIDED, YES, NO, ABSTAIN }\n\t\n\tstruct Proposal {\n\t\tuint256 creationTime;\n\t\taddress payable destination;\n\t\taddress creator;\n\t\tuint amount;\n\t\tbool executed;\n\t\tbytes data;\n\t\tmapping(address => ProposalConfirmationTypes) confirmations;\n\t\tmapping(ProposalConfirmationTypes => uint) numConfirmations;\n\t}\n\t\n\taddress[] private owners;\n\tmapping(address => bool) private isOwner;\n\n\tuint8 private confirmationsRequired;\n\tstring private metadata;\n\n\tuint256 private poolTTL; //current pool's time to live measured by days\n\tuint256 private poolCreationTime;\n\n\tuint private numProposals;\n\tmapping(uint => Proposal) private proposals;\n\tmapping(uint => bool) private isProposal;\n\n\tmodifier validNumOfOwners(uint _ownerCount) {\n\t\trequire(_ownerCount != 0);\n\t\t_;\n\t}\n\n\tmodifier validConfirmationsRequired(uint _confirmationsRequired) {\n\t\trequire(_confirmationsRequired >= 0);\n\t\t_;\n\t}\n\n\tmodifier validTTL(uint256 _ttl) {\n\t\trequire(_ttl > 0);\n\t\t_;\n\t}\n\n\tmodifier validPoolTimeWindow() {\n\t\trequire(block.timestamp > (poolTTL * 24 * 60 * 60 + poolCreationTime));\n\t\t_;\n\t}\n\n\tmodifier proposalExists(uint _proposalId) {\n\t\trequire(isProposal[_proposalId]);\n\t\t_;\n\t}\n\n\tmodifier ownerExists(address _owner) {\n\t\trequire(isOwner[_owner]);\n\t\t_;\n\t} \n\n\tconstructor(address[] memory _owners, uint8 _confirmationsRequired, string memory _metadata, uint256 _ttl) \n\n\t\tvalidNumOfOwners(_owners.length)\n\t\tvalidConfirmationsRequired(_confirmationsRequired)\n\t\tvalidTTL(_ttl)\n\t{\n\t\towners = _owners;\n\t\tconfirmationsRequired = _confirmationsRequired;\n\t\tmetadata = _metadata;\n\t\tpoolTTL = _ttl;\n\t\tpoolCreationTime = block.timestamp;\n\n\t\tfor(uint i = 0; i < _owners.length; i++) {\n\t\t\tisOwner[_owners[i]] = true;\n\t\t}\n\t}\n\t\n\tfunction createProposal(address payable _destination, uint _amount, bytes memory _data) \n\t\tpublic\n\t\townerExists(msg.sender)\n\t\tvalidPoolTimeWindow()\n\t{\n\t\tProposal storage proposal = proposals[numProposals++];\n\t\tisProposal[numProposals] = true;\n\t\tproposal.destination = _destination;\n\t\tproposal.amount = _amount;\n\t\tproposal.data = _data;\n\t\tproposal.numConfirmations[ProposalConfirmationTypes.UNDECIDED] = owners.length;\n\t\tproposal.creator = msg.sender;\n\t\tproposal.creationTime = block.timestamp;\n\t}\n\t\n\tfunction setConfirmation(uint _proposalId, ProposalConfirmationTypes _confirmation) \n\t\tpublic payable\n\t\townerExists(msg.sender)\n\t{\n\t\tProposal storage proposal = proposals[_proposalId];\n\t\tproposal.numConfirmations[proposal.confirmations[msg.sender]]--;\n\t\tproposal.confirmations[msg.sender] = _confirmation;\n\t\tproposal.numConfirmations[_confirmation]++;\n\t}\n\t\n\tfunction executeProposal(uint _proposalId) \n\t\tpublic payable\n\t\tproposalExists(_proposalId)\n\t\townerExists(msg.sender)\n\t{\n\t\tProposal storage proposal = proposals[_proposalId];\n\t\tif (proposal.numConfirmations[ProposalConfirmationTypes.YES] >= confirmationsRequired) {\n\t\t\tproposal.executed = true;\n\t\t\tproposal.destination.transfer(proposal.amount);\n\t\t\t(bool success, ) = proposal.destination.call{value: proposal.amount}(proposal.data);\n\t\t\tif (!success) {\n\t\t\t\tproposal.executed = false;\n\t\t\t}\n\t\t}\n\t}\n\t// getters \n\tfunction getNumOwners() public view returns (uint) {\n\t\treturn owners.length;\n\t}\n\t\n\tfunction getOwners() public view returns (address[] memory) {\n\t\treturn owners;\n\t}\n\t\n\tfunction getNumProposals() public view returns (uint) {\n\t\treturn numProposals;\n\t}\n\t\n\tfunction getOwnerConfirmation(uint _proposalId, address _owner) public view returns (ProposalConfirmationTypes) {\n\t\tProposal storage proposal = proposals[_proposalId];\n\t\treturn proposal.confirmations[_owner];\n\t}\n\t\n\tfunction getProposalNumConfirmations(uint _proposalId, ProposalConfirmationTypes _proposalConfirmationTypes) public view returns (uint) {\n\t\tProposal storage proposal = proposals[_proposalId];\n\t\treturn proposal.numConfirmations[_proposalConfirmationTypes];\n\t}\n\t\t\n\tfunction getProposal(uint _proposalId) public view returns (address, uint, bool) {\n\t\tProposal storage proposal = proposals[_proposalId];\n\t\treturn (proposal.destination, proposal.amount, proposal.executed);\n\t}\n\n\tfunction getProposalCreatedTime(uint _proposalId) public view returns (uint256) {\n\t\tProposal storage proposal = proposals[_proposalId];\n\t\treturn proposal.creationTime;\n\t}\n\t\t\n\tfunction getConfirmationsRequired() public view returns (uint) {\n\t\treturn confirmationsRequired;\n\t}\n\t\n\tfunction getMetadata() public view returns (string memory) {\n\t\treturn metadata;\n\t}\n\n\tfunction getProposalCreator(uint _proposalId) public view returns (address) {\n\t\tProposal storage proposal = proposals[_proposalId];\n\t\treturn proposal.creator;\n\t}\n\n\tfunction getPoolCreatedTime() public view returns(uint256) {\n\t\treturn poolCreationTime;\n\t}\n\n\tfunction getPoolTTL() public view returns(uint256) {\n\t\treturn poolTTL;\n\t}\n}\n",
  "sourcePath": "/Users/KellyIzKewl/1pools/contracts/Pools.sol",
  "compiler": {
    "name": "solc",
    "version": "0.8.10+commit.fc410830.Emscripten.clang"
  },
  "schemaVersion": "3.4.4",
  "updatedAt": "2022-01-11T09:51:31.216Z",
  "devdoc": {
    "kind": "dev",
    "methods": {},
    "version": 1
  },
  "userdoc": {
    "kind": "user",
    "methods": {},
    "version": 1
  }
}